:1000000002002EFFFFFFFFFFFF00000000000000C6
:100020000000000000000000000000021A2075819E
:100030006F1219B7E582600302009A780379007A9B
:100040000E7B007C0B7D00EC4D601C88828983E474
:1000500093A3A882A9838A828B83F0A3AA82AB830D
:100060001CBCFFE31D80E07582007583007C0E7D63
:1000700000EC4D600AE4F0A31CBCFFF51D80F27596
:1000800082007583007C007D00EC4D600AE4F0A3E3
:100090001CBCFFF51D80F212009F121B1380FEE4B2
:1000A000F523F524E4F525F526752702E4F528E483
:1000B000F529F52AC208C209C20AC20BC20CC20D38
:1000C000C20EC20FC210C2112275A70075B2807590
:1000D000BCF875B91E75E80075DF3F75B300D2EF47
:1000E00022AA82438E407592B87593FF85929485BB
:1000F00093957591047B00C3EB9A500BE59130E723
:10010000FB53917F0B80F075910022AA82AB837C18
:10011000007D00C3EC9AED9B502B7E00BE04005086
:100120001D7582FAC002C003C004C005C0061200DB
:10013000E1D006D005D004D003D0020E80DE0CBC86
:1001400000D10D80CE22AA828508F005F0740180CE
:100150000225E0D5F0FBFB75A720BA0002800ABAA1
:100160000102800FBA021E8014EBF4FA52F1EB4246
:10017000D48012EBF4FA52F2EB42D58008EBF4FA99
:1001800052F3EB42CC75A700228582BBD2EC20EC67
:10019000FDD2EC20ECFD85BD8285BE832212018953
:1001A000121B62AA82AB83ACF0FDC002C003C00484
:1001B000C005906C8B75F0537440121BCEAA82ABB5
:1001C00083ACF0FDE58124FCF581E4C0E074FCC063
:1001D000E0747FC0E07446C0E08A828B838CF0EDCF
:1001E000121CB1AA82AB83ACF0FDE58124FCF58141
:1001F0008A828B838CF0ED22AA82AB83EA4B24FFA8
:100200009209E509450A24FF92082290000EE4F0C5
:10021000A3F0900010E4F0A3F090006402010BAA98
:1002200082AB83E4F509F50A900001C002C0031215
:1002300001F8D003D00290001074282AF0E43BA308
:10024000F090000E74192AF0E43BA3F022AA82ABCE
:1002500083750901E4F50A900000C002C003120191
:10026000F8D003D00290000E74282AF0E43BA3F0EB
:1002700090001074192AF0E43BA3F02212020B80C4
:10028000FE74012529F529E4352AF52AC374C7959A
:1002900029E4952A5005E4F529F52AC3E5299405B2
:1002A000E52A94005007B2A1D297D2A022C3E52933
:1002B0009416E52A94004005C297C2A02274052531
:1002C00027FAE43528FBC3E5299AE52A9B9297741F
:1002D00016C39527FAE49528FBC3E5299AE52A9BDE
:1002E00092A022900016E0FABA3200929020110BF0
:1002F00030871FD211E4F523F5242230870C7401D6
:100300002523F523E43524F5242285232585242679
:10031000C21122852582852683021CA48582278519
:1003200083282285823185833285F033900000E472
:10033000F0A3F0900002E4F0A3F0900004E4F0A336
:10034000F0900006E4F0A3F0900006E0FDA3E0FECC
:10035000BD0706BE00030205E55305027E00BD028F
:1003600006BE000302042375820C12019DAD82AE0D
:1003700083AFF0F8C005C006C007C000900000754C
:10038000F07A7444121BCEAD82AE83AFF0F8E581F3
:1003900024FCF5818D828E838FF0E8121C99AD824A
:1003A000AE838531828532838533F0121B46FFA3ED
:1003B000121B46F8EFC39DF582E89EF583C005C089
:1003C00006121C71AF82A883D006D005C374329F79
:1003D000E4648088F063F08095F0400E900000E0C7
:1003E0002401F0A3E03400F08019900000E4F0A3B1
:1003F000F08531828532838533F0ED121C80A3EEC7
:10040000121C80900000E0FDA3E0FEBD0A15BE00B6
:1004100012900006E0FDA3E0FE90000674024DF08D
:10042000A3EEF0900006E0FDA3E05305017E00BDC1
:100430000106BE000302050075820A12019DAD820D
:10044000AE83AFF0F8C005C006C007C00090000042
:1004500075F07A7444121BCEAD82AE83AFF0F8E52E
:100460008124FCF5818D828E838FF0E8121C99AD7A
:1004700082AE83AF2EA82FA9308F82888389F01295
:100480001B46FAA3121B46FBEAC39DF582EB9EF5C1
:1004900083C005C006C007C000C001121C71AA823B
:1004A000AB83D001D000D007D006D005C374329AF8
:1004B000E464808BF063F08095F0400E900004E0DF
:1004C0002401F0A3E03400F08016900004E4F0A3CF
:1004D000F08F82888389F0ED121C80A3EE121C80BD
:1004E000900004E0FAA3E0FBBA0A15BB00129000EA
:1004F00006E0FAA3E0FB90000674014AF0A3EBF0DB
:10050000900006E0FAA3E05302047B00BA0406BBA5
:10051000000302034875820B12019DAA82AB83ACD3
:10052000F0FDC002C003C004C00590000075F07A61
:100530007444121BCEAA82AB83ACF0FDE58124FC8F
:10054000F5818A828B838CF0ED121C99AA82AB8391
:10055000AC2BAD2CAE2D8C828D838EF0121B46FF02
:10056000A3121B46F8EFC39AF582E89BF583C002FD
:10057000C003C004C005C006121C71AF82A883D09E
:1005800006D005D004D003D002C374329FE4648047
:1005900088F063F08095F0400E900002E02401F0B6
:1005A000A3E03400F08016900002E4F0A3F08C8207
:1005B0008D838EF0EA121C80A3EB121C8090000247
:1005C000E0FAA3E0FBBA0A05BB000280030203487D
:1005D000900006E0FAA3E0FB90000674044AF0A342
:1005E000EBF00203482285823A85833B85F03C127A
:1005F0001B46FDA3121B46FEED2470FDEE34FEFEED
:1006000085374085384185394285408285418385DB
:1006100042F0121B46FAA3121B46FBEA2470FAEBC7
:1006200034FEFB85343D85353E85363F853D8285EC
:100630003E83853FF0121B46FCA3121B46FFEC24B1
:1006400070FCEF34FEFF90000E7419F0E4A3F090FC
:1006500000107419F0E4A3F0E4F509F50AF582F549
:1006600083C002C003C004C005C006C0071201F861
:10067000D007D006D005D004D003D002D20E90000F
:1006800014E4F0A3F0C005C00675820BC002C003DD
:10069000C004C00712019DA882A983ADF0FEC0006E
:1006A000C001C005C00690000075F07A7444121BAA
:1006B000CEAD82AE83A8F0F9E58124FCF581D007A8
:1006C000D0048C828F83C004C005C006C007C00060
:1006D000C001121B6285824385834485F045F5463F
:1006E000D001D000D007D006D005C006C007C04357
:1006F000C044C045C0468D828E8388F0E9121B6ECF
:10070000AD82E58124FCF581D007D006D004D0036A
:10071000D002EDD006D005700302095DC004C00709
:1007200075820CC002C003C005C00612019DA882DC
:10073000A983ACF0FFD006D005C004C005C006C038
:1007400007C000C001C004C00790000075F07A74B3
:1007500044121BCE85824785834885F049F54AE5DA
:100760008124FCF581D007D006D005D0048D828E7F
:1007700083C005C006121B62AC82AF83A8F0F9C02B
:1007800007C004C007C000C0018547828548838533
:1007900049F0E54A121B9EAC82E58124FCF581D02C
:1007A00007D006D005D003D002ECD007D004606299
:1007B000E4F509F50A900001C002C003C004C005B9
:1007C000C006C0071201F8D007D006D005D004D06B
:1007D00003D0029000107428F0E4A3F090000E748F
:1007E00028F0E4A3F0300E03020CC2900014E0F8ED
:1007F000A3E0F930E70B9000147401F0E4A3F0805B
:100800000C900014E02401F0A3E03400F0D20E02BA
:100810000CC2C004C00775820AC002C003C005C074
:100820000612019DA882A983ACF0FFD006D005C0B6
:1008300004C005C006C007C000C001C004C00790C6
:10084000000075F07A7444121BCE85824785834878
:1008500085F049F54AE58124FCF581D007D006D022
:1008600005D004D003D0028A828B83C002C003C0AB
:1008700005C006121B62AC82AF83A8F0F9C007C0A6
:1008800004C007C000C0018547828548838549F0C0
:10089000E54A121B9EAC82E58124FCF581D007D08D
:1008A00006D005D003D002ECD007D00460767509DD
:1008B00001E4F50A900000C002C003C004C005C0F6
:1008C00006C0071201F8D007D006D005D004D00327
:1008D000D00290000E7428F0E4A3F0900010742869
:1008E000F0E4A3F0300E03020CC2900014E0F8A371
:1008F000E0F9C3E498E4648089F063F08095F050F7
:100900000A90001474FFF0A3F08014900014E02407
:10091000FFF8A3E034FFF9900014E8F0A3E9F0D267
:100920000E020CC2E4F509F50AF582F583C002C097
:1009300003C004C005C006C0071201F8D007D006E6
:10094000D005D004D003D00290000E7419F0E4A3B7
:10095000F09000107419F0E4A3F0020CC2C004C0BF
:100960000775820CC002C003C005C00612019DA815
:1009700082A983ACF0FFC000C001C004C007900092
:100980000075F07A7444121BCEAC82AF83A8F0F9E4
:10099000E58124FCF581D006D0058D828E83C004CC
:1009A000C005C006C007C000C001121B6285824797
:1009B00085834885F049F54AD001D000D007D0069C
:1009C000D005D004C005C006C007C047C048C04914
:1009D000C04A8C828F8388F0E9121B9EAC82E5812D
:1009E00024FCF581D007D006D005D003D002ECD08E
:1009F00007D0047003020B19C004C00775820AC037
:100A000002C003C005C00612019DA882A983ACF0F4
:100A1000FFD006D005C004C005C006C007C000C096
:100A200001C004C00790000075F07A7444121BCE18
:100A300085824B85834C85F04DF54EE58124FCF590
:100A400081D007D006D005D004D003D0028A828B93
:100A500083C002C003C005C006121B62AC82AF8314
:100A6000A8F0F9C007C004C007C000C001854B82D0
:100A7000854C83854DF0E54E121B9EAC82E58124AA
:100A8000FCF581D007D006D005D003D002ECD0070A
:100A9000D0047003020B19C004C00775820BC0029A
:100AA000C003C005C00612019DA882A983ACF0FF57
:100AB000C000C001C004C00790000075F07A744403
:100AC000121BCEAC82AF83A8F0F9E58124FCF5813E
:100AD000C007C043C044C045C0468C828F8388F0A5
:100AE000E9121B9EAC82E58124FCF581D007D0067B
:100AF000D005D003D002ECD007D004601C100D024A
:100B00008017C20C9007D012010B12020B90000A42
:100B100012031C9001F402010BC004C00775820C83
:100B2000C002C003C005C00612019DA882A983AC03
:100B3000F0FFC000C001C004C00790000075F07A4B
:100B40007444121BCEAC82AF83A8F0F9E58124FC7B
:100B5000F581C007C047C048C049C04A8C828F8316
:100B600088F0E9121B9EAC82E58124FCF581D00758
:100B7000D006D005D003D002ECD007D00470030219
:100B80000C8CC004C00775820AC002C003C005C037
:100B90000612019DA882A983ACF0FFD006D005C043
:100BA00004C005C006C007C000C001C004C0079053
:100BB000000075F07A7444121BCE85824B85834CFD
:100BC00085F04DF54EE58124FCF581D007D006D0A7
:100BD00005D004D003D0028A828B83C002C003C038
:100BE00005C006121B62AC82AF83A8F0F9C007C033
:100BF00004C007C000C001854B82854C83854DF041
:100C0000E54E121B9EAC82E58124FCF581D007D015
:100C100006D005D003D002ECD007D004606EC0042B
:100C2000C00775820BC002C003C005C00612019D3B
:100C3000A882A983ACF0FFC000C001C004C0079027
:100C4000000075F07A7444121BCEAC82AF83A8F01A
:100C5000F9E58124FCF581C007C043C044C045C00C
:100C6000468C828F8388F0E9121B9EAC82E581243A
:100C7000FCF581D007D006D005D003D002ECD00718
:100C8000D0046008100C028003C20D22E4F509F5BF
:100C90000AF582F583C002C003C004C005C006C0C7
:100CA000071201F8D007D006D005D004D003D00237
:100CB00090000E7419F0E4A3F09000107419F0E4A1
:100CC000A3F0900014E0F8A3E0F9C3E89407E96406
:100CD0008094804002D20A900014E0F8A3E0F9C3A7
:100CE00074F998747F89F063F08095F04002C20A2D
:100CF000200B03020F8D200A03020E42C004C0071E
:100D000075820AC002C003C005C00612019DA882F8
:100D1000A983ACF0FFD006D005C004C005C006C052
:100D200007C000C001C004C00790000075F07A74CD
:100D300044121BCE85824B85834C85F04DF54EE5E4
:100D40008124FCF581D007D006D005D004D003D093
:100D5000028A828B83C002C003C005C006121B62D8
:100D6000AC82AF83A8F0F9C007C004C007C000C0C0
:100D700001854B82854C83854DF0E54E121B9EAC60
:100D800082E58124FCF581D007D006D005D003D0C0
:100D900002ECD007D0047003020E42C004C00775F5
:100DA000820BC002C003C005C00612019DA882A923
:100DB00083ACF0FFC000C001C004C0079000007504
:100DC000F07A7444121BCEAC82AF83A8F0F9E581AF
:100DD00024FCF581C007C043C044C045C0468C8296
:100DE0008F8388F0E9121B9EAC82E58124FCF5819B
:100DF000D007D006D005D003D002ECD007D00460D5
:100E000041C20B853D5D853E5E853F5F85406085C7
:100E10004161854262853A82853B83853CF0C00210
:100E2000C003C004C005C006C007121595D007D086
:100E300006D005D004D003D002301004D20D8002B9
:100E4000D20C300A03020685C004C00775820CC0AC
:100E500002C003C005C00612019DA882A983ACF0A0
:100E6000FFD006D005C004C005C006C007C000C042
:100E700001C004C00790000075F07A7444121BCEC4
:100E800085824B85834C85F04DF54EE58124FCF53C
:100E900081D007D006D005D0048D828E83C005C0D6
:100EA00006121B62AC82AF83A8F0F9C007C004C071
:100EB00007C000C001854B82854C83854DF0E54E0F
:100EC000121B9EAC82E58124FCF581D007D006D0B0
:100ED00005D003D002ECD007D0047003020685C011
:100EE00004C00775820BC002C003C005C006120112
:100EF0009DA882A983ACF0FFC000C001C004C00758
:100F000090000075F07A7444121BCEAC82AF83A8B7
:100F1000F0F9E58124FCF581C007C043C044C04519
:100F2000C0468C828F8388F0E9121B9EAC82E581DB
:100F300024FCF581D007D006D005D003D002ECD038
:100F400007D0047003020685C20B853D5D853E5EB9
:100F5000853F5F854060854161854262853A828533
:100F60003B83853CF0C002C003C004C005C006C07E
:100F700007121595D007D006D005D004D003D002B3
:100F8000301005D20D020685D20C020685900014A1
:100F9000E0F8A3E0F9C3E8940FE96480948050205E
:100FA000900014E0F8A3E0F9C374F198747F89F01D
:100FB00063F08095F05003020685200F030206853A
:100FC000C20F22C212E4F509F50AF582F583120177
:100FD000F830120302115675820812019DAA82ABE5
:100FE00083ACF0FDC002C003C004C00590000075D2
:100FF000F07A7444121BCEAA82AB83ACF0FDE5817B
:1010000024FCF5818A828B838CF0ED121C99AA82D4
:10101000AB83758209C002C00312019DAC82AD830F
:10102000AEF0FFC004C005C006C00790000075F018
:101030007A7444121BCEAC82AD83AEF0FFE58124FE
:10104000FCF5818C828D838EF0EF121C99AC82AD01
:1010500083D003D002C374E89A74039BE433FE6028
:101060001EC3EC94E8ED9403501590000E7405F047
:10107000E4A3F09000107428F0E4A3F0021122C35E
:1010800074E89C74039DE433FF601DC3EA94E8EBAD
:101090009403501490000E7428F0E4A3F090001014
:1010A0007405F0E4A3F0807AEF6053EE6050120311
:1010B00013AE82AF83A8F0F9E4C0E0C0E07420C0B2
:1010C000E07442C0E08E828F8388F0E9121B9EAEEE
:1010D00082E58124FCF581EE601490000E7428F006
:1010E000E4A3F09000107428F0E4A3F080349000A2
:1010F0000EE4F0A3F0900010E4F0A3F08024C3EC21
:1011000094E8ED9403501BC3EA94E8EB9403501267
:1011100090000E7419F0E4A3F09000107419F0E43C
:10112000A3F0120313AA82AB83ACF0FDE4C0E0C0CD
:10113000E07480C0E07440C0E08A828B838CF0ED64
:10114000121B9EAA82E58124FCF581EA7003020F3E
:10115000D1D212020FD190000E7419F0E4A3F090D6
:1011600000107419F0E4A3F09001F412010B1202C4
:101170000B90000212031C9001F402010B858251B6
:1011800085835285F053C21330130302123A7582DD
:101190000B12019DAD82AE83AFF0F8C005C006C052
:1011A00007C00090000075F07A7444121BCEAD8227
:1011B000AE83AFF0F8E58124FCF58185518285523C
:1011C000838553F0121B46F9A3121B46FAE92470DB
:1011D000F582EA34FEF583C005C006C007C00012E0
:1011E0001B62AA82AB83ACF0F9D000D007D006D046
:1011F00005C002C003C004C0018D828E838FF0E859
:10120000121B9EAA82E58124FCF581EA6008120285
:101210000BD213021188854F0985500A854F8285AC
:1012200050831201F890000E7419F0E4A3F09000BE
:10123000107419F0E4A3F002118822858257858387
:101240005885F05975820C12019DAD82AE83AFF0C6
:10125000F8C005C006C007C00090000075F07A74A1
:1012600044121BCEAD82AE83AFF0F8E58124FCF5CD
:10127000818557828558838559F0121B46F9A31240
:101280001B46FAE92470F582EA34FEF583C005C0F6
:1012900006C007C000121B62AA82AB83ACF0F9D073
:1012A00000D007D006D005C002C003C004C0018D25
:1012B000828E838FF0E8121B9EAA82E58124FCF5C2
:1012C00081EA600990000A12021F02135675820A11
:1012D00012019DAA82AB83ACF0FDC002C003C00422
:1012E000C00590000075F07A7444121BCEAA82AB40
:1012F00083ACF0FDE58124FCF581AE54AF55A856D2
:101300008E828F8388F0121B46FEA3121B46FFEECF
:101310002470F582EF34FEF583C002C003C004C020
:1013200005121B62AE82AF83A8F0F9D005D004D0BD
:1013300003D002C006C007C000C0018A828B838C24
:10134000F0ED121B9EAA82E58124FCF581EA60067D
:1013500090000A12024D85545A85555B85565C757E
:10136000820C12019DAD82AE83AFF0F8C005C006BD
:10137000C007C00090000075F07A7444121BCEAD17
:1013800082AE83AFF0F8E58124FCF5818557828534
:1013900058838559F0121B46F9A3121B46FAE9241B
:1013A00070F582EA34FEF583C005C006C007C000B0
:1013B000121B62AA82AB83ACF0F9D000D007D00632
:1013C000D005C002C003C004C0018D828E838FF09F
:1013D000E8121B9EAA82E58124FCF581EA700302D3
:1013E000146575820A12019DAD82AE83AFF0F8C01C
:1013F00005C006C007C00090000075F07A74441262
:101400001BCEAD82AE83AFF0F8E58124FCF581857B
:101410005A82855B83855CF0121B46F9A3121B463A
:10142000FAE92470F582EA34FEF583C005C006C0EF
:1014300007C000121B62AA82AB83ACF0F9D000D0C7
:1014400007D006D005C002C003C004C0018D828E43
:10145000838FF0E8121B9EAA82E58124FCF581EAC5
:10146000600302135F2275820812019DAA82AB837A
:10147000ACF0FDC002C003C004C00590000075F0D0
:101480007A7444121BCEAA82AB83ACF0FDE58124B2
:10149000FCF581E4C0E0C0E0747AC0E07444C0E0D0
:1014A0008A828B838CF0ED121B9EAA82E58124FC3C
:1014B000F581EA704F75820912019DAA82AB83AC57
:1014C000F0FDC002C003C004C00590000075F07AB2
:1014D0007444121BCEAA82AB83ACF0FDE58124FCE0
:1014E000F581E4C0E0C0E0747AC0E07444C0E08AF2
:1014F000828B838CF0ED121B9EAA82E58124FCF581
:1015000081EA600490000122120313AA82AB83AC2B
:10151000F0FDE4C0E0C0E07420C0E07442C0E08AA6
:10152000828B838CF0ED121B6EAA82E58124FCF580
:1015300081EA7004900001229000002290000A12BB
:10154000031C12020B9001F412010B300A1DE4F58A
:1015500009F50A9000011201F8900010E4F0A3F0E0
:1015600090000E7419F0E4A3F0801C750901E4F5F5
:101570000A9000001201F89000107419F0E4A3F032
:1015800090000EE4F0A3F0121466AA82AB83BA01B5
:10159000F6BB00F32285826385836485F065200AAB
:1015A000030216DE750901E4F50A9000001201F845
:1015B00090000E7423F0E4A3F09000107423F0E484
:1015C000A3F09002BC12010B85606985616A856297
:1015D0006B855D66855E67855F6875820A12019D11
:1015E000A882A983ADF0FEC000C001C005C006906E
:1015F000000075F07A7444121BCE85826C85836D71
:1016000085F06EF56FE58124FCF581856982856A38
:1016100083856BF0121B46F9A3121B46FDE924706B
:10162000F582ED34FEF583121B62AD82AE83AFF01E
:10163000F8C005C006C007C000856C82856D838533
:101640006EF0E56F121B9EAD82E58124FCF581ED05
:10165000708875820B12019DAD82AE83AFF0F8C029
:1016600005C006C007C00090000075F07A744412EF
:101670001BCE85826C85836D85F06EF56FE58124C8
:10168000FCF5818566828567838568F0121B46F9C3
:10169000A3121B46FDE92470F582ED34FEF583129A
:1016A0001B62AD82AE83AFF0F8C005C006C007C0B4
:1016B00000856C82856D83856EF0E56F121B9EAD93
:1016C00082E58124FCF581ED60030215DAE4F54F33
:1016D000F5508566828567838568F002117DE4F5A3
:1016E00009F50A9000011201F890000E7423F0E44D
:1016F000A3F09000107423F0E4A3F09002BC120158
:101700000BAD5DAE5EAF5FC005C006C00775820C55
:10171000C005C006C00712019DA882A983AAF0FBDC
:10172000C000C001C002C00390000075F07A74448C
:10173000121BCEAA82AB83ACF0F8E58124FCF581C4
:10174000D007D006D0058563828564838565F01255
:101750001B46F9A3121B46FDE92470F582ED34FE09
:10176000F583C002C003C004C000121B62AD82AE8C
:1017700083AFF0F9D000D004D003D002C005C0067A
:10178000C007C005C006C007C0018A828B838CF0E9
:10179000E8121B9EAA82E58124FCF581D007D006C1
:1017A000D005D007D006D005EA600302170775827E
:1017B0000BC005C006C00712019DAA82AB83ACF026
:1017C000F8C002C003C004C00090000075F07A7435
:1017D00044121BCE85826C85836D85F06EF56FE5B6
:1017E0008124FCF581D007D006D0058D828E838FB1
:1017F000F0121B46F9A3121B46FAE92470F582EA9F
:1018000034FEF583C005C006C007121B62AA82AB76
:1018100083ACF0F8C002C003C004C000856C8285B0
:101820006D83856EF0E56F121B9EAA82E58124FC14
:10183000F581D007D006D005EA6003021707E4F56A
:101840004FF5508D828E838FF002117DC20B752B68
:101850000C752C00752D00752E0A752F0075300043
:1018600090000875F000120323E4F54FF550900046
:101870000C75F00012117D75540A755500755600EF
:1018800090000875F00012123BD20F75340C7535BC
:101890000075360075370A753800753900900008F4
:1018A00075F0001205E612020B90000A12031C905C
:1018B00003E812010B12153C120FC3752B0C752C8B
:1018C00000752D00752E0A752F00753000900008E8
:1018D00075F000120323754F01E4F55090000C756C
:1018E000F00012117D900014E4F0A3F075340C7533
:1018F000350075360075370A753800753900900067
:101900000875F0001205E6D20BD21075340C75354F
:101910000075360075370A75380075390090000873
:1019200075F0001205E612020B9001F412010B751E
:101930002B0C752C00752D00752E0A752F00753037
:101940000090000875F000120323754F01E4F55074
:1019500090000C75F00012117D75540A75550075D4
:10196000560090000875F00012123B90000212031E
:101970001C900014E4F0A3F0D20F75340C75350000
:1019800075360075370A753800753900900008758E
:10199000F0001205E6D20BC21075340C75350075D7
:1019A000360075370A75380075390090000875F0F3
:1019B000001205E602027C75A7007597DE7597ADEB
:1019C00075FF8075EF0675A71075C12075A70075A6
:1019D000A90075A900E5A930E7FB75A90375A9035E
:1019E000E5A930E7FB43A41075E10175E20075E35A
:1019F00040759810758DE6858D8B53890F4389202E
:101A0000D28ED29975C800438E1075CAE075CBE3AB
:101A100075CEFF75CFFFD2ADD2CAD2AF758200228C
:101A2000C020C0E0C0F0C082C083C002C003C004B8
:101A3000C005C006C007C000C001C0D075D010C22C
:101A4000CF900016E02401F0900016E0FABA64008E
:101A5000402B900016E4F0900017E02401F0A3E082
:101A60003400F0900017E0FAA3E0FBC3EA9432EBF5
:101A700094004009900017E4F0A3F0C20E20091A68
:101A8000C2A1900016E0FA90000EE0FBA3E0FC7DFE
:101A900000C3EA9BED9C92A28018C2A2900016E0BF
:101AA000FA90000EE0FBA3E0FC7D00C3EA9BED9CF6
:101AB00092A130081AC2A3900016E0FA900010E03C
:101AC000FBA3E0FC7D00C3EA9BED9C92A48018C2BE
:101AD000A4900016E0FA900010E0FBA3E0FC7D006B
:101AE000C3EA9BED9C92A375D0001202E375D0006F
:101AF00012028175D010D0D0D001D000D007D0060E
:101B0000D005D004D003D002D083D082D0F0D0E072
:101B1000D0203212020B750806758201120146753B
:101B200008057582011201467508047582011201CB
:101B30004675080375820112014675080275820117
:101B40001201460200C920F71430F6148883A882D7
:101B500020F507E6A88375830022E280F7E493224C
:101B6000E022E4AC83AB82FAF9748E021DD9FFA89F
:101B7000811818121E01D2D133E6400730E70B75E9
:101B800082012220E70675820022C2D1121DE3E9FC
:101B90007003F5822230D101B3E433F58222FFA82D
:101BA000811818121E01D2D133E6400730E70B75B9
:101BB00082002220E70675820122C2D1121DE3E9CC
:101BC0007003F5822220D101B3E433F58222121E84
:101BD000AEBC0003021E4DEF60FA30D502B2D1E573
:101BE00083B4FF03021E63E582B4FF03021E632574
:101BF0008340072482400B021E4D248314500302AD
:101C00001E63F582EA8DF0A4A8F0EA8EF0A428F80D
:101C1000E435F0F9EB8DF0A428E935F0F9E433CAA6
:101C20008FF0A429F9EA35F0FAEBF88EF0A429F93F
:101C3000EA35F0FAE433FBEC8DF0A429F9EA35F04B
:101C4000FAE43BFBE88FF0A42AFAEB35F0FBE4332F
:101C5000CCFD8EF0A42AFAEB35F0FBE43CFCED8FD2
:101C6000F0A42BFBEC35F0FC20E703121E7B021ED8
:101C70002CE58330E709F4F583E582F4F582A322AD
:101C800020F71030F6118883A88220F507F6A88384
:101C900075830022F280F7F0227F8E121EDEF5831C
:101CA00085F08222AC83AB827A007900748E021FA9
:101CB0000C121EAE30D502B2D1BF0009BC00030227
:101CC0001E70021E63BC0003021E4DE583B4FF0BB1
:101CD000E582B4FF03021E70021E4DE582B4FF03CD
:101CE000021E63C395835007247F400B021E4D24C0
:101CF00080145003021E63C0E0E4CCCBCAF98D0807
:101D00008E098F0AEF54F0C4F50B758306850BF02E
:101D1000EB84F582E9C4F9EAC4FAEBC4FBEC540F96
:101D2000C47803D6FC18EBD6FB18EAD6FA8582F005
:101D3000EDA4A8F0FD8582F0EEA428FEE435F0F8CD
:101D40008582F0EFA428FFE435F0F8E99DF9EA9EDA
:101D5000FAEB9FFBEC98FCAD08AE09AF0A30E71038
:101D60001582E92DF9EA3EFAEB3FFBE43CFC80EDFD
:101D7000C082D58398C3E933F9EA33FAEB33FBEC3D
:101D800033FCC3E99DEA9EEB9FEC9400B3E413F9A6
:101D9000D002D0E0C44AFAD003D0E0C44BFBD00458
:101DA000D0E0F5F0540FC44CFCD082158230F40F13
:101DB000D3EC13FCEB13FBEA13FAE913F90582E900
:101DC00030E70A74012AFAE43BFBE43CFC021E44BF
:101DD000FCABF0AA83A982749EC2D1F582121E7B4D
:101DE000021E2C7901AA82E68F82B5821318E6B50D
:101DF000F00E18E6B5830918E68A82B582027900EA
:101E000022B4800FE5F0700AE5837006E582700267
:101E10007F00EFB6801518B6001018B6000B18B684
:101E2000000608080876002208080822B98003EA9C
:101E300013B34010EA2401FAE43BFBE43CFC5004F9
:101E40007C800582BC000EBB000BBA0008E4F5F0F4
:101E5000F583F58222A2D1E582138CF092F78B8371
:101E60008A8222E4F583F58275F080F4A2D11322F0
:101E7000E4F583F58275F0C0747F227804EC70116C
:101E8000E58224F8500AF582E4C9CACBFCD8EF22D7
:101E9000EC7820058220E713D5820122C3E933F9CB
:101EA000EA33FAEB33FBEC33FCD8EA158222AA8240
:101EB000AB83A2F73392D16002D2F7F582ACF0E5A2
:101EC0008124F9F8E6FD08E6FE0886F008E6A2F7A8
:101ED0003392D56002D2F7F583AFF0227F9E121FB6
:101EE0003030D103021E4DC3EF9582500974FFF5C7
:101EF000F0F583F582227900121F4289828A838B52
:101F0000F0EC22FCABF0AA83A982749EF582C2D1C8
:101F1000EC30E716D2D1E9F42401F9EAF43400FAFE
:101F2000EBF43400FBECF43400FC121E7B021E2C9C
:101F3000AA82AB83A2F73392D16002D2F7F582ACCA
:101F4000F0226040F82582500274FFF582E824F800
:101F5000501ECCCBCAF9E4CC24F85014CBCAF9E417
:101F6000CB24F8500BCAF9E4CA24F85003790022B4
:101F700024086010F8C3EC13FCEB13FBEA13FAE936
:101F800013F9D8F12200000000000000000000005A
:00000001FF
