:1000000002002E2564000A003C4E4F20464C4F4112
:10001000543E00C213C214C215C216C217C218C27F
:1000200019C21A2200000000000000021C1875818D
:1000300085121A63E582600302009A789F79007A3C
:10004000207B007C137D00EC4D601C88828983E45A
:1000500093A3A882A9838A828B83F0A3AA82AB830D
:100060001CBCFFE31D80E07582007583007C207D51
:1000700000EC4D600AE4F0A31CBCFFF51D80F27596
:1000800082007583007C007D00EC4D600AE4F0A3E3
:100090001CBCFFF51D80F212001312206580FE00CB
:1000A000000000000000000000000000000000024E
:1000B000000075A70075B28075BCF875B91E75E8AB
:1000C0000075DF3F75B300D2EF22AA82438E4075E0
:1000D00092B87593FF8592948593957591047B00F2
:1000E000C3EB9A500BE59130E7FB53917F0B80F007
:1000F00075910022AA82AB837C007D00C3EC9AED4F
:100100009B502B7E00BE0400501D7582FAC002C0B9
:1001100003C004C005C0061200CAD006D005D00432
:10012000D003D0020E80DE0CBC00D10D80CE22AAFE
:1001300082850AF005F07401800225E0D5F0FBFB12
:1001400075A720BA0002800ABA0102800FBA021E07
:100150008014EBF4FA52F1EB42D48012EBF4FA5231
:10016000F2EB42D58008EBF4FA52F3EB42CC75A7E0
:1001700000228582BBD2EC20ECFDD2EC20ECFD8588
:10018000BD8285BE832212017212216CAA82AB83CA
:10019000ACF0FDC002C003C004C005906C8B75F0CC
:1001A000537440122201AA82AB83ACF0FDE5812496
:1001B000FCF581E4C0E074FCC0E0747FC0E07446EC
:1001C000C0E08A828B838CF0ED12232AAA82AB8353
:1001D000ACF0FDE58124FCF5818A828B838CF0ED07
:1001E00022AA82AB83EA4B24FF921BE50B450C2429
:1001F000FF921C22900004E4F0A3F0900006E4F0CB
:10020000A3F09000640200F4AA82AB83E4F50BF53E
:100210000C900001C002C0031201E1D003D0029093
:100220000006742D2AF0E43BA3F090000474192A10
:10023000F0E43BA3F022AA82AB83750B01E4F50C3A
:10024000900000C002C0031201E1D003D002900070
:1002500004742D2AF0E43BA3F090000674192AF0F0
:10026000E43BA3F0221201F480FE900032E0FABADF
:1002700016004005C297C2A022900032E0FA90001A
:1002800030E0FBA3E0FC7D00C3EA9BED9C929790DD
:100290000030E0FAA3E0FB741BC39AFAE49BFB90E6
:1002A0000032E0FC7D00C3EC9AED9B92A02290000E
:1002B00032E0FABA3200929020190D30872CD21910
:1002C00090002CE4F0A3F02230870D90002CE02465
:1002D00001F0A3E03400F02290002CE0FAA3E0FB50
:1002E00090002EEAF0A3EBF0C2192285822C8583C0
:1002F0002D85F02E900012E4F0A3F0900014E4F0AD
:10030000A3F0900016E4F0A3F0900018E4F0A3F03E
:1003100090000AE4F0A3F0900018E0FDA3E0FEBD19
:100320000706BE00030205E75305027E00BD020674
:10033000BE000302040375820C120186AD82AE83F7
:10034000AFF0F8C005C006C007C00090000075F00F
:100350007A7444122201AD82AE83AFF0F8E58124B5
:10036000FCF5818D828E838FF0E812231FE5828554
:1003700083F090000AF0A3E5F0F0852C82852D83B0
:10038000852EF01220EBFDA31220EBFE90000AE078
:10039000FFA3E0F8EDC39FF582EE98F5831222A447
:1003A000AD82AE83C374329DE464808EF063F080CE
:1003B00095F0400E900012E02401F0A3E03400F02C
:1003C0008021900012E4F0A3F090000AE0FDA3E089
:1003D000FE852C82852D83852EF0ED122306A3EE5B
:1003E000122306900012E0FDA3E0FEBD0A15BE0038
:1003F00012900018E0FDA3E0FE90001874024DF08A
:10040000A3EEF0900018E0FDA3E05305017E00BDCF
:100410000106BE00030204F175820A120186AD8254
:10042000AE83AFF0F8C005C006C007C00090000062
:1004300075F07A7444122201AD82AE83AFF0F8E514
:100440008124FCF5818D828E838FF0E812231FE5D5
:10045000828583F090000AF0A3E5F0F0AD29AE2A82
:10046000AF2B8D828E838FF01220EBF8A31220EB3E
:10047000F990000AE0FAA3E0FBE8C39AF582E99B51
:10048000F583C005C006C0071222A4AA82AB83D0A0
:1004900007D006D005C374329AE464808BF063F011
:1004A0008095F0400E900016E02401F0A3E03400A7
:1004B000F0801E900016E4F0A3F090000AE0FAA38A
:1004C000E0FB8D828E838FF0EA122306A3EB1223CA
:1004D00006900016E0FAA3E0FBBA0A15BB001290E2
:1004E0000018E0FAA3E0FB90001874014AF0A3EBB7
:1004F000F0900018E0FAA3E05302047B00BA04066F
:10050000BB000302031775820B120186AA82AB831C
:10051000ACF0FDC002C003C004C00590000075F03F
:100520007A7444122201AA82AB83ACF0FDE58124E7
:10053000FCF5818A828B838CF0ED12231FE5828586
:1005400083F090000AF0A3E5F0F0AA26AB27AC28D0
:100550008A828B838CF01220EBFDA31220EBFE909D
:10056000000AE0FFA3E0F8EDC39FF582EE98F58363
:10057000C002C003C0041222A4AD82AE83D004D056
:1005800003D002C374329DE464808EF063F08095E2
:10059000F0400E900014E02401F0A3E03400F0805D
:1005A0001E900014E4F0A3F090000AE0FDA3E0FE2A
:1005B0008A828B838CF0ED122306A3EE1223069021
:1005C0000014E0FAA3E0FBBA0A05BB0002800302B4
:1005D0000317900018E0FAA3E0FB90001874044A97
:1005E000F0A3EBF00203172285823585833685F070
:1005F000371220EBFDA31220EBFEED2470FDEE344C
:10060000FEFE85323B85333C85343D853B82853C0F
:1006100083853DF01220EBFAA31220EBFBEA247055
:10062000FAEB34FEFB852F3885303985313A853831
:1006300082853983853AF01220EBFCA31220EBFF70
:10064000EC2470FCEF34FEFF9000047419F0E4A376
:10065000F09000067419F0E4A3F0E4F50BF50CF546
:1006600082F583C002C003C004C005C006C00712E3
:1006700001E1D007D006D005D004D003D002D216B5
:10068000900028E4F0A3F0C005C00675820BC002FC
:10069000C003C004C007120186A882A983ADF0FE82
:1006A000C000C001C005C00690000075F07A744417
:1006B000122201AD82AE83A8F0F9E58124FCF58118
:1006C000D007D0048C828F83C004C005C006C00749
:1006D000C000C00112216C85823E85833F85F040B9
:1006E000F541D001D000D007D006D005C006C00724
:1006F000C03EC03FC040C0418D828E8388F0E91269
:100700002178AD82E58124FCF581D007D006D004A4
:10071000D003D002EDD006D005700302095FC004FB
:10072000C00775820CC002C003C005C00612018656
:10073000A882A983ACF0FFD006D005C004C005C0D4
:1007400006C007C000C001C004C00790000075F0DB
:100750007A744412220185824285834385F044F5F0
:1007600045E58124FCF581D007D006D005D0048D65
:10077000828E83C005C00612216CAC82AF83A8F0C4
:10078000F9C007C004C007C000C00185428285438C
:10079000838544F0E5451221A8AC82E58124FCF56F
:1007A00081D007D006D005D003D002ECD007D0040A
:1007B0006062E4F50BF50C900001C002C003C004B8
:1007C000C005C006C0071201E1D007D006D005D091
:1007D00004D003D002900006742DF0E4A3F0900042
:1007E00004742DF0E4A3F0301603020CC49000282A
:1007F000E0F8A3E0F930E70B9000287401F0E4A3DF
:10080000F0800C900028E02401F0A3E03400F0D246
:1008100016020CC4C004C00775820AC002C003C01F
:1008200005C006120186A882A983ACF0FFD006D0CD
:1008300005C004C005C006C007C000C001C004C098
:100840000790000075F07A74441222018582428577
:10085000834385F044F545E58124FCF581D007D03C
:1008600006D005D004D003D0028A828B83C002C098
:1008700003C005C00612216CAC82AF83A8F0F9C09A
:1008800007C004C007C000C001854282854383853C
:1008900044F0E5451221A8AC82E58124FCF581D025
:1008A00007D006D005D003D002ECD007D004607684
:1008B000750B01E4F50C900000C002C003C004C039
:1008C00005C006C0071201E1D007D006D005D0044C
:1008D000D003D002900004742DF0E4A3F090000641
:1008E000742DF0E4A3F0301603020CC4900028E04D
:1008F000F8A3E0F9C3E498E4648089F063F080959C
:10090000F0500A90002874FFF0A3F08014900028A3
:10091000E024FFF8A3E034FFF9900028E8F0A3E911
:10092000F0D216020CC4E4F50BF50CF582F583C089
:1009300002C003C004C005C006C0071201E1D00711
:10094000D006D005D004D003D0029000047419F072
:10095000E4A3F09000067419F0E4A3F0020CC4C004
:1009600004C00775820CC002C003C005C006120196
:1009700086A882A983ACF0FFC000C001C004C007F4
:1009800090000075F07A7444122201AC82AF83A803
:10099000F0F9E58124FCF581D006D0058D828E83A7
:1009A000C004C005C006C007C000C00112216C858C
:1009B000824285834385F044F545D001D000D007BD
:1009C000D006D005D004C005C006C007C042C04351
:1009D000C044C0458C828F8388F0E91221A8AC8284
:1009E000E58124FCF581D007D006D005D003D002E4
:1009F000ECD007D0047003020B1BC004C007758243
:100A00000AC002C003C005C006120186A882A983DD
:100A1000ACF0FFD006D005C004C005C006C007C0BA
:100A200000C001C004C00790000075F07A74441241
:100A3000220185824685834785F048F549E5812472
:100A4000FCF581D007D006D005D004D003D0028AAF
:100A5000828B83C002C003C005C00612216CAC8229
:100A6000AF83A8F0F9C007C004C007C000C001856B
:100A700046828547838548F0E5491221A8AC82E586
:100A80008124FCF581D007D006D005D003D002EC3C
:100A9000D007D0047003020B1BC004C00775820B83
:100AA000C002C003C005C006120186A882A983AC9B
:100AB000F0FFC000C001C004C00790000075F07ACC
:100AC0007444122201AC82AF83A8F0F9E58124FCC2
:100AD000F581C007C03EC03FC040C0418C828F83BB
:100AE00088F0E91221A8AC82E58124FCF581D007C9
:100AF000D006D005D003D002ECD007D004601C1083
:100B000015028017C2149007D01200F41201F4905D
:100B1000000A121D779001F40200F4C004C00775AA
:100B2000820CC002C003C005C006120186A882A9BB
:100B300083ACF0FFC000C001C004C0079000007586
:100B4000F07A7444122201AC82AF83A8F0F9E581F7
:100B500024FCF581C007C042C043C044C0458C821C
:100B60008F8388F0E91221A8AC82E58124FCF5810D
:100B7000D007D006D005D003D002ECD007D0047047
:100B800003020C8EC004C00775820AC002C003C0F5
:100B900005C006120186A882A983ACF0FFD006D05A
:100BA00005C004C005C006C007C000C001C004C025
:100BB0000790000075F07A74441222018582468500
:100BC000834785F048F549E58124FCF581D007D0BD
:100BD00006D005D004D003D0028A828B83C002C025
:100BE00003C005C00612216CAC82AF83A8F0F9C027
:100BF00007C004C007C000C00185468285478385C1
:100C000048F0E5491221A8AC82E58124FCF581D0A9
:100C100007D006D005D003D002ECD007D004606E18
:100C2000C004C00775820BC002C003C005C0061215
:100C30000186A882A983ACF0FFC000C001C004C037
:100C40000790000075F07A7444122201AC82AF83E1
:100C5000A8F0F9E58124FCF581C007C03EC03FC083
:100C600040C0418C828F8388F0E91221A8AC82E5D4
:100C70008124FCF581D007D006D005D003D002EC4A
:100C8000D007D00460081014028003C21522E4F5D6
:100C90000BF50CF582F583C002C003C004C005C08B
:100CA00006C0071201E1D007D006D005D004D0035A
:100CB000D0029000047419F0E4A3F09000067419B7
:100CC000F0E4A3F0900028E0F8A3E0F9C3E8940A68
:100CD000E9648094804002D212900028E0F8A3E0FA
:100CE000F9C374F698747F89F063F08095F0400240
:100CF000C212201303020F8F201203020E44C004FD
:100D0000C00775820AC002C003C005C00612018672
:100D1000A882A983ACF0FFD006D005C004C005C0EE
:100D200006C007C000C001C004C00790000075F0F5
:100D30007A744412220185824685834785F048F5FE
:100D400049E58124FCF581D007D006D005D004D038
:100D500003D0028A828B83C002C003C005C0061282
:100D6000216CAC82AF83A8F0F9C007C004C007C0F3
:100D700000C0018546828547838548F0E5491221F8
:100D8000A8AC82E58124FCF581D007D006D005D03F
:100D900003D002ECD007D0047003020E44C004C09C
:100DA0000775820BC002C003C005C006120186A8E9
:100DB00082A983ACF0FFC000C001C004C00790004E
:100DC0000075F07A7444122201AC82AF83A8F0F966
:100DD000E58124FCF581C007C03EC03FC040C04152
:100DE0008C828F8388F0E91221A8AC82E58124FCF3
:100DF000F581D007D006D005D003D002ECD007D0C3
:100E0000046041C213853858853959853A5A853B63
:100E10005B853C5C853D5D8535828536838537F015
:100E2000C002C003C004C005C006C00712154FD0E1
:100E300007D006D005D004D003D002301804D21554
:100E40008002D214301203020687C004C0077582E4
:100E50000CC002C003C005C006120186A882A98387
:100E6000ACF0FFD006D005C004C005C006C007C066
:100E700000C001C004C00790000075F07A744412ED
:100E8000220185824685834785F048F549E581241E
:100E9000FCF581D007D006D005D0048D828E83C0AA
:100EA00005C00612216CAC82AF83A8F0F9C007C060
:100EB00004C007C000C0018546828547838548F08D
:100EC000E5491221A8AC82E58124FCF581D007D048
:100ED00006D005D003D002ECD007D0047003020680
:100EE00087C004C00775820BC002C003C005C006DE
:100EF000120186A882A983ACF0FFC000C001C00423
:100F0000C00790000075F07A7444122201AC82AFE1
:100F100083A8F0F9E58124FCF581C007C03EC03FFD
:100F2000C040C0418C828F8388F0E91221A8AC8236
:100F3000E58124FCF581D007D006D005D003D0028E
:100F4000ECD007D0047003020687C2138538588599
:100F50003959853A5A853B5B853C5C853D5D8535D5
:100F6000828536838537F0C002C003C004C005C047
:100F700006C00712154FD007D006D005D004D00305
:100F8000D002301805D215020687D21402068790C7
:100F90000028E0F8A3E0F9C3E8940AE964809480AB
:100FA0005020900028E0F8A3E0F9C374F698747F0D
:100FB00089F063F08095F050030206872017030242
:100FC0000687C21722C21DE4F50BF50CF582F583E6
:100FD0001201E1301D03021126758208120186AA52
:100FE00082AB83ACF0FDC002C003C004C00590001A
:100FF0000075F07A7444122201AA82AB83ACF0FD32
:10100000E58124FCF5818A828B838CF0ED12231F0D
:10101000AA82AB83758209C002C003120186AC822A
:10102000AD83AEF0FFC004C005C006C0079000004D
:1010300075F07A7444122201AC82AD83AEF0FFE504
:101040008124FCF5818C828D838EF0EF12231FACFE
:1010500082AD83D003D002C374E89A74039BE43357
:10106000FE601EC3EC94E8ED9403501590000474E8
:1010700005F0E4A3F0900006742DF0E4A3F0021153
:101080000DC374E89C74039DE433FF601DC3EA94B0
:10109000E8EB94035014900004742DF0E4A3F09056
:1010A00000067405F0E4A3F08063EF603CEE603965
:1010B00090002EE0FEA3E0FFC3EE941EEF940050DC
:1010C00014900004742DF0E4A3F0900006742DF049
:1010D000E4A3F080389000047419F0E4A3F09000C9
:1010E000067419F0E4A3F08024C3EC94E8ED9403B3
:1010F000501BC3EA94E8EB94035012900004741957
:10110000F0E4A3F09000067419F0E4A3F090002E30
:10111000E0FAA3E0FBC3EA9404EB94004003020F5F
:10112000D3D21D020FD39000047419F0E4A3F09001
:1011300000067419F0E4A3F090012C1200F41201DF
:10114000F4900002121D779001F40200F485824CA5
:1011500085834D85F04EC21E301E0302120A758231
:101160000B120186AD82AE83AFF0F8C005C006C099
:1011700007C00090000075F07A7444122201AD821D
:10118000AE83AFF0F8E58124FCF581854C82854D76
:1011900083854EF01220EBF9A31220EBFAE92470BC
:1011A000F582EA34FEF583C005C006C007C0001210
:1011B000216CAA82AB83ACF0F9D000D007D006D066
:1011C00005C002C003C004C0018D828E838FF0E889
:1011D0001221A8AA82E58124FCF581EA60081201A7
:1011E000F4D21E021158854A0B854B0C854A828524
:1011F0004B831201E19000047419F0E4A3F0900015
:10120000067419F0E4A3F0021158228582528583F6
:101210005385F05475820C120186AD82AE83AFF017
:10122000F8C005C006C007C00090000075F07A74D1
:1012300044122201AD82AE83AFF0F8E58124FCF5C3
:10124000818552828553838554F01220EBF9A312D5
:1012500020EBFAE92470F582EA34FEF583C005C07C
:1012600006C007C00012216CAA82AB83ACF0F9D093
:1012700000D007D006D005C002C003C004C0018D55
:10128000828E838FF0E81221A8AA82E58124FCF5E2
:1012900081EA600990000A12020802132675820A88
:1012A000120186AA82AB83ACF0FDC002C003C00469
:1012B000C00590000075F07A7444122201AA82AB36
:1012C00083ACF0FDE58124FCF581AE4FAF50A85111
:1012D0008E828F8388F01220EBFEA31220EBFFEEAC
:1012E0002470F582EF34FEF583C002C003C004C051
:1012F0000512216CAE82AF83A8F0F9D005D004D0DE
:1013000003D002C006C007C000C0018A828B838C54
:10131000F0ED1221A8AA82E58124FCF581EA60069D
:1013200090000A120236854F5585505685515775E3
:10133000820C120186AD82AE83AFF0F8C005C00604
:10134000C007C00090000075F07A7444122201AD0D
:1013500082AE83AFF0F8E58124FCF5818552828569
:1013600053838554F01220EBF9A31220EBFAE92401
:1013700070F582EA34FEF583C005C006C007C000E0
:1013800012216CAA82AB83ACF0F9D000D007D00652
:10139000D005C002C003C004C0018D828E838FF0CF
:1013A000E81221A8AA82E58124FCF581EA60030203
:1013B000132F75820A120186AD82AE83AFF0F8C09A
:1013C00005C006C007C00090000075F07A74441292
:1013D0002201AD82AE83AFF0F8E58124FCF5818572
:1013E00055828556838557F01220EBF9A31220EB26
:1013F000FAE92470F582EA34FEF583C005C006C020
:1014000007C00012216CAA82AB83ACF0F9D000D0E7
:1014100007D006D005C002C003C004C0018D828E73
:10142000838FF0E81221A8AA82E58124FCF581EAE5
:10143000600302132F22758208120186AA82AB83F1
:10144000ACF0FDC002C003C004C00590000075F000
:101450007A7444122201AA82AB83ACF0FDE58124A8
:10146000FCF581E4C0E0C0E0747AC0E07444C0E000
:101470008A828B838CF0ED1221A8AA82E58124FC5C
:10148000F581EA704F758209120186AA82AB83AC9E
:10149000F0FDC002C003C004C00590000075F07AE2
:1014A0007444122201AA82AB83ACF0FDE58124FCD6
:1014B000F581E4C0E0C0E0747AC0E07444C0E08A22
:1014C000828B838CF0ED1221A8AA82E58124FCF5A1
:1014D00081EA60049000012290002EE0FAA3E0FB74
:1014E000C374199AE49B40049000012290000022EA
:1014F00090000A121D771201F49001F41200F430EA
:10150000121FE4F50BF50C9000011201E1900006AA
:10151000740FF0E4A3F09000047423F0E4A3F080CF
:101520001E750B01E4F50C9000001201E19000061D
:101530007423F0E4A3F0900004740FF0E4A3F0121D
:101540001436AA82AB83BA01F6BB00F30201F4851C
:10155000825E85835F85F06020120302169E750B04
:1015600001E4F50C9000001201E19000047419F000
:10157000E4A3F09000067419F0E4A3F09002BC120A
:1015800000F4855B64855C65855D66855861855979
:1015900062855A6375820A120186A882A983ADF01A
:1015A000FEC000C001C005C00690000075F07A744E
:1015B0004412220185826785836885F069F56AE5B2
:1015C0008124FCF5818564828565838566F012201F
:1015D000EBF9A31220EBFDE92470F582ED34FEF562
:1015E0008312216CAD82AE83AFF0F8C005C006C097
:1015F00007C0008567828568838569F0E56A1221E6
:10160000A8AD82E58124FCF581ED708875820B120E
:101610000186AD82AE83AFF0F8C005C006C007C03A
:101620000090000075F07A7444122201858267856B
:10163000836885F069F56AE58124FCF5818561821E
:101640008562838563F01220EBF9A31220EBFDE99C
:101650002470F582ED34FEF58312216CAD82AE83E9
:10166000AFF0F8C005C006C007C000856782856876
:10167000838569F0E56A1221A8AD82E58124FCF535
:1016800081ED60030215949000641200F4E4F54AC1
:10169000F54B8561828562838563F002114DE4F527
:1016A0000BF50C9000011201E19000047419F0E4B4
:1016B000A3F09000067419F0E4A3F09002BC1200AD
:1016C000F4AD58AE59AF5AC005C006C00775820CBC
:1016D000C005C006C007120186A882A983AAF0FB34
:1016E000C000C001C002C00390000075F07A7444CD
:1016F000122201AA82AB83ACF0F8E58124FCF581CB
:10170000D007D006D005855E82855F838560F012A4
:1017100020EBF9A31220EBFDE92470F582ED34FEF5
:10172000F583C002C003C004C00012216CAD82AEBC
:1017300083AFF0F9D000D004D003D002C005C006BA
:10174000C007C005C006C007C0018A828B838CF029
:10175000E81221A8AA82E58124FCF581D007D006F1
:10176000D005D007D006D005EA60030216C77582FF
:101770000BC005C006C007120186AA82AB83ACF07D
:10178000F8C002C003C004C00090000075F07A7475
:101790004412220185826785836885F069F56AE5D0
:1017A0008124FCF581D007D006D0058D828E838FF1
:1017B000F01220EBF9A31220EBFAE92470F582EA8B
:1017C00034FEF583C005C006C00712216CAA82ABA7
:1017D00083ACF0F8C002C003C004C00085678285F6
:1017E00068838569F0E56A1221A8AA82E58124FC54
:1017F000F581D007D006D005EA60030216C7900035
:1018000064C005C006C0071200F4D007D006D0059A
:10181000E4F54AF54B8D828E838FF002114DC21391
:1018200075261E75270075280075291C752A0075F8
:101830002B0090001A75F0001202EBE4F54AF54B0C
:1018400090001E75F00012114D754F1C75500075FB
:10185000510090001A75F00012120BD217752F1E4E
:1018600075300075310075321C7533007534009089
:10187000001A75F0001205E81214F0120FC5754A2F
:1018800001E4F54B90001E75F00012114D754F1CD0
:1018900075500075510090001A75F00012120B90EF
:1018A0000028E4F0A3F0D217752F1E7530007531B3
:1018B0000075321C75330075340090001A75F00005
:1018C0001205E8D213D218752F1E7530007531003D
:1018D00075321C75330075340090001A75F00012D3
:1018E00005E8754A01E4F54B90001E75F0001211F1
:1018F0004D754F1C75500075510090001A75F00021
:1019000012120B900002121D77900028E4F0A3F051
:10191000D217752F1E75300075310075321C753366
:101920000075340090001A75F0001205E8D213C259
:1019300018752F1E75300075310075321C75330017
:1019400075340090001A75F0001205E8C21F90006F
:10195000047419F0E4A3F09000067419F0E4A3F005
:10196000E4F50BF50CF582F5831201E1900190127C
:1019700000F4301F04D2128002C2121214F0120FAF
:10198000C5754A01E4F54B90001E75F00012114D2B
:10199000754F1C75500075510090001A75F00012BB
:1019A000120B900028E4F0A3F0D217752F1E7530AB
:1019B0000075310075321C75330075340090001AC3
:1019C00075F0001205E8D213D218752F1E7530007D
:1019D00075310075321C75330075340090001A752E
:1019E000F0001205E8754A01E4F54B90001E75F011
:1019F0000012114D754F1C75500075510090001A62
:101A000075F00012120B900002121D77900028E46E
:101A1000F0A3F0D217752F1E7530007531007532A6
:101A20001C75330075340090001A75F0001205E83B
:101A3000D213C218752F1E75300075310075321C17
:101A400075330075340090001A75F0001205E83007
:101A50001F0B1201F49003E81200F48005D21F025C
:101A6000194E2275A7007597DE7597AD75FF8075C5
:101A7000EF0675A71075C12075A70075A90075A997
:101A800000E5A930E7FB75A90375A903E5A930E7CF
:101A9000FB43A41075E10175E20075E341759810F0
:101AA000758DE6858D8B53890F438920D28ED2990F
:101AB00075C800438E1075CAE075CBE375CEFF750F
:101AC000CFFFD2ADD2CAD2AF75820022AA82AB8339
:101AD000ACF0FD75A72075930C75C8107594008A3D
:101AE0000A8B0B8C0C8D0D90A20075F04A740412B9
:101AF0002107AA82AB83ACF0FD750A18E4F50BF55B
:101B00000CF50D8A828B838CF0ED122107AA82AB33
:101B100083ACF0FDE4C39AFAE49BFB74019CE49D62
:101B20008A958B96D2C943944075A7002275A72049
:101B3000C2C853C83FAA927B00BB080050367480CD
:101B40005A235401FC7D00C01AC01BC01CC01D7468
:101B500003C0E07400C0E07480C0E075D0001222C1
:101B6000E575D018E58124FBF581D01BD01AEA2A4F
:101B7000FA0B80C57406C0E07400C0E07480C0E059
:101B800075D0001222E575D018158115811581AA2E
:101B900092C2087B00BB0800500DEA30E002B20898
:101BA000EAC313FA0B80EE20080122E592FA20E046
:101BB00034900024E4F0A3F0EAC313FA13920BEA82
:101BC000C313FA13920AEAC313FA74075A90002255
:101BD000F0A3E4F0EAC423541FFA74015AFBB401E1
:101BE00000920F802F900026E4F0A3F0EAC313FACE
:101BF00013920DEAC313FA13920CEAC313FA740793
:101C00005AFB900020F0A3E4F0EAC4235401FAB494
:101C10000100920E75A70022C020C0E0C0F0C08273
:101C2000C083C002C003C004C005C006C007C00016
:101C3000C001C0D075D010C2CF900032E02401F0B6
:101C4000900032E0FABA64005003021CDB900032CC
:101C5000E4F0B21A90002AE02401F0A3E03400F08E
:101C6000900024E02401F0A3E03400F0900026E08E
:101C70002401F0A3E03400F0900024E0FAA3E0FB9C
:101C8000C3EA94FAEB94005011900026E0FAA3E026
:101C9000FBC3EA94FAEB94004004D2098002C20923
:101CA00090002AE0FAA3E0FBC3EA9432EB940040F0
:101CB0002A90002AE4F0A3F0C21620100C90000035
:101CC000E02401F0A3E03400F0900000E0FAA3E08B
:101CD000FBC3740A9AE49B5002D210201B1AC2A1C3
:101CE000900032E0FA900004E0FBA3E0FC7D00C32A
:101CF000EA9BED9C92A28018C2A2900032E0FA907A
:101D00000004E0FBA3E0FC7D00C3EA9BED9C92A1F4
:101D1000301C1AC2A3900032E0FA900006E0FBA348
:101D2000E0FC7D00C3EA9BED9C92A48018C2A490C5
:101D30000032E0FA900006E0FBA3E0FC7D00C3EA7D
:101D40009BED9C92A375D0001202AE75D010201AA4
:101D50000975D00012026A75D010D0D0D001D00021
:101D6000D007D006D005D004D003D002D083D082D3
:101D7000D0F0D0E0D02032AA82AB8390003074053E
:101D80002AF0E43BA3F022300C0690000A121D77E3
:101D9000300D06900002121D77300914900004E403
:101DA000F0A3F0900006E4F0A3F090FFFB021D7793
:101DB000900022E0FAA3E0FB4A6003021E4A900072
:101DC00020E0FAA3E0FB900008EAF0A3EBF0A20EFB
:101DD000B3921BA20E921C300B3B900008E0F50A58
:101DE000A3E0F50B9000071222B3E5828583F09003
:101DF0000004F0A3E5F0F0900008E0F50AA3E0F598
:101E00000B9000071222B3E5828583F0900006F064
:101E1000A3E5F0F022900008E0FAA3E0CA25E0CAAA
:101E200033CA25E0CA33FB900004EAF0A3EBF0903C
:101E30000008E0FAA3E0CA25E0CA33CA25E0CA33A5
:101E4000FB900006EAF0A3EBF022900022E0F50AF6
:101E5000A3E0F50B9000641222B3E5828583F09035
:101E6000000AF0A3E5F0F0900020E0F50AA3E0F509
:101E70000B90000AE0FAA3E0FB8A828B831222B364
:101E8000AA82AB83750A0AE4F50B8A828B8312213E
:101E9000D8E5828583F090000CF0A3E5F0F0300ED9
:101EA0003790000CE0FAA3E0FB90000AE0FCA3E00E
:101EB000FD90000EEA2CF0EB3DA3F090000CE0FA50
:101EC000A3E0FB90000AE0FCA3E0FD900010ECC34F
:101ED0009AF0ED9BA3F0803590000CE0FAA3E0FBB4
:101EE00090000AE0FCA3E0FD90000EECC39AF0ED38
:101EF0009BA3F090000CE0FAA3E0FB90000AE0FC4A
:101F0000A3E0FD900010EA2CF0EB3DA3F0A20F92AD
:101F10001BA20F921C300B4590000EE0FAA3E0FBD1
:101F2000750A07E4F50B8A828B831221D8E5828536
:101F300083F0900004F0A3E5F0F0900010E0FAA325
:101F4000E0FB750A07E4F50B8A828B831221D8E542
:101F5000828583F0900006F0A3E5F0F02290000E59
:101F6000E0FAA3E0FB750A0EE4F50B8A828B83127C
:101F700021D8E5828583F0900004F0A3E5F0F0908D
:101F80000010E0FAA3E0FB750A0EE4F50B8A828BE1
:101F9000831221D8E5828583F0900006F0A3E5F056
:101FA000F02275A72010C80280FB53C83F8592829B
:101FB00075A70022900002E0FAA3E0FBC374039A25
:101FC000E49B500302205DEA2A2A901FCE73021F71
:101FD000DA021FFD02201D02203D200C0122300DDF
:101FE0000122300B0122300A01229000027401F01C
:101FF000E4A3F0900000E4F0A3F0C21022200C1241
:10200000300D0F200B0C200A099000027402F0E43E
:10201000A3F030104F900002E4F0A3F022200C1245
:10202000200D0F300B0C200A099000027403F0E41D
:10203000A3F030102F900002E4F0A3F022200C1245
:10204000200D0F200B0C300A09900002E4F0A3F0E1
:10205000D21130100F900002E4F0A3F022900002A1
:10206000E4F0A3F0221201F4C20A900000E4F0A30D
:10207000F0900002E4F0A3F0D210C211750A0675C8
:10208000820112012F750A0575820112012F750A4E
:102090000475820112012F750A0375820112012F46
:1020A000750A0275820112012F1200B290012CE410
:1020B000F5F0121ACC75A72030C80975D018121B7C
:1020C0002D75D00075A700121FB410110280179053
:1020D0000020E4F0A3F0900022E4F0A3F0C20CC2D0
:1020E0000D12181E80CF121D8780CA20F71430F6FB
:1020F000148883A88220F507E6A88375830022E26E
:1021000080F7E49322E022FB7A20E4FCFDFEFFE569
:10211000822582F582E58333F583E5F033F5F0EB34
:1021200033FB4017DAE98042E5822582F582E583B8
:1021300033F583E5F033F5F0EB33FBEC33FCED33B3
:10214000FDEE33FEEF33FFEC950AED950BEE950CAB
:10215000EF950D4013EC950AFCED950BFDEE950CFB
:10216000FEEF950DFF438201DABEEB22E4AC83ABB8
:1021700082FAF9748E022452FFA881181812247A68
:10218000D2D133E6400730E70B7582012220E70603
:1021900075820022C2D112245CE97003F5822230DC
:1021A000D101B3E433F58222FFA881181812247AF2
:1021B000D2D133E6400730E70B7582002220E706D4
:1021C00075820122C2D112245CE97003F5822220BB
:1021D000D101B3E433F582227A10E4FBFCE58225D9
:1021E000E0F582E58333F583EB33FBEC33FCEB95D1
:1021F0000AF5F0EC950B4006FCABF0438201DADD0A
:1022000022122527BC00030224C6EF60FA30D50253
:10221000B2D1E583B4FF030224DCE582B4FF0302FC
:1022200024DC258340072482400B0224C624831427
:1022300050030224DCF582EA8DF0A4A8F0EA8EF0C7
:10224000A428F8E435F0F9EB8DF0A428E935F0F98D
:10225000E433CA8FF0A429F9EA35F0FAEBF88EF0EE
:10226000A429F9EA35F0FAE433FBEC8DF0A429F95E
:10227000EA35F0FAE43BFBE88FF0A42AFAEB35F0FC
:10228000FBE433CCFD8EF0A42AFAEB35F0FBE43C02
:10229000FCED8FF0A42BFBEC35F0FC20E7031224BF
:1022A000F40224A5E58330E709F4F583E582F4F52B
:1022B00082A322E582850AF0A4C582C0F0850BF0D6
:1022C000A4D0F025F0C583850AF0A42583F58322E8
:1022D000022B7585827985837A85F07B85097C90D0
:1022E00022D00225DEC008858108E50824FBF57CA4
:1022F000E50824FBF8867908867A08867B9022D048
:102300001225DED0082220F71030F6118883A8822B
:1023100020F507F6A88375830022F280F7F0227F6C
:102320008E122B8CF58385F0822212252730D50260
:10233000B2D1BF0009BC00030224E90224DCBC00C6
:10234000030224C6E583B4FF0BE582B4FF03022435
:10235000E90224C6E582B4FF030224DCC39583505E
:1023600007247F400B0224C624801450030224DC7F
:10237000C0E0E4CCCBCAF98D0A8E0B8F0CEF54F081
:10238000C4F50D758306850DF0EB84F582E9C4F97B
:10239000EAC4FAEBC4FBEC540FC47803D6FC18EB88
:1023A000D6FB18EAD6FA8582F0EDA4A8F0FD858266
:1023B000F0EEA428FEE435F0F88582F0EFA428FFC3
:1023C000E435F0F8E99DF9EA9EFAEB9FFBEC98FC06
:1023D000AD0AAE0BAF0C30E7101582E92DF9EA3EDD
:1023E000FAEB3FFBE43CFC80EDC082D58398C3E967
:1023F00033F9EA33FAEB33FBEC33FCC3E99DEA9E95
:10240000EB9FEC9400B3E413F9D002D0E0C44AFA95
:10241000D003D0E0C44BFBD004D0E0F5F0540FC49F
:102420004CFCD082158230F40FD3EC13FCEB13FB81
:10243000EA13FAE913F90582E930E70A74012AFA86
:10244000E43BFBE43CFC0224BDFCABF0AA83A98284
:10245000749EC2D1F5821224F40224A57901AA82C5
:10246000E68F82B5821318E6B5F00E18E6B583093B
:1024700018E68A82B58202790022B4800FE5F070F6
:102480000AE5837006E58270027F00EFB6801518BA
:10249000B6001018B6000B18B6000608080876003B
:1024A0002208080822B98003EA13B34010EA240185
:1024B000FAE43BFBE43CFC50047C800582BC000E4B
:1024C000BB000BBA0008E4F5F0F583F58222A2D137
:1024D000E582138CF092F78B838A8222E4F583F5F0
:1024E0008275F080F4A2D11322E4F583F58275F0B1
:1024F000C0747F227804EC7011E58224F8500AF54C
:1025000082E4C9CACBFCD8EF22EC7820058220E710
:1025100013D5820122C3E933F9EA33FAEB33FBEC3A
:1025200033FCD8EA158222AA82AB83A2F73392D178
:102530006002D2F7F582ACF0E58124F9F8E6FD08F7
:10254000E6FE0886F008E6A2F73392D56002D2F7DD
:10255000F583AFF022AA827466C0E07425C0E0C0A3
:102560006BC06C8A82220572E4B57202057322AADE
:102570008274302AFA24C6500A74072AFA302003DB
:102580004302208A82022555E582FAC4540FF5825F
:10259000C00212256FD002740F5AF58202256FAA6D
:1025A0006DAB6EAC6FAD70AE71757820EE2EFEED3A
:1025B000235401FF4206EA2AFAEB33FBEC33FCED2D
:1025C00033FDC3EE95744008EEC39574FE430201DB
:1025D000D578D98A6D8B6E8C6F8D708E71228582C5
:1025E0006B85836CE4F572F573AA79AB7AAC7B8A60
:1025F000828B838CF01220EBFD74012AF579E43B89
:10260000F57A8C7BEDFA7003022B6EBA25028003FB
:10261000022B66C224C225C226C227C228C229C2F2
:102620002AC22BC221C222C223757400757500759F
:1026300076FFAB79AC7AAD7B8B828C838DF01220E8
:10264000EBFAA3AB82AC838B798C7A8D7BBA2507AE
:102650008A8212255580928A06BE3000402E8A0654
:10266000EE24C6402774FFB57613E57575F00AA40D
:10267000FEEA24D02EF57570BFD22580BBE57675B5
:10268000F00AA4FEEA24D02EF57680ACBA2E0A74A5
:10269000FFB576A4757600809F8A06BE6100400E65
:1026A0008A06EE248540075302DFD2208002C22032
:1026B000BA20028075BA2303022739BA2A030227F7
:1026C0003EBA2B02805FBA2D028055BA4202805F6B
:1026D000BA4303022783BA44030228BEBA45030261
:1026E00028D8BA46030228D4BA47030228DCBA49DC
:1026F000030228BEBA4C02803BBA4E030228E0BA5D
:102700004F030228C5BA5003022857BA53030227C1
:10271000A7BA55030228CABA58030228CF02290AC9
:10272000D224022638D226022638D227022638D2D0
:1027300029022638D22A022638D22B02263874FFE4
:10274000B5762030290BE57C14F8887C8675022646
:1027500038E57C24FEF8887C8606088607188E7586
:1027600002263830290BE57C14F8887C8676022610
:1027700038E57C24FEF8887C8606088607188E7665
:1027800002263830290AE57C14F8887C8602800FFE
:10279000E57C24FEF8887C8603088604188B028A70
:1027A0008212255502290FE57C24FDF8887C8603DA
:1027B00008860408860518188B6D8C6E8D6F8B82C9
:1027C0008C838DF0122BB1AB82AC838B7774FFB509
:1027D000760385777620241DC3E57795755016E539
:1027E00075C39577F575AB751575EB600875822027
:1027F00012255580F1856D82856E83856FF01220DC
:10280000EBFBFA6029AB761576C3E464808BF0634A
:10281000F08095F050188A82122555AB6DAC6EADE4
:102820006F0BBB00010C8B6D8C6E8D6F80C72024ED
:102830000302290FC3E5779575400302290FE5755B
:10284000C39577F575AB751575EB700302290F7598
:10285000822012255580EEE57C24FDF8887C8603D5
:1028600008860408860518188B6D8C6E8D6FE56FD1
:10287000FB30E7047A438013EB546060047A5080A5
:102880000AEB30E6047A4980027A588A82C0021242
:10289000255575823A122555758230122555758257
:1028A00078122555D002BA4902800BBA5002800630
:1028B000856E82122588856D821225888051D228E6
:1028C00075740A804A757408804575740A8040756D
:1028D0007410803BD2218037D2228033D223802FC4
:1028E000E57C24FDF8887C860308860408860518A4
:1028F000188B6D8C6E8D6F8B828C838DF0E57212D0
:102900002306A3E57312230680058A82122555202B
:10291000210620220330235AE57C24FCF8887C869B
:10292000030886040886050886061818188B6D8C1F
:102930006E8D6F8E70756D08756E00756F80856D0C
:102940007D856E7E856F7F7401257DFEE4357EFF7B
:10295000AB7F8E6D8F6E8B6F857D82857E83857F4D
:10296000F01220EBFBFA70030225E98A821225554A
:1029700080CCE57470030225E97B8530292BE57C4A
:1029800014F8887CE6FC3395E0FDFEFF8C6D8D6EBF
:102990008E6F8F7020285EAC6D7D007E007F008C76
:1029A0006D8D6E8E6F8F70804C302A1FE57C24FCFD
:1029B000F8887C86040886050886060886071818A5
:1029C000188C6D8D6E8E6F8F70802AE57C24FEF8DA
:1029D000887C860408860518ED3395E0FEFF8C6D33
:1029E0008D6E8E6F8F7020280CAC6DAD6E7E007F6B
:1029F000008E6F8F70302B43E56D456E456F4570CF
:102A000060397408B5740C758230C003122555D036
:102A10000380287410B57423758230C003122555C5
:102A2000D00330200C758278C003122555D0038066
:102A30000A758258C003122555D003302825AC6D85
:102A4000AD6EAE6FE570FF30E717C3E49CFCE49D0C
:102A5000FDE49EFEE49FFF8C6D8D6E8E6F8F708007
:102A600002C228757700D22C8B00757100C000124D
:102A7000259FD000202C0DE571C4FCE6FD4CF61816
:102A800088038002A6710577B22CE56D456E456F0F
:102A9000457070D68803E575700375750120251A99
:102AA000202417E57704FCC39575500E758220C06D
:102AB00003122555D003157580E930280E75822D37
:102AC000C003122555D00315758024E577602030AA
:102AD000260E75822BC003122555D0031575800F65
:102AE00030270C758220C003122555D003157520A0
:102AF000241EAC751575C3E5779C50273025047CE2
:102B00003080027C208C82C003122555D00380E2E5
:102B1000C3E57795755009E575C39577F57580031D
:102B20007575008B00AB771577EB6022B22C202CEB
:102B30000A08E6C4540FFB8B7180078603740F5B91
:102B4000F571857182C00012256FD00080D72024D6
:102B5000030225E9AB751575EB70030225E9758253
:102B60002012255580EE8A821225550225E98572AC
:102B70008285738322AA82BA0A0810990280FB75A3
:102B8000990D10990280FB8A99227F9E122BD930D1
:102B9000D1030224C6C3EF9582500974FFF5F0F506
:102BA00083F582227900122BEB89828A838BF0ECE9
:102BB00022AA82AB83ACF07D007E008A828B838C5C
:102BC000F01220EBFFA3AA82AB83EF60070DBD00DC
:102BD000EA0E80E78D828E8322AA82AB83A2F7332E
:102BE00092D16002D2F7F582ACF0226040F82582E3
:102BF000500274FFF582E824F8501ECCCBCAF9E4E9
:102C0000CC24F85014CBCAF9E4CB24F8500BCAF901
:102C1000E4CA24F8500379002224086010F8C3ECB9
:102C200013FCEB13FBEA13FAE913F9D8F1220000C5
:00000001FF
