:1000000002002E2532580A002564202564003C4E4B
:100010004F20464C4F41543E00C20FC210C211C285
:1000200012C213C214C215C216220002035D7581EA
:1000300085121CEEE582600302009A789F79007AAF
:100040001C7B007C137D00EC4D601C88828983E45E
:1000500093A3A882A9838A828B83F0A3AA82AB830D
:100060001CBCFFE31D80E07582007583007C1C7D55
:1000700000EC4D600AE4F0A31CBCFFF51D80F27596
:1000800082007583007C007D00EC4D600AE4F0A3E3
:100090001CBCFFF51D80F2120019121DC880FE0065
:1000A000000000000000000000000000000000024E
:1000B000000075A70075B28075BCF875B91E75E8AB
:1000C0000075DF3F75B300D2EF22AA82438E4075E0
:1000D00092B87593FF8592948593957591047B00F2
:1000E000C3EB9A500BE59130E7FB53917F0B80F007
:1000F00075910022AA82AB837C007D00C3EC9AED4F
:100100009B502B7E00BE0400501D7582FAC002C0B9
:1001100003C004C005C0061200CAD006D005D00432
:10012000D003D0020E80DE0CBC00D10D80CE22AAFE
:1001300082850AF005F07401800225E0D5F0FBFB12
:1001400075A720BA0002800ABA0102800FBA021E07
:100150008014EBF4FA52F1EB42D48012EBF4FA5231
:10016000F2EB42D58008EBF4FA52F3EB42CC75A7E0
:100170000022B2B175A720C2C853C83FE592E592EC
:10018000FA20E02F900020E4F0A3F0EAC313FA1362
:100190009209EAC313FA139208EAC313FA74075ACE
:1001A000FB90001EF0A3E4F0EAC423541FFA13925C
:1001B0000D802D900022E4F0A3F0EAC313FA13920D
:1001C0000BEAC313FA13920AEAC313FA74075AFB31
:1001D00090001CF0A3E4F0EAC423541FFA13920C1D
:1001E00075A700228582BBD2EC20ECFDD2EC20EC7E
:1001F000FD85BD8285BE83221201E4121ED8AA822B
:10020000AB83ACF0FDC002C003C004C005906C8B92
:1002100075F0537440121F6DAA82AB83ACF0FDE5FC
:100220008124FCF581E4C0E074FCC0E0747FC0E090
:100230007446C0E08A828B838CF0ED1220A9AA82DA
:10024000AB83ACF0FDE58124FCF5818A828B838C45
:10025000F0ED22AA82AB83EA4B24FF9217E50B450F
:100260000C24FF921822900000E4F0A3F09000020A
:10027000E4F0A3F09000640200F4AA82AB83E4F5FA
:100280000BF50C900001C002C003120253D003D042
:100290000290000274282AF0E43BA3F0900000745E
:1002A000192AF0E43BA3F022AA82AB83750B01E488
:1002B000F50C900000C002C003120253D003D0021C
:1002C00090000074282AF0E43BA3F0900002741917
:1002D0002AF0E43BA3F02212026680FE90002EE09A
:1002E000FABA16004005C297C2A02290002EE0FA8A
:1002F00090002CE0FBA3E0FC7D00C3EA9BED9C9208
:100300009790002CE0FAA3E0FB741BC39AFAE49BDD
:10031000FB90002EE0FC7D00C3EC9AED9B92A022A6
:1003200090002EE0FABA3200929020150D30872C02
:10033000D215900028E4F0A3F02230870D90002819
:10034000E02401F0A3E03400F022900028E0FAA3BA
:10035000E0FB90002AEAF0A3EBF0C21522C020C017
:10036000E0C0F0C082C083C002C003C004C005C0AA
:1003700006C007C000C001C0D075D010C2CF900029
:100380002EE02401F090002EE0FABA6400402D9097
:10039000002EE4F0B216900026E02401F0A3E03431
:1003A00000F0900026E0FAA3E0FBC3EA9432EB945D
:1003B000004009900026E4F0A3F0C21220171AC2F0
:1003C000A190002EE0FA900000E0FBA3E0FC7D008D
:1003D000C3EA9BED9C92A28018C2A290002EE0FA84
:1003E000900000E0FBA3E0FC7D00C3EA9BED9C9243
:1003F000A130181AC2A390002EE0FA900002E0FB90
:10040000A3E0FC7D00C3EA9BED9C92A48018C2A4EB
:1004100090002EE0FA900002E0FBA3E0FC7D00C318
:10042000EA9BED9C92A375D00012032075D010209A
:10043000160975D0001202DC75D010D0D0D001D0D2
:1004400000D007D006D005D004D003D002D083D08E
:1004500082D0F0D0E0D0203285822C85832D85F0AB
:100460002E90000EE4F0A3F0900010E4F0A3F090C2
:100470000012E4F0A3F0900014E4F0A3F090000662
:10048000E4F0A3F0900014E0FDA3E0FEBD0706BE7B
:1004900000030207545305027E00BD0206BE00039E
:1004A00002057075820C1201F8AD82AE83AFF0F8D0
:1004B000C005C006C007C00090000075F07A744403
:1004C000121F6DAD82AE83AFF0F8E58124FCF5819B
:1004D0008D828E838FF0E812209EE5828583F090D6
:1004E0000006F0A3E5F0F0852C82852D83852EF0A3
:1004F000121E57FDA3121E57FE900006E0FFA3E058
:10050000F8EDC39FF582EE98F583122010AD82AE10
:1005100083C374329DE464808EF063F08095F04074
:100520000E90000EE02401F0A3E03400F080219052
:10053000000EE4F0A3F0900006E0FDA3E0FE852CA1
:1005400082852D83852EF0ED122085A3EE12208565
:1005500090000EE0FDA3E0FEBD0A15BE0012900063
:1005600014E0FDA3E0FE90001474024DF0A3EEF041
:10057000900014E0FDA3E05305017E00BD0106BE1E
:10058000000302065E75820A1201F8AD82AE83AFE7
:10059000F0F8C005C006C007C00090000075F07AF2
:1005A0007444121F6DAD82AE83AFF0F8E58124FC78
:1005B000F5818D828E838FF0E812209EE5828583FF
:1005C000F0900006F0A3E5F0F0AD29AE2AAF2B8D38
:1005D000828E838FF0121E57F8A3121E57F99000D7
:1005E00006E0FAA3E0FBE8C39AF582E99BF583C035
:1005F00005C006C007122010AA82AB83D007D00620
:10060000D005C374329AE464808BF063F08095F077
:10061000400E900012E02401F0A3E03400F0801EB0
:10062000900012E4F0A3F0900006E0FAA3E0FB8D46
:10063000828E838FF0EA122085A3EB122085900032
:1006400012E0FAA3E0FBBA0A15BB0012900014E016
:10065000FAA3E0FB90001474014AF0A3EBF09000C1
:1006600014E0FAA3E05302047B00BA0406BB0003C3
:1006700002048475820B1201F8AA82AB83ACF0FDF0
:10068000C002C003C004C00590000075F07A744435
:10069000121F6DAA82AB83ACF0FDE58124FCF581CD
:1006A0008A828B838CF0ED12209EE5828583F09008
:1006B0000006F0A3E5F0F0AA26AB27AC288A828BCF
:1006C000838CF0121E57FDA3121E57FE900006E009
:1006D000FFA3E0F8EDC39FF582EE98F583C002C05A
:1006E00003C004122010AD82AE83D004D003D00228
:1006F000C374329DE464808EF063F08095F0400E08
:10070000900010E02401F0A3E03400F0801E90007F
:1007100010E4F0A3F0900006E0FDA3E0FE8A828BD7
:10072000838CF0ED122085A3EE122085900010E05E
:10073000FAA3E0FBBA0A05BB00028003020484901E
:100740000014E0FAA3E0FB90001474044AF0A3EB59
:10075000F002048422AA82AB8390002C74052AF054
:10076000E43BA3F022300A0690000A120755300B32
:100770000690000212075590001EE0FAA3E0FB4A23
:10078000600302081190001CE0FAA3E0FB90000453
:10079000EAF0A3EBF0A20CB39217A20C9218300966
:1007A0003B900004E0F50AA3E0F50B90000712204F
:1007B0001FE5828583F0900000F0A3E5F0F0900043
:1007C00004E0F50AA3E0F50B90000712201FE58274
:1007D0008583F0900002F0A3E5F0F022900004E0A1
:1007E000FAA3E0CA25E0CA33CA25E0CA33FB900069
:1007F00000EAF0A3EBF0900004E0FAA3E0CA25E0E1
:10080000CA33CA25E0CA33FB900002EAF0A3EBF03A
:100810002290001EE0F50AA3E0F50B900064122080
:100820001FE5828583F0900006F0A3E5F0F09000CC
:100830001CE0F50AA3E0F50B900006E0FAA3E0FB4C
:100840008A828B8312201FAA82AB83750A0AE4F581
:100850000B8A828B83121F44E5828583F090000807
:10086000F0A3E5F0F0300C37900008E0FAA3E0FBCD
:10087000900006E0FCA3E0FD90000AECC39AF0EDC6
:100880009BA3F0900008E0FAA3E0FB900006E0FCD8
:10089000A3E0FD90000CEA2CF0EB3DA3F080359036
:1008A0000008E0FAA3E0FB900006E0FCA3E0FD9066
:1008B000000AEA2CF0EB3DA3F0900008E0FAA3E078
:1008C000FB900006E0FCA3E0FD90000CECC39AF066
:1008D000ED9BA3F0A20D9217A20D9218300945903E
:1008E000000AE0FAA3E0FB750A07E4F50B8A828BA5
:1008F00083121F44E5828583F0900000F0A3E5F0A9
:10090000F090000CE0FAA3E0FB750A07E4F50B8A0F
:10091000828B83121F44E5828583F0900002F0A34E
:10092000E5F0F02290000AE0FAA3E0FB750A0EE47D
:10093000F50B8A828B83121F44E5828583F0900039
:1009400000F0A3E5F0F090000CE0FAA3E0FB750ADC
:100950000EE4F50B8A828B83121F44E5828583F0B7
:10096000900002F0A3E5F0F022858235858336857C
:10097000F037121E57FDA3121E57FEED2470FDEE38
:1009800034FEFE85323B85333C85343D853B828594
:100990003C83853DF0121E57FAA3121E57FBEA2432
:1009A00070FAEB34FEFB852F3885303985313A8576
:1009B0003882853983853AF0121E57FCA3121E57E0
:1009C000FFEC2470FCEF34FEFF9000007419F0E49B
:1009D000A3F09000027419F0E4A3F0E4F50BF50C19
:1009E000F582F583C002C003C004C005C006C0077D
:1009F000120253D007D006D005D004D003D002D2C3
:100A000012900024E4F0A3F0C005C00675820BC06C
:100A100002C003C004C0071201F8A882A983ADF088
:100A2000FEC000C001C005C00690000075F07A74D9
:100A300044121F6DAD82AE83A8F0F9E58124FCF568
:100A400081D007D0048C828F83C004C005C006C04B
:100A500007C000C001121ED885823E85833F85F005
:100A600040F541D001D000D007D006D005C006C067
:100A700007C03EC03FC040C0418D828E8388F0E9F0
:100A8000121EE4AD82E58124FCF581D007D006D0AA
:100A900004D003D002EDD006D0057003020CE0C0F4
:100AA00004C00775820CC002C003C005C006120155
:100AB000F8A882A983ACF0FFD006D005C004C00519
:100AC000C006C007C000C001C004C0079000007588
:100AD000F07A7444121F6D85824285834385F04409
:100AE000F545E58124FCF581D007D006D005D0047A
:100AF0008D828E83C005C006121ED8AC82AF83A83B
:100B0000F0F9C007C004C007C000C001854282855B
:100B100043838544F0E545121F14AC82E58124FC33
:100B2000F581D007D006D005D003D002ECD007D095
:100B3000046062E4F50BF50C900001C002C003C034
:100B400004C005C006C007120253D007D006D00566
:100B5000D004D003D0029000027428F0E4A3F090F7
:100B600000007428F0E4A3F0301203021045900056
:100B700024E0F8A3E0F930E70B9000247401F0E4DE
:100B8000A3F0800C900024E02401F0A3E03400F0F6
:100B9000D212021045C004C00775820AC002C00309
:100BA000C005C0061201F8A882A983ACF0FFD006E8
:100BB000D005C004C005C006C007C000C001C00405
:100BC000C00790000075F07A7444121F6D85824250
:100BD00085834385F044F545E58124FCF581D00704
:100BE000D006D005D004D003D0028A828B83C00205
:100BF000C003C005C006121ED8AC82AF83A8F0F9AE
:100C0000C007C004C007C000C0018542828543837D
:100C10008544F0E545121F14AC82E58124FCF58182
:100C2000D007D006D005D003D002ECD007D00460A6
:100C300076750B01E4F50C900000C002C003C004FF
:100C4000C005C006C007120253D007D006D005D099
:100C500004D003D0029000007428F0E4A3F09000C8
:100C6000027428F0E4A3F03012030210459000242F
:100C7000E0F8A3E0F9C3E498E4648089F063F080CD
:100C800095F0500A90002474FFF0A3F080149000B7
:100C900024E024FFF8A3E034FFF9900024E8F0A357
:100CA000E9F0D212021045E4F50BF50CF582F5835C
:100CB000C002C003C004C005C006C007120253D062
:100CC00007D006D005D004D003D0029000007419DC
:100CD000F0E4A3F09000027419F0E4A3F0021045D0
:100CE000C004C00775820CC002C003C005C0061254
:100CF00001F8A882A983ACF0FFC000C001C004C005
:100D00000790000075F07A7444121F6DAC82AF83B7
:100D1000A8F0F9E58124FCF581D006D0058D828EFE
:100D200083C004C005C006C007C000C001121ED8A1
:100D300085824285834385F044F545D001D000D0BB
:100D400007D006D005D004C005C006C007C042C009
:100D500043C044C0458C828F8388F0E9121F14ACD5
:100D600082E58124FCF581D007D006D005D003D0E0
:100D700002ECD007D0047003020E9CC004C00775BB
:100D8000820AC002C003C005C0061201F8A882A9E9
:100D900083ACF0FFD006D005C004C005C006C00774
:100DA000C000C001C004C00790000075F07A744410
:100DB000121F6D85824685834785F048F549E58198
:100DC00024FCF581D007D006D005D004D003D00292
:100DD0008A828B83C002C003C005C006121ED8AC35
:100DE00082AF83A8F0F9C007C004C007C000C001EB
:100DF0008546828547838548F0E549121F14AC82F9
:100E0000E58124FCF581D007D006D005D003D002BF
:100E1000ECD007D0047003020E9CC004C00775829A
:100E20000BC002C003C005C0061201F8A882A98346
:100E3000ACF0FFC000C001C004C00790000075F016
:100E40007A7444121F6DAC82AF83A8F0F9E5812457
:100E5000FCF581C007C03EC03FC040C0418C828FBE
:100E60008388F0E9121F14AC82E58124FCF581D05F
:100E700007D006D005D003D002ECD007D004601C08
:100E80001011028017C2109007D01200F4120266EF
:100E900090000A1207559001F40200F4C004C00744
:100EA00075820CC002C003C005C0061201F8A882FA
:100EB000A983ACF0FFC000C001C004C007900000CF
:100EC00075F07A7444121F6DAC82AF83A8F0F9E517
:100ED0008124FCF581C007C042C043C044C0458C9A
:100EE000828F8388F0E9121F14AC82E58124FCF51F
:100EF00081D007D006D005D003D002ECD007D004B3
:100F0000700302100FC004C00775820AC002C0033C
:100F1000C005C0061201F8A882A983ACF0FFD00674
:100F2000D005C004C005C006C007C000C001C00491
:100F3000C00790000075F07A7444121F6D858246D8
:100F400085834785F048F549E58124FCF581D00784
:100F5000D006D005D004D003D0028A828B83C00291
:100F6000C003C005C006121ED8AC82AF83A8F0F93A
:100F7000C007C004C007C000C00185468285478302
:100F80008548F0E549121F14AC82E58124FCF58107
:100F9000D007D006D005D003D002ECD007D0046033
:100FA0006EC004C00775820BC002C003C005C00636
:100FB0001201F8A882A983ACF0FFC000C001C004F0
:100FC000C00790000075F07A7444121F6DAC82AFB8
:100FD00083A8F0F9E58124FCF581C007C03EC03F3D
:100FE000C040C0418C828F8388F0E9121F14AC820C
:100FF000E58124FCF581D007D006D005D003D002CE
:10100000ECD007D00460081010028003C21122E463
:10101000F50BF50CF582F583C002C003C004C005D2
:10102000C006C007120253D007D006D005D004D0A6
:1010300003D0029000007419F0E4A3F09000027451
:1010400019F0E4A3F0900024E0F8A3E0F9C3E894D9
:1010500007E9648094804002D20E900024E0F8A357
:10106000E0F9C374F998747F89F063F08095F040DB
:1010700002C20E200F03021310200E030211C5C07E
:1010800004C00775820AC002C003C005C006120171
:10109000F8A882A983ACF0FFD006D005C004C00533
:1010A000C006C007C000C001C004C00790000075A2
:1010B000F07A7444121F6D85824685834785F04817
:1010C000F549E58124FCF581D007D006D005D00490
:1010D000D003D0028A828B83C002C003C005C00641
:1010E000121ED8AC82AF83A8F0F9C007C004C007B5
:1010F000C000C0018546828547838548F0E54912D6
:101100001F14AC82E58124FCF581D007D006D00500
:10111000D003D002ECD007D00470030211C5C00484
:10112000C00775820BC002C003C005C0061201F8DB
:10113000A882A983ACF0FFC000C001C004C0079022
:10114000000075F07A7444121F6DAC82AF83A8F072
:10115000F9E58124FCF581C007C03EC03FC040C016
:10116000418C828F8388F0E9121F14AC82E58124C0
:10117000FCF581D007D006D005D003D002ECD00713
:10118000D0046041C20F853858853959853A5A854F
:101190003B5B853C5C853D5D853582853683853747
:1011A000F0C002C003C004C005C006C0071218C6C4
:1011B000D007D006D005D004D003D002301404D21A
:1011C000118002D210300E03020A08C004C0077555
:1011D000820CC002C003C005C0061201F8A882A993
:1011E00083ACF0FFD006D005C004C005C006C00720
:1011F000C000C001C004C00790000075F07A7444BC
:10120000121F6D85824685834785F048F549E58143
:1012100024FCF581D007D006D005D0048D828E83C2
:10122000C005C006121ED8AC82AF83A8F0F9C00773
:10123000C004C007C000C001854682854783854839
:10124000F0E549121F14AC82E58124FCF581D0073A
:10125000D006D005D003D002ECD007D00470030232
:101260000A08C004C00775820BC002C003C005C0D5
:10127000061201F8A882A983ACF0FFC000C001C02B
:1012800004C00790000075F07A7444121F6DAC82A0
:10129000AF83A8F0F9E58124FCF581C007C03EC00A
:1012A0003FC040C0418C828F8388F0E9121F14AC8C
:1012B00082E58124FCF581D007D006D005D003D08B
:1012C00002ECD007D0047003020A08C20F85385818
:1012D000853959853A5A853B5B853C5C853D5D8502
:1012E00035828536838537F0C002C003C004C0054F
:1012F000C006C0071218C6D007D006D005D004D04B
:1013000003D002301405D211020A08D210020A08D2
:10131000900024E0F8A3E0F9C3E8940FE964809416
:10132000805020900024E0F8A3E0F9C374F1987491
:101330007F89F063F08095F05003020A08201303C0
:10134000020A08C21322C219E4F50BF50CF582F566
:10135000831202533019030214A37582081201F894
:10136000AA82AB83ACF0FDC002C003C004C00590EC
:10137000000075F07A7444121F6DAA82AB83ACF042
:10138000FDE58124FCF5818A828B838CF0ED1220AF
:101390009EAA82AB83758209C002C0031201F8AC19
:1013A00082AD83AEF0FFC004C005C006C007900048
:1013B0000075F07A7444121F6DAC82AD83AEF0FFFD
:1013C000E58124FCF5818C828D838EF0EF12209EC6
:1013D000AC82AD83D003D002C374E89A74039BE45B
:1013E00033FE601EC3EC94E8ED94035015900000AA
:1013F0007405F0E4A3F09000027428F0E4A3F00276
:10140000148AC374E89C74039DE433FF601DC3EA2F
:1014100094E8EB940350149000007428F0E4A3F0D7
:101420009000027405F0E4A3F0805FEF6038EE6096
:101430003590002AE0FEA3E0FFC3EE9428EF94006D
:1014400050149000007428F0E4A3F0900002742877
:10145000F0E4A3F08034900000E4F0A3F0900002E8
:10146000E4F0A3F08024C3EC94E8ED9403501BC394
:10147000EA94E8EB940350129000007419F0E4A38E
:10148000F09000027419F0E4A3F090002AE0FAA3AF
:10149000E0FBC3EA9404EB94004003021354D21916
:1014A0000213549000007419F0E4A3F09000027449
:1014B00019F0E4A3F09001F41200F4120266900017
:1014C000021207559001F40200F485824C85834D89
:1014D00085F04EC21A301A0302158775820B12016D
:1014E000F8AD82AE83AFF0F8C005C006C007C000FB
:1014F00090000075F07A7444121F6DAD82AE83AF18
:10150000F0F8E58124FCF581854C82854D83854E7C
:10151000F0121E57F9A3121E57FAE92470F582EA59
:1015200034FEF583C005C006C007C000121ED8AA4D
:1015300082AB83ACF0F9D000D007D006D005C00252
:10154000C003C004C0018D828E838FF0E8121F1487
:10155000AA82E58124FCF581EA6008120266D21AAB
:101560000214D5854A0B854B0C854A82854B831224
:1015700002539000007419F0E4A3F0900002741973
:10158000F0E4A3F00214D52285825285835385F0BE
:101590005475820C1201F8AD82AE83AFF0F8C0052D
:1015A000C006C007C00090000075F07A7444121F96
:1015B0006DAD82AE83AFF0F8E58124FCF5818552F4
:1015C000828553838554F0121E57F9A3121E57FAD1
:1015D000E92470F582EA34FEF583C005C006C00731
:1015E000C000121ED8AA82AB83ACF0F9D000D0079D
:1015F000D006D005C002C003C004C0018D828E8316
:101600008FF0E8121F14AA82E58124FCF581EA60BC
:101610000990000A12027A0216A375820A1201F8D2
:10162000AA82AB83ACF0FDC002C003C004C0059029
:10163000000075F07A7444121F6DAA82AB83ACF07F
:10164000FDE58124FCF581AE4FAF50A8518E828F0D
:101650008388F0121E57FEA3121E57FFEE2470F56A
:1016600082EF34FEF583C002C003C004C005121E21
:10167000D8AE82AF83A8F0F9D005D004D003D00251
:10168000C006C007C000C0018A828B838CF0ED12B7
:101690001F14AA82E58124FCF581EA600690000A05
:1016A0001202A8854F5585505685515775820C12E8
:1016B00001F8AD82AE83AFF0F8C005C006C007C028
:1016C0000090000075F07A7444121F6DAD82AE83F5
:1016D000AFF0F8E58124FCF581855282855383853E
:1016E00054F0121E57F9A3121E57FAE92470F5821E
:1016F000EA34FEF583C005C006C007C000121ED83C
:10170000AA82AB83ACF0F9D000D007D006D005C0D8
:1017100002C003C004C0018D828E838FF0E8121FC7
:1017200014AA82E58124FCF581EA70030217B275E0
:10173000820A1201F8AD82AE83AFF0F8C005C00690
:10174000C007C00090000075F07A7444121F6DADA0
:1017500082AE83AFF0F8E58124FCF5818555828562
:1017600056838557F0121E57F9A3121E57FAE92423
:1017700070F582EA34FEF583C005C006C007C000DC
:10178000121ED8AA82AB83ACF0F9D000D007D006E5
:10179000D005C002C003C004C0018D828E838FF0CB
:1017A000E8121F14AA82E58124FCF581EA60030295
:1017B00016AC227582081201F8AA82AB83ACF0FD48
:1017C000C002C003C004C00590000075F07A7444E4
:1017D000121F6DAA82AB83ACF0FDE58124FCF5817C
:1017E000E4C0E0C0E0747AC0E07444C0E08A828B58
:1017F000838CF0ED121F14AA82E58124FCF581EAA6
:10180000704F7582091201F8AA82AB83ACF0FDC05B
:1018100002C003C004C00590000075F07A74441241
:101820001F6DAA82AB83ACF0FDE58124FCF581E459
:10183000C0E0C0E0747AC0E07444C0E08A828B8368
:101840008CF0ED121F14AA82E58124FCF581EA6078
:10185000049000012290002AE0FAA3E0FBC3742860
:101860009AE49B4004900001229000002290000A1C
:101870001207551202669001F41200F4300E1DE4B6
:10188000F50BF50C900001120253900002E4F0A356
:10189000F09000007419F0E4A3F0801C750B01E4D3
:1018A000F50C9000001202539000027419F0E4A3AA
:1018B000F0900000E4F0A3F01217B3AA82AB83BA51
:1018C00001F6BB00F32285825E85835F85F0602090
:1018D0000E03021A0F750B01E4F50C9000001202C2
:1018E000539000007423F0E4A3F09000027423F0FE
:1018F000E4A3F09002BC1200F4855B64855C65850E
:101900005D66855861855962855A6375820A120140
:10191000F8A882A983ADF0FEC000C001C005C006D2
:1019200090000075F07A7444121F6D85826785837C
:101930006885F069F56AE58124FCF5818564828516
:1019400065838566F0121E57F9A3121E57FDE92420
:1019500070F582ED34FEF583121ED8AD82AE83AFF2
:10196000F0F8C005C006C007C0008567828568839F
:101970008569F0E56A121F14AD82E58124FCF581CA
:10198000ED708875820B1201F8AD82AE83AFF0F86E
:10199000C005C006C007C00090000075F07A74440E
:1019A000121F6D85826785836885F069F56AE58118
:1019B00024FCF5818561828562838563F0121E5760
:1019C000F9A3121E57FDE92470F582ED34FEF5836C
:1019D000121ED8AD82AE83AFF0F8C005C006C007B6
:1019E000C0008567828568838569F0E56A121F14E7
:1019F000AD82E58124FCF581ED600302190BE4F56D
:101A00004AF54B8561828562838563F00214CAE4DE
:101A1000F50BF50C9000011202539000007423F0B6
:101A2000E4A3F09000027423F0E4A3F09002BC124F
:101A300000F4AD58AE59AF5AC005C006C007758254
:101A40000CC005C006C0071201F8A882A983AAF03D
:101A5000FBC000C001C002C00390000075F07A74A2
:101A600044121F6DAA82AB83ACF0F8E58124FCF52B
:101A700081D007D006D005855E82855F838560F0C2
:101A8000121E57F9A3121E57FDE92470F582ED349A
:101A9000FEF583C002C003C004C000121ED8AD8290
:101AA000AE83AFF0F9D000D004D003D002C005C09F
:101AB00006C007C005C006C007C0018A828B838CA0
:101AC000F0E8121F14AA82E58124FCF581D007D02A
:101AD00006D005D007D006D005EA6003021A387593
:101AE000820BC005C006C0071201F8AA82AB83AC06
:101AF000F0F8C002C003C004C00090000075F07A86
:101B00007444121F6D85826785836885F069F56A64
:101B1000E58124FCF581D007D006D0058D828E8327
:101B20008FF0121E57F9A3121E57FAE92470F5829E
:101B3000EA34FEF583C005C006C007121ED8AA828B
:101B4000AB83ACF0F8C002C003C004C0008567825C
:101B50008568838569F0E56A121F14AA82E58124ED
:101B6000FCF581D007D006D005EA6003021A38E4FC
:101B7000F54AF54B8D828E838FF00214CAC20F7521
:101B8000261A752700752800752918752A00752BE7
:101B90000090001675F000120458E4F54AF54B90D9
:101BA000001A75F0001214CA754F1875500075515F
:101BB0000090001675F000121588D213752F1A7553
:101BC000300075310075321875330075340090009F
:101BD0001675F00012096912026690000A12075584
:101BE0009003E81200F412186D12134675261A7548
:101BF0002700752800752918752A00752B0090009C
:101C00001675F000120458754A01E4F54B90001A5D
:101C100075F0001214CA900024E4F0A3F0752F1A96
:101C200075300075310075321875330075340090C9
:101C3000001675F000120969D20FD214752F1A75AB
:101C4000300075310075321875330075340090001E
:101C50001675F0001209691202669001F41200F480
:101C600075261A752700752800752918752A0075BC
:101C70002B0090001675F000120458754A01E4F527
:101C80004B90001A75F0001214CA754F1875500069
:101C900075510090001675F0001215889000021220
:101CA0000755900024E4F0A3F0D213752F1A753075
:101CB00000753100753218753300753400900016C8
:101CC00075F000120969D20FC214752F1A75300011
:101CD0007531007532187533007534009000167533
:101CE000F0001209691202669001F40200F475A76F
:101CF000007597DE7597AD75FF8075EF0675A710B7
:101D000075C12075A70075A90075A900E5A930E780
:101D1000FB75A90375A903E5A930E7FB43A410757A
:101D2000E10175E20075E341759810758DE6858DCA
:101D30008B53890F438920D28ED29975C800438E68
:101D40001075CAE075CBE375CEFF75CFFFD2ADD26B
:101D5000CA75820022AA82AB83ACF0FD75A72075FC
:101D6000930C75C8107594008A0A8B0B8C0C8D0D22
:101D700090A20075F04A7404121E73AA82AB83AC61
:101D8000F0FD750A18E4F50BF50CF50D8A828B83CE
:101D90008CF0ED121E73AA82AB83ACF0FDE4C39A03
:101DA000FAE49BFB74019CE49D8A958B96D2C9430F
:101DB000944075A7002275A72010C80280FB53C865
:101DC0003F85928275A7002290012CE4F5F0121D48
:101DD00055AAD87B00C002C0037403C0E07400C0E1
:101DE000E07480C0E0122051E58124FBF581AAF364
:101DF0007B00C002C0037403C0E07400C0E07480C4
:101E0000C0E0122051E58124FBF581B2B1122072AD
:101E100030081490001CE4F0A3F090001EE4F0A33E
:101E2000F0C20AC20B8003120765A2C8E433FA7B32
:101E300000A2C9E433FC7D00C002C003C004C00599
:101E40007408C0E07400C0E07480C0E0122051E566
:101E50008124F9F58180B420F71430F6148883A822
:101E60008220F507E6A88375830022E280F7E493D9
:101E700022E022FB7A20E4FCFDFEFFE5822582F5CC
:101E800082E58333F583E5F033F5F0EB33FB401760
:101E9000DAE98042E5822582F582E58333F583E540
:101EA000F033F5F0EB33FBEC33FCED33FDEE33FEBA
:101EB000EF33FFEC950AED950BEE950CEF950D4089
:101EC00013EC950AFCED950BFDEE950CFEEF950DD0
:101ED000FF438201DABEEB22E4AC83AB82FAF974F1
:101EE0008E0221D1FFA88118181221F9D2D133E630
:101EF000400730E70B7582012220E7067582002239
:101F0000C2D11221DBE97003F5822230D101B3E4A2
:101F100033F58222FFA88118181221F9D2D133E6B5
:101F2000400730E70B7582002220E7067582012208
:101F3000C2D11221DBE97003F5822220D101B3E482
:101F400033F582227A10E4FBFCE58225E0F582E598
:101F50008333F583EB33FBEC33FCEB950AF5F0ECC4
:101F6000950B4006FCABF0438201DADD221222A67B
:101F7000BC0003022245EF60FA30D502B2D1E583FE
:101F8000B4FF0302225BE582B4FF0302225B2583D8
:101F900040072482400B022245248314500302226E
:101FA0005BF582EA8DF0A4A8F0EA8EF0A428F8E4AC
:101FB00035F0F9EB8DF0A428E935F0F9E433CA8F58
:101FC000F0A429F9EA35F0FAEBF88EF0A429F9EA41
:101FD00035F0FAE433FBEC8DF0A429F9EA35F0FA98
:101FE000E43BFBE88FF0A42AFAEB35F0FBE433CCBA
:101FF000FD8EF0A42AFAEB35F0FBE43CFCED8FF00B
:10200000A42BFBEC35F0FC20E70312227302222400
:10201000E58330E709F4F583E582F4F582A322E550
:1020200082850AF0A4C582C0F0850BF0A4D0F0250B
:10203000F0C583850AF0A42583F583220228F48560
:10204000827985837A85F07B85097C90203C022308
:102050005DC008858108E50824FBF57CE50824FBC4
:10206000F8867908867A08867B90203C12235DD01A
:10207000082210980280FBAA998A82C0021228F4D2
:10208000D0028A822220F71030F6118883A882209D
:10209000F507F6A88375830022F280F7F0227F8E81
:1020A00012290BF58385F082221222A630D502B2C6
:1020B000D1BF0009BC000302226802225BBC0003FE
:1020C000022245E583B4FF0BE582B4FF03022268D8
:1020D000022245E582B4FF0302225BC395835007C9
:1020E000247F400B022245248014500302225BC04F
:1020F000E0E4CCCBCAF98D0A8E0B8F0CEF54F0C400
:10210000F50D758306850DF0EB84F582E9C4F9EAD7
:10211000C4FAEBC4FBEC540FC47803D6FC18EBD61E
:10212000FB18EAD6FA8582F0EDA4A8F0FD8582F0CE
:10213000EEA428FEE435F0F88582F0EFA428FFE451
:1021400035F0F8E99DF9EA9EFAEB9FFBEC98FCADBF
:102150000AAE0BAF0C30E7101582E92DF9EA3EFA12
:10216000EB3FFBE43CFC80EDC082D58398C3E933B0
:10217000F9EA33FAEB33FBEC33FCC3E99DEA9EEB5F
:102180009FEC9400B3E413F9D002D0E0C44AFAD033
:1021900003D0E0C44BFBD004D0E0F5F0540FC44CA6
:1021A000FCD082158230F40FD3EC13FCEB13FBEA66
:1021B00013FAE913F90582E930E70A74012AFAE40F
:1021C0003BFBE43CFC02223CFCABF0AA83A98274FA
:1021D0009EC2D1F5821222730222247901AA82E6DC
:1021E0008F82B5821318E6B5F00E18E6B58309188C
:1021F000E68A82B58202790022B4800FE5F0700A87
:10220000E5837006E58270027F00EFB6801518B690
:10221000001018B6000B18B6000608080876002251
:1022200008080822B98003EA13B34010EA2401FA2F
:10223000E43BFBE43CFC50047C800582BC000EBB0C
:10224000000BBA0008E4F5F0F583F58222A2D1E58F
:1022500082138CF092F78B838A8222E4F583F582D5
:1022600075F080F4A2D11322E4F583F58275F0C0F5
:10227000747F227804EC7011E58224F8500AF5820C
:10228000E4C9CACBFCD8EF22EC7820058220E71302
:10229000D5820122C3E933F9EA33FAEB33FBEC339D
:1022A000FCD8EA158222AA82AB83A2F73392D160CE
:1022B00002D2F7F582ACF0E58124F9F8E6FD08E6F4
:1022C000FE0886F008E6A2F73392D56002D2F7F551
:1022D00083AFF022AA8274E5C0E07422C0E0C06B34
:1022E000C06C8A82220572E4B57202057322AA824A
:1022F00074302AFA24C6500A74072AFA301B0343A2
:1023000002208A820222D4E582FAC4540FF582C0E8
:10231000021222EED002740F5AF5820222EEAA6D4A
:10232000AB6EAC6FAD70AE71757820EE2EFEED2306
:102330005401FF4206EA2AFAEB33FBEC33FCED339F
:10234000FDC3EE95744008EEC39574FE430201D5BB
:1023500078D98A6D8B6E8C6F8D708E712285826BB1
:1023600085836CE4F572F573AA79AB7AAC7B8A82CB
:102370008B838CF0121E57FD74012AF579E43BF52E
:102380007A8C7BEDFA70030228EDBA2502800302F5
:1023900028E5C21FC220C221C222C223C224C225F4
:1023A000C226C21CC21DC21E7574007575007576EA
:1023B000FFAB79AC7AAD7B8B828C838DF0121E578C
:1023C000FAA3AB82AC838B798C7A8D7BBA25078A92
:1023D000821222D480928A06BE3000402E8A06EEF7
:1023E00024C6402774FFB57613E57575F00AA4FE80
:1023F000EA24D02EF57570BFD22080BBE57675F04B
:102400000AA4FEEA24D02EF57680ACBA2E0A74FF18
:10241000B576A4757600809F8A06BE6100400E8A5C
:1024200006EE248540075302DFD21B8002C21BBA8E
:1024300020028075BA23030224B8BA2A030224BDFD
:10244000BA2B02805FBA2D028055BA4202805FBA71
:102450004303022502BA440302263DBA450302267D
:1024600057BA4603022653BA470302265BBA49030A
:1024700002263DBA4C02803BBA4E0302265FBA4F99
:1024800003022644BA50030225D6BA530302252676
:10249000BA5503022649BA580302264E022689D2AB
:1024A0001F0223B7D2210223B7D2220223B7D2249C
:1024B0000223B7D2250223B7D2260223B774FFB571
:1024C000762030240BE57C14F8887C86750223B7CF
:1024D000E57C24FEF8887C8606088607188E75023F
:1024E00023B730240BE57C14F8887C86760223B76A
:1024F000E57C24FEF8887C8606088607188E76021E
:1025000023B730240AE57C14F8887C8602800FE526
:102510007C24FEF8887C8603088604188B028A8255
:102520001222D402268EE57C24FDF8887C860308DE
:10253000860408860518188B6D8C6E8D6F8B828CC7
:10254000838DF0122930AB82AC838B7774FFB57624
:1025500003857776201F1DC3E57795755016E575C1
:10256000C39577F575AB751575EB6008758220120C
:1025700022D480F1856D82856E83856FF0121E579F
:10258000FBFA6029AB761576C3E464808BF063F0C8
:102590008095F050188A821222D4AB6DAC6EAD6F6C
:1025A0000BBB00010C8B6D8C6E8D6F80C7201F03E1
:1025B00002268EC3E5779575400302268EE575C326
:1025C0009577F575AB751575EB700302268E7582E0
:1025D000201222D480EEE57C24FDF8887C86030856
:1025E000860408860518188B6D8C6E8D6FE56FFB61
:1025F00030E7047A438013EB546060047A50800A19
:10260000EB30E6047A4980027A588A82C0021222AC
:10261000D475823A1222D47582301222D47582780F
:102620001222D4D002BA4902800BBA500280068529
:102630006E82122307856D821223078051D2237583
:10264000740A804A757408804575740A80407574F0
:1026500010803BD21C8037D21D8033D21E802FE5E4
:102660007C24FDF8887C86030886040886051818F3
:102670008B6D8C6E8D6F8B828C838DF0E57212204A
:1026800085A3E57312208580058A821222D4201C3E
:1026900006201D03301E5AE57C24FCF8887C860346
:1026A0000886040886050886061818188B6D8C6E37
:1026B0008D6F8E70756D0E756E00756F80856D7D7A
:1026C000856E7E856F7F7401257DFEE4357EFFABD0
:1026D0007F8E6D8F6E8B6F857D82857E83857FF08B
:1026E000121E57FBFA70030223688A821222D480DA
:1026F000CCE57470030223687B8530242BE57C14C1
:10270000F8887CE6FC3395E0FDFEFF8C6D8D6E8EC7
:102710006F8F7020235EAC6D7D007E007F008C6D1E
:102720008D6E8E6F8F70804C30251FE57C24FCF8F9
:10273000887C860408860508860608860718181807
:102740008C6D8D6E8E6F8F70802AE57C24FEF888EC
:102750007C860408860518ED3395E0FEFF8C6D8DB0
:102760006E8E6F8F7020230CAC6DAD6E7E007F007F
:102770008E6F8F70302643E56D456E456F457060F6
:10278000397408B5740C758230C0031222D4D0039A
:1027900080287410B57423758230C0031222D4D0FF
:1027A00003301B0C758278C0031222D4D003800A38
:1027B000758258C0031222D4D003302325AC6DADEE
:1027C0006EAE6FE570FF30E717C3E49CFCE49DFD3F
:1027D000E49EFEE49FFF8C6D8D6E8E6F8F70800285
:1027E000C223757700D2278B00757100C0001223B9
:1027F0001ED00020270DE571C4FCE6FD4CF61888BC
:10280000038002A6710577B227E56D456E456F45D9
:102810007070D68803E575700375750120201A2045
:102820001F17E57704FCC39575500E758220C00311
:102830001222D4D003157580E930230E75822DC085
:10284000031222D4D00315758024E577602030214F
:102850000E75822BC0031222D4D0031575800F3061
:10286000220C758220C0031222D4D0031575201FBC
:102870001EAC751575C3E5779C50273020047C305D
:1028800080027C208C82C0031222D4D00380E2C359
:10289000E57795755009E575C39577F575800375EE
:1028A00075008B00AB771577EB6022B22720270AE3
:1028B00008E6C4540FFB8B7180078603740F5BF529
:1028C00071857182C0001222EED00080D7201F03D4
:1028D000022368AB751575EB7003022368758220BF
:1028E0001222D480EE8A821222D402236885728258
:1028F00085738322AA82BA0A0810990280FB75990F
:102900000D10990280FB8A99227F9E12295830D19E
:1029100003022245C3EF9582500974FFF5F0F58359
:10292000F58222790012296A89828A838BF0EC224F
:10293000AA82AB83ACF07D007E008A828B838CF010
:10294000121E57FFA3AA82AB83EF60070DBD00EAFA
:102950000E80E78D828E8322AA82AB83A2F7339208
:10296000D16002D2F7F582ACF0226040F8258250A7
:102970000274FFF582E824F8501ECCCBCAF9E4CCEF
:1029800024F85014CBCAF9E4CB24F8500BCAF9E46C
:10299000CA24F8500379002224086010F8C3EC130D
:1029A000FCEB13FBEA13FAE913F9D8F1220000005B
:00000001FF
