:1000000002002E00000000000000000000000000C0
:100020000000000201CC00000000000201497581BF
:10003000391200E0E582600302009A780079007AC4
:10004000007B007C007D00EC4D601C88828983E48D
:1000500093A3A882A9838A828B83F0A3AA82AB830D
:100060001CBCFFE31D80E07582007583007C007D71
:1000700000EC4D600AE4F0A31CBCFFF51D80F27596
:1000800082007583007C007D00EC4D600AE4F0A3E3
:100090001CBCFFF51D80F212009F12045880FE75F3
:1000A0002200E4F523F524E4F525F526E4F527F50B
:1000B00028E4F529F52AE4F52BF52CE4F52DF52EA9
:1000C000E4F52FF530E4F531F532E4F533F534C2DB
:1000D00000C201C202C203C204C205C206C2072294
:1000E00075A7007597DE7597AD75FF8075EF06757E
:1000F000A71075C12075A70075A90075A900E5A90D
:1001000030E7FB75A90375A903E5A930E7FB43A414
:100110001075E10175E20075E340759810758DE684
:10012000858D8B53890F438920D28ED29975C80053
:10013000438E1075CAE075CBE375CEFF75CFFFD245
:10014000ADD2CAD2AF75820022C0E0C0F0C0D07577
:10015000D010C2CF0522749C252250037522003096
:100160000019C2A1AA227B00C3EA9527EB6480850F
:1001700028F063F08095F092A28017C2A2AA227B99
:1001800000C3EA9527EB64808528F063F08095F042
:1001900092A1300119C2A3AA227B00C3EA9529EBE0
:1001A0006480852AF063F08095F092A48017C2A441
:1001B000AA227B00C3EA9529EB6480852AF063F0CC
:1001C0008095F092A3D0D0D0F0D0E032C0E0C0D083
:1001D00075D0181099028003020289C298C208855E
:1001E0009935753608E4F537E53530E007A208B3F0
:1001F00092098004A2089209A2099208E535C31366
:10020000F535153674FFB536021537E536453770C6
:10021000D7753608E4F537200802806DE599F53585
:1002200020E034E4F52FF530E535C313F5351392AE
:1002300005E535C313F535139204E535C313F535DC
:1002400074075535FA8A2D752E00E535C423541FE1
:10025000F5351392038032E4F531F532E535C313F9
:10026000F535139207E535C313F535139206E535D9
:10027000C313F53574075535FA8A2B752C00E5350F
:10028000C423541FF535139202D0D0D0E032E52DAF
:10029000452E7030852B38852C3990000712048C40
:1002A000858223858324852B38852C39900007127D
:1002B000048C858225858326A2029200A202B39235
:1002C0000102041D852D38852E3990006412048C9E
:1002D00085823385833420020302035A852B3885B7
:1002E0002C3985338285348312048CAA82AB8375C2
:1002F000380AE4F5398A828B83120463AA82AB83BD
:10030000EA2533F582EB3534F583753807E4F539A2
:10031000120463858223858324852B38852C3985B7
:10032000338285348312048CAA82AB8375380AE445
:10033000F5398A828B83120463AA82AB83E533C3C7
:100340009AF582E5349BF583753807E4F539120494
:10035000638582258583260203D5852B38852C3934
:1003600085338285348312048CAA82AB8375380A64
:10037000E4F5398A828B83120463AA82AB83E53366
:10038000C39AF582E5349BF583753807E4F5391295
:100390000463858223858324852B38852C39853316
:1003A0008285348312048CAA82AB8375380AE4F503
:1003B000398A828B83120463AA82AB83EA2533F5E0
:1003C00082EB3534F583753807E4F539120463851B
:1003D0008225858326C374649523E464808524F094
:1003E00063F08095F050067A647B008004AA23AB0A
:1003F000248A238B24C374649525E464808526F0C5
:1004000063F08095F050067A647B008004AA25ABE7
:10041000268A258B26A2039200A203920130050DA5
:1004200085232785242885252985262A22753802B3
:10043000E4F5398523828524831204A985822785E2
:100440008328753802E4F5398525828526831204D0
:10045000A985822985832A2275D00012028E75D043
:100460000880F57A10E4FBFCE58225E0F582E5835F
:1004700033F583EB33FBEC33FCEB9538F5F0EC957F
:10048000394006FCABF0438201DADD22E582853893
:10049000F0A4C582C0F08539F0A4D0F025F0C58362
:1004A0008538F0A42583F58322C2D5E58330E70D96
:1004B000D2D5E4C39582F582E49583F583E539309E
:1004C000E70DB2D5E4C39538F538E49539F539121E
:1004D000046330D50BE4C39582F582E49583F583FC
:1004E00022000000000000000000000000000000EA
:00000001FF
