:1000000002002E25640020000D0A003C4E4F2046C1
:100010004C4F41543E000000000000000000000072
:1000200000000000000000000000000201A6758131
:100030007712013DE582600302009A780079007A28
:10004000007B007C007D00EC4D601C88828983E48D
:1000500093A3A882A9838A828B83F0A3AA82AB830D
:100060001CBCFFE31D80E07582007583007C007D71
:1000700000EC4D600AE4F0A31CBCFFF51D80F27596
:1000800082007583007C007D00EC4D600AE4F0A3E3
:100090001CBCFFF51D80F212009F12051880FE7532
:1000A0002300E4F524F5257526FF7527FF7528FF45
:1000B0007529FF752AFF752BFF752CFF752DFF75B0
:1000C0002E18752F3C75307E7531FF75323C7533B7
:1000D0003C75343C75353C75363C75373C75383C61
:1000E00075393C753AFF753B7E753C3C753D18751E
:1000F0003E10753F3075407F7541FF7542FF754377
:100100007F75443075451075460875470C7548FE77
:100110007549FF754AFF754BFE754C0C754D08759A
:100120004E3C754F427550A175519175528975536A
:100130008575544275553CE4F556F5572275A70070
:100140007597DE7597AD75FF8075EF0675A710750D
:10015000C12075A70075A90075A900E5A930E7FBC6
:1001600075A90375A903E5A930E7FB43A41075E160
:100170000175E20075E340759810758DE6858D8BED
:1001800053890F438920D28ED29975C800438E10AF
:1001900075CAD875CBDC75CEFF75CFFFD2ADD2CA8C
:1001A000D2AF75820022C020C0E0C0F0C082C08300
:1001B000C002C003C004C005C006C007C000C00123
:1001C000C0D075D000D2B3C2CFB2801203E3C2B3A5
:1001D000D0D0D001D000D007D006D005D004D003B5
:1001E000D002D083D082D0F0D0E0D02032AA82AB2F
:1001F00083D294D290D296D291D292D297D2A0D2D8
:1002000095EB20E74DC374079AE464808BF063F0AC
:100210008095F0403DEA2A2A90021C7302023402C3
:10022000023802023C020240020244020248020278
:100230004C020250C294801AC2908016C29680125C
:10024000C291800EC292800AC2978006C2A080022C
:10025000C29522AA82E583FB20E74DC374079AE486
:1002600064808BF063F08095F0403DEA2A2A90028A
:10027000727302028A02028E020292020296020245
:100280009A02029E0202A20202A6C2B0801AC2B163
:100290008016C2A58012C2A1800EC2A4800AC2A28A
:1002A0008006C2A38002C2A622D2B0D2B1D2A5D209
:1002B000A1D2A4D2A2D2A3D2A62290002E75F04041
:1002C0000203A590003675F0400203A590003E752C
:1002D000F0400203A590004675F0400203A590008F
:1002E0004E75F0400203A5AA82AB83C3E49AE4648E
:1002F000808BF063F08095F0504074012AFCE43B61
:10030000FDC3EC9558ED64808559F063F08095F05D
:1003100050030202D5C3E49558FCE49559FD7401DD
:100320002AFEE43BFFC3EE9CEF64808DF063F08017
:1003300095F050030202CC0202BAEB30E73FEA2408
:10034000FFFCEB34FFFDC3E49CFCE49DFDC3EC9596
:1003500058ED64808559F063F08095F050030202F7
:10036000D51ABAFF011BC3E5589AE55964808BF092
:1003700063F08095F050030202CC0202C3C3740301
:100380009558E464808559F063F08095F05003023D
:1003900002D5C3E55894FDE5596480947F5003026B
:1003A00002CC0202DEAA82AB83ACF0E4F524F52590
:1003B000C3E5249408E52594005027E5242426F875
:1003C000E5242AFDE5253BFE8C078D828E838FF088
:1003D000120781FDF674012524F524E43525F52561
:1003E00080CE22055AE4B55A02055BC37407955ABC
:1003F000E46480855BF063F08095F05005E4F55A85
:10040000F55B1202A9855A82855B831201ED755C4A
:1004100007E4F55DE55D20E734E55A2426F8860219
:10042000855CF005F0EA8002C313D5F0FB5401FAB5
:10043000BA010F7407C3955CF582E4955DF58312EC
:100440000253155C74FFB55C02155D80C72275A769
:100450000075B28075BCF875B91E75E80075DF3F90
:1004600075B300D2EF22AA82856EF005F074018088
:100470000225E0D5F0FBFB75A720BA0002800ABA7E
:100480000102800FBA021E8014EBF4FA52F1EB4223
:10049000D48012EBF4FA52F2EB42D58008EBF4FA76
:1004A00052F3EB42CC75A700228582BBD2EC20EC44
:1004B000FDD2EC20ECFD85BD8285BE83221204A90D
:1004C00012079DAA82AB83ACF0FDC002C003C0043A
:1004D000C005906C8B75F05374401207DDAA82AB97
:1004E00083ACF0FDE58124FCF581E4C0E074FCC040
:1004F000E0747FC0E07446C0E08A828B838CF0EDAC
:100500001208C1AA82AB83ACF0FDE58124FCF58121
:100510008A828B838CF0ED22756E01758200120445
:1005200066756E0275820012046612044E3098FDE4
:10053000E599E599E5997582001204BDAA82AB831D
:10054000ACF0FD8A5E8B5F8C608D61758201120458
:10055000BDAA82AB83ACF0FD8A628B638C648D652F
:100560007485C0E074EBC0E074D1C0E0743FC0E0BB
:100570008A828B838CF0ED1208B6AA82AB83ACF032
:10058000FDE58124FCF581C002C003C004C00590D4
:10059000000075F08074411207DDAA82AB83ACF0D5
:1005A000FDE58124FCF581740AC0E074D7C0E074D5
:1005B00023C0E0743FC0E08A828B838CF0ED120888
:1005C000C185826A85836B85F06CF56DE58124FCBD
:1005D000F5817485C0E074EBC0E074D1C0E0743F75
:1005E000C0E0855E82855F838560F0E5611208B6B4
:1005F000AE82AF83AAF0FBE58124FCF581C006C082
:1006000007C002C00390000075F08074C11207DDBE
:10061000AA82AB83ACF0FDE58124FCF58174AEC009
:10062000E07447C0E07421C0E0743FC0E08A828B70
:10063000838CF0ED1208C1AA82AB83ACF0FDE5819A
:1006400024FCF581856A82856B83856CF0E56DC03D
:1006500002C003C004C0051207A9AE82AF83D00553
:10066000D004D003D0028A828B838CF0EDC006C008
:10067000071207A9AA82AB83D007D006C374079ECE
:10068000E464808FF063F08095F050047E077F0073
:10069000C3EE94F9EF6480947F50047EF97FFFC32A
:1006A00074079AE464808BF063F08095F050047ACC
:1006B000077B00C3EA94F9EB6480947F50047AF9D5
:1006C0007BFFC002C003C006C007C006C00774039A
:1006D000C0E07400C0E07480C0E0120895E5812499
:1006E000FBF5817406C0E07400C0E07480C0E012C5
:1006F0000895158115811581D007D006D003D00249
:10070000C002C003C006C007C002C0037403C0E03B
:100710007400C0E07480C0E0120895E58124FBF508
:10072000817406C0E07400C0E07480C0E0120895D7
:10073000158115811581A287E433FC7D00C004C0BA
:10074000057403C0E07400C0E07480C0E012089536
:10075000E58124FBF5817408C0E07400C0E074807A
:10076000C0E0120895158115811581D007D006D0FB
:1007700003D0028A588B598E828F831202E70205BA
:100780002D20F71430F6148883A88220F507E6A8F8
:100790008375830022E280F7E49322E022E4AC83B5
:1007A000AB82FAF9748E0209E91209F3700AE58244
:1007B000458345F0700122E430D112F4700BE5F06E
:1007C000F47006E58330E7012290800022700AE58C
:1007D000F07006E58320E70122907FFF22120AD005
:1007E000BC0003020A6FEF60FA30D502B2D1E58394
:1007F000B4FF03020A85E582B4FF03020A8525835C
:1008000040072482400B020A6F2483145003020A1B
:1008100085F582EA8DF0A4A8F0EA8EF0A428F8E429
:1008200035F0F9EB8DF0A428E935F0F9E433CA8FFF
:10083000F0A429F9EA35F0FAEBF88EF0A429F9EAE8
:1008400035F0FAE433FBEC8DF0A429F9EA35F0FA3F
:10085000E43BFBE88FF0A42AFAEB35F0FBE433CC61
:10086000FD8EF0A42AFAEB35F0FBE43CFCED8FF0B2
:10087000A42BFBEC35F0FC20E703120A9D020A4E84
:1008800002111E85821885831985F01A85091B902F
:100890000880020B87C008858108E50824FBF51B4A
:1008A000E50824FBF8861808861908861A9008803F
:1008B000120B87D00822A8811818C6B2E7C6021109
:1008C00033120AD030D502B2D1BF0009BC000302F6
:1008D0000A92020A85BC0003020A6FE583B4FF0B8B
:1008E000E582B4FF03020A92020A6FE582B4FF03B5
:1008F000020A85C395835007247F400B020A6F24A8
:1009000080145003020A85C0E0E4CCCBCAF98D6E96
:100910008E6F8F70EF54F0C4F5717583068571F09A
:10092000EB84F582E9C4F9EAC4FAEBC4FBEC540F9A
:10093000C47803D6FC18EBD6FB18EAD6FA8582F009
:10094000EDA4A8F0FD8582F0EEA428FEE435F0F8D1
:100950008582F0EFA428FFE435F0F8E99DF9EA9EDE
:10096000FAEB9FFBEC98FCAD6EAE6FAF7030E7100A
:100970001582E92DF9EA3EFAEB3FFBE43CFC80ED01
:10098000C082D58398C3E933F9EA33FAEB33FBEC41
:1009900033FCC3E99DEA9EEB9FEC9400B3E413F9AA
:1009A000D002D0E0C44AFAD003D0E0C44BFBD0045C
:1009B000D0E0F5F0540FC44CFCD082158230F40F17
:1009C000D3EC13FCEB13FBEA13FAE913F90582E904
:1009D00030E70A74012AFAE43BFBE43CFC020A66B5
:1009E000FCABF0AA83A982749EC2D1F582120A9D43
:1009F000020A4E12118CC3749E95824039790012FE
:100A0000119E30D126E9F42401F582EAF43400F590
:100A100083EBF43400F5F0ECF43400700AE5824521
:100A20008345F0700122E430E70F22EC20E71489BF
:100A3000828A838BF02230D10AE4F582F583F5F0C7
:100A400074802274FFF582F583F5F0747F22B980FB
:100A500003EA13B34010EA2401FAE43BFBE43CFC54
:100A600050047C800582BC000EBB000BBA0008E479
:100A7000F5F0F583F58222A2D1E582138CF092F78E
:100A80008B838A8222E4F583F58275F080F4A2D10B
:100A90001322E4F583F58275F0C0747F227804ECAC
:100AA0007011E58224F8500AF582E4C9CACBFCD85B
:100AB000EF22EC7820058220E713D5820122C3E9DA
:100AC00033F9EA33FAEB33FBEC33FCD8EA15822234
:100AD000AA82AB83A2F73392D16002D2F7F582AC3F
:100AE000F0E58124F9F8E6FD08E6FE0886F008E660
:100AF000A2F73392D56002D2F7F583AFF022AA8233
:100B0000740FC0E0740BC0E0C00AC00B8A822205DB
:100B100011E4B51102051222AA8274302AFA24C601
:100B2000500A74072AFA3008034302208A82020A14
:100B3000FEE582FAC4540FF582C002120B18D002EF
:100B4000740F5AF582020B18AA0CAB0DAC0EAD0F48
:100B5000AE10751720EE2EFEED235401FF4206EA7B
:100B60002AFAEB33FBEC33FCED33FDC3EE95134077
:100B700008EEC39513FE430201D517D98A0C8B0DDD
:100B80008C0E8D0F8E102285820A85830BE4F51161
:100B9000F512AA18AB19AC1A8A828B838CF0120753
:100BA00081FD74012AF518E43BF5198C1AEDFA70F1
:100BB00003021117BA2502800302110FC20CC20DE5
:100BC000C20EC20FC210C211C212C213C209C20A9F
:100BD000C20B7513007514007515FFAB18AC19AD79
:100BE0001A8B828C838DF0120781FAA3AB82AC83BF
:100BF0008B188C198D1ABA25078A82120AFE8092E8
:100C00008A06BE3000402E8A06EE24C6402774FFB6
:100C1000B51513E51475F00AA4FEEA24D02EF514D8
:100C200070BFD20D80BBE51575F00AA4FEEA24D092
:100C30002EF51580ACBA2E0A74FFB515A4751500F3
:100C4000809F8A06BE6100400E8A06EE248540071A
:100C50005302DFD2088002C208BA20028075BA238C
:100C600003020CE2BA2A03020CE7BA2B02805FBA35
:100C70002D028055BA4202805FBA4303020D2CBA9E
:100C80004403020E67BA4503020E81BA4603020E00
:100C90007DBA4703020E85BA4903020E67BA4C02B9
:100CA000803BBA4E03020E89BA4F03020E6EBA5051
:100CB00003020E00BA5303020D50BA5503020E731D
:100CC000BA5803020E78020EB3D20C020BE1D20E18
:100CD000020BE1D20F020BE1D211020BE1D21202A0
:100CE0000BE1D213020BE174FFB5152030110BE5B7
:100CF0001B14F8881B8614020BE1E51B24FEF88800
:100D00001B8606088607188E14020BE130110BE5CE
:100D10001B14F8881B8615020BE1E51B24FEF888DE
:100D20001B8606088607188E15020BE130110AE5AE
:100D30001B14F8881B8602800FE51B24FEF8881B15
:100D40008603088604188B028A82120AFE020EB8F5
:100D5000E51B24FDF8881B86030886040886051811
:100D6000188B0C8C0D8D0E8B828C838DF01211FAEA
:100D7000AB82AC838B1674FFB51503851615200C5A
:100D80001DC3E51695145016E514C39516F514AB5E
:100D9000141514EB6008758220120AFE80F1850C90
:100DA00082850D83850EF0120781FBFA6029AB1551
:100DB0001515C3E464808BF063F08095F050188AB9
:100DC00082120AFEAB0CAC0DAD0E0BBB00010C8BFE
:100DD0000C8C0D8D0E80C7200C03020EB8C3E516D7
:100DE00095144003020EB8E514C39516F514AB1420
:100DF0001514EB7003020EB8758220120AFE80EE05
:100E0000E51B24FDF8881B86030886040886051860
:100E1000188B0C8C0D8D0EE50EFB30E7047A4380A9
:100E200013EB546060047A50800AEB30E6047A4990
:100E300080027A588A82C002120AFE75823A120A29
:100E4000FE758230120AFE758278120AFED002BA4E
:100E50004902800BBA50028006850D82120B318543
:100E60000C82120B318051D21075130A804A75130F
:100E700008804575130A8040751310803BD20980A5
:100E800037D20A8033D20B802FE51B24FDF8881B54
:100E9000860308860408860518188B0C8C0D8D0EA9
:100EA0008B828C838DF0E5111211E1A3E5121211F2
:100EB000E180058A82120AFE200906200A03300B0F
:100EC0005AE51B24FCF8881B86030886040886055F
:100ED0000886061818188B0C8C0D8D0E8E0F750C4D
:100EE0000B750D00750E80850C1C850D1D850E1E65
:100EF0007401251CFEE4351DFFAB1E8E0C8F0D8B7F
:100F00000E851C82851D83851EF0120781FBFA70F9
:100F100003020B928A82120AFE80CCE51370030250
:100F20000B927B7730112BE51B14F8881BE6FC3302
:100F300095E0FDFEFF8C0C8D0D8E0E8F0F20105E48
:100F4000AC0C7D007E007F008C0C8D0D8E0E8F0F03
:100F5000804C30121FE51B24FCF8881B8604088691
:100F6000050886060886071818188C0C8D0D8E0E3D
:100F70008F0F802AE51B24FEF8881B86040886054F
:100F800018ED3395E0FEFF8C0C8D0D8E0E8F0F202B
:100F9000100CAC0CAD0D7E007F008E0E8F0F301349
:100FA00043E50C450D450E450F60397408B5130C2B
:100FB000758230C003120AFED00380287410B51366
:100FC00023758230C003120AFED00330080C7582EC
:100FD00078C003120AFED003800A758258C003123B
:100FE0000AFED003301025AC0CAD0DAE0EE50FFFA0
:100FF00030E717C3E49CFCE49DFDE49EFEE49FFF04
:101000008C0C8D0D8E0E8F0F8002C210751600D2C3
:10101000148B00751000C000120B48D00020140D76
:10102000E510C4FCE6FD4CF61888038002A6100506
:1010300016B214E50C450D450E450F70D68803E534
:10104000147003751401200D1A200C17E51604FC0A
:10105000C39514500E758220C003120AFED00315EA
:101060001480E930100E75822DC003120AFED003E1
:1010700015148024E5166020300E0E75822BC003F7
:10108000120AFED0031514800F300F0C758220C099
:1010900003120AFED0031514200C1EAC141514C341
:1010A000E5169C5027300D047C3080027C208C8219
:1010B000C003120AFED00380E2C3E516951450095E
:1010C000E514C39516F51480037514008B00AB1658
:1010D0001516EB6022B21420140A08E6C4540FFB64
:1010E0008B1080078603740F5BF510851082C0009B
:1010F000120B18D00080D7200C03020B92AB1415F2
:1011000014EB7003020B92758220120AFE80EE8AA5
:1011100082120AFE020B9285118285128322AA8214
:10112000BA0A0810990280FB75990D10990280FB8C
:101130008A9922120AD07900E583B58202800D5087
:1011400003121222E583C3958212119EE5D0C46575
:10115000D020E117EA2DFAEB3EFBEC3FFC5009747E
:101160000112119EEC4480FC020A4EC3EA9DFAEB88
:101170009EFBEC9FFC500FC3E499F9E49AFAE49BC0
:10118000FBE49CFCB2D1120A9D020A4EAA82AB83F8
:10119000A2F73392D16002D2F7F582ACF022604020
:1011A000F82582500274FFF582E824F8501ECCCB5B
:1011B000CAF9E4CC24F85014CBCAF9E4CB24F85093
:1011C0000BCAF9E4CA24F8500379002224086010FD
:1011D000F8C3EC13FCEB13FBEA13FAE913F9D8F1AB
:1011E0002220F71030F6118883A88220F507F6A890
:1011F0008375830022F280F7F022AA82AB83ACF0E1
:101200007D007E008A828B838CF0120781FFA3AA67
:1012100082AB83EF60070DBD00EA0E80E78D828E02
:101220008322E582C583F582A2D133A2D592D11360
:1012300092D5ECCFFCEBCEFBEACDFA220000000009
:00000001FF
