:100000000200037581471200C0E582600302006FA1
:10001000780079007A007B007C007D00EC4D601C4C
:1000200088828983E493A3A882A9838A828B83F040
:10003000A3AA82AB831CBCFFE31D80E07582007520
:1000400083007C007D00EC4D600AE4F0A31CBCFF43
:10005000F51D80F27582007583007C007D00EC4DFB
:10006000600AE4F0A31CBCFFF51D80F21200BF1271
:10007000024280FE1B5B324A0056407850696E3D5A
:1000800025372E3566562C2056407950696E3D2511
:10009000372E3566562C20785F766F6C74733D254D
:1000A000662C20795F766F6C74733D25662C207802
:1000B0003D25642C20793D25642C2020200D002234
:1000C00075A7007597DE7597AD75FF8075EF06759E
:1000D000A71075C12075A70075A90075A900E5A92D
:1000E00030E7FB75A90375A903E5A930E7FB43A435
:1000F0001075E10175E20075E340759810758DE6A5
:10010000858D8B53890F438920D28ED299C2AF75CA
:1001100082002275A70075B28075BCF875B91E758E
:10012000E80075DF3F75B300D2EF22AA82438E400C
:100130007592B87593FF8592948593957591047B1C
:1001400000C3EB9A500BE59130E7FB53917F0B8096
:10015000F075910022AA82AB837C007D00C3EC9AEB
:10016000ED9B502B7E00BE0400501D7582FAC0022C
:10017000C003C004C005C00612012BD006D005D0B4
:1001800004D003D0020E80DE0CBC00D10D80CE2244
:10019000AA828534F005F07401800225E0D5F0FBD9
:1001A000FB75A720BA0002800ABA0102800FBA02CA
:1001B0001E8014EBF4FA52F1EB42D48012EBF4FA05
:1001C00052F2EB42D58008EBF4FA52F3EB42CC75D5
:1001D000A700228582BBD2EC20ECFDD2EC20ECFD06
:1001E00085BD8285BE83221201D3120579AA82AB16
:1001F00083ACF0FDC002C003C004C005906C8B75D9
:10020000F05374401205E5AA82AB83ACF0FDE581A2
:1002100024FCF581E4C0E074FCC0E0747FC0E074AD
:1002200046C0E08A828B838CF0ED120706AA82AB6F
:1002300083ACF0FDE58124FCF5818A828B838CF010
:10024000ED229001F41201557474C0E07400C0E016
:100250007480C0E012069D158115811581753401E9
:10026000758200120190753402758200120190129D
:1002700001137582001201E7AA82AB83ACF0FD8AFC
:10028000088B098C0A8D0B7582011201E785821992
:1002900085831A85F01BF51C85190C851A0D851BA5
:1002A0000E851C0F7485C0E074EBC0E074D1C0E013
:1002B000743FC0E0850882850983850AF0E50B124A
:1002C00006BEAE82AF83AAF0FBE58124FCF581C0B7
:1002D00006C007C002C00390000075F08074411290
:1002E00005E5AA82AB83ACF0FDE58124FCF58174C1
:1002F0000AC0E074D7C0E07423C0E0743FC0E08A55
:10030000828B838CF0ED1207068582108583118520
:10031000F012F513E58124FCF5817485C0E074EBDF
:10032000C0E074D1C0E0743FC0E0851982851A83B3
:10033000851BF0E51C1206BEAE82AF83AAF0FBE57A
:100340008124FCF581C006C007C002C003900000F4
:1003500075F08074C11205E5AA82AB83ACF0FDE5AF
:100360008124FCF58174AEC0E07447C0E07421C004
:10037000E0743FC0E08A828B838CF0ED1207068523
:10038000821485831585F016F517E58124FCF58127
:10039000E4C0E0C0E07440C0E0C0E0851082851198
:1003A000838512F0E5131205B5AE82E58124FCF5D4
:1003B00081EE6032E4C0E0C0E07440C0E074C0C0D0
:1003C000E08510828511838512F0E513120585AE54
:1003D00082E58124FCF581EE600C7510007511003A
:1003E000751200751300E4C0E0C0E07440C0E0C0C6
:1003F000E08514828515838516F0E5171205B5AEE4
:1004000082E58124FCF581EE6032E4C0E0C0E07456
:1004100040C0E074C0C0E08514828515838516F065
:10042000E517120585AE82E58124FCF581EE600CAE
:10043000751400751500751600751700E4C0E0C04E
:10044000E07410C0E07441C0E0851082851183859E
:1004500012F0E513120585AE82E58124FCF581EEEC
:10046000600E751000751100751210751341803201
:10047000E4C0E0C0E07410C0E074C1C0E085108248
:100480008511838512F0E5131205B5AE82E581244E
:10049000FCF581EE600C7510007511007512107579
:1004A00013C1E4C0E0C0E0C0E07441C0E085148244
:1004B0008515838516F0E517120585AE82E5812442
:1004C000FCF581EE600E751400751500751600754B
:1004D00017418032E4C0E0C0E07410C0E074C1C0D5
:1004E000E08514828515838516F0E5171205B5AEF3
:1004F00082E58124FCF581EE600C75140075150011
:100500007516107517C18510828511838512F0E567
:10051000131206C98582188514828515838516F005
:10052000E5171206C9E582FF3395E0FEE518FA33B8
:1005300095E0FBC007C006C002C003C014C015C0D0
:1005400016C017C010C011C012C013C00CC00DC01F
:100550000EC00FC008C009C00AC00B7479C0E07497
:1005600000C0E07480C0E012069DE58124E9F581B9
:100570009001F4120155020272E4AC83AB82FAF9E5
:10058000748E02082EFFA8811818120856D2D13393
:10059000E6400730E70B7582012220E706758200EE
:1005A00022C2D1120838E97003F5822230D101B39A
:1005B000E433F58222FFA8811818120856D2D133ED
:1005C000E6400730E70B7582002220E706758201BE
:1005D00022C2D1120838E97003F5822220D101B37A
:1005E000E433F58222120903BC00030208A2EF6083
:1005F000FA30D502B2D1E583B4FF030208B8E58230
:10060000B4FF030208B8258340072482400B020888
:10061000A224831450030208B8F582EA8DF0A4A83E
:10062000F0EA8EF0A428F8E435F0F9EB8DF0A42878
:10063000E935F0F9E433CA8FF0A429F9EA35F0FA84
:10064000EBF88EF0A429F9EA35F0FAE433FBEC8DEF
:10065000F0A429F9EA35F0FAE43BFBE88FF0A42A8C
:10066000FAEB35F0FBE433CCFD8EF0A42AFAEB353F
:10067000F0FBE43CFCED8FF0A42BFBEC35F0FC2010
:10068000E7031208D00208810212BD8582308583FB
:100690003185F032851E33900688020D10C01D850D
:1006A000811DE51D24FBF533E51D24FBF88630088C
:1006B0008631088632900688120D10D01D22A8813E
:1006C0001818C6B2E7C60212D212132B700AE582BE
:1006D000458345F0700122E430D117F47010E5F045
:1006E000F4700BE583F47006E58230E70122758231
:1006F0008022700EE5F0700AE5837006E58220E73F
:10070000012275827F2212090330D502B2D1BF00C7
:1007100009BC00030208C50208B8BC00030208A215
:10072000E583B4FF0BE582B4FF030208C50208A20B
:10073000E582B4FF030208B8C395835007247F40C5
:100740000B0208A224801450030208B8C0E0E4CCD5
:10075000CBCAF98D348E358F36EF54F0C4F537752A
:1007600083068537F0EB84F582E9C4F9EAC4FAEB35
:10077000C4FBEC540FC47803D6FC18EBD6FB18EA84
:10078000D6FA8582F0EDA4A8F0FD8582F0EEA428CB
:10079000FEE435F0F88582F0EFA428FFE435F0F8A8
:1007A000E99DF9EA9EFAEB9FFBEC98FCAD34AE357F
:1007B000AF3630E7101582E92DF9EA3EFAEB3FFB40
:1007C000E43CFC80EDC082D58398C3E933F9EA3379
:1007D000FAEB33FBEC33FCC3E99DEA9EEB9FEC9410
:1007E00000B3E413F9D002D0E0C44AFAD003D0E059
:1007F000C44BFBD004D0E0F5F0540FC44CFCD082C5
:10080000158230F40FD3EC13FCEB13FBEA13FAE977
:1008100013F90582E930E70A74012AFAE43BFBE4A4
:100820003CFC020899FCABF0AA83A982749EC2D159
:10083000F5821208D00208817901AA82E68F82B57A
:10084000821318E6B5F00E18E6B5830918E68A8219
:10085000B58202790022B4800FE5F0700AE583705A
:1008600006E58270027F00EFB6801518B6001018FA
:10087000B6000B18B600060808087600220808081B
:1008800022B98003EA13B34010EA2401FAE43BFBE7
:10089000E43CFC50047C800582BC000EBB000BBA1B
:1008A0000008E4F5F0F583F58222A2D1E582138CED
:1008B000F092F78B838A8222E4F583F58275F080CB
:1008C000F4A2D11322E4F583F58275F0C0747F227F
:1008D0007804EC7011E58224F8500AF582E4C9CA64
:1008E000CBFCD8EF22EC7820058220E713D58201DB
:1008F00022C3E933F9EA33FAEB33FBEC33FCD8EAF1
:10090000158222AA82AB83A2F73392D16002D2F77A
:10091000F582ACF0E58124F9F8E6FD08E6FE0886EC
:10092000F008E6A2F73392D56002D2F7F583AFF074
:1009300022AA827442C0E07409C0E0C022C0238AA7
:1009400082220529E4B52902052A22AA8274302AC6
:10095000FA24C6500A74072AFA3000034302208A98
:1009600082020931E582FAC4540FF582C0021209ED
:100970004BD002740F5AF58202094BAA24AB25AC66
:1009800026AD27AE28752F20EE2EFEED235401FF55
:100990004206EA2AFAEB33FBEC33FCED33FDC3EEFF
:1009A000952B4008EEC3952BFE430201D52FD98A23
:1009B000248B258C268D278E28227844E624D0751A
:1009C000F00AA4FA7845E624D02AFA78438603BBD5
:1009D0002D04C3E49AFA752B01C3E464808AF063A2
:1009E000F08095F05029752F038A0374F6252F4067
:1009F0001C052BE52F142438F8E52F2438F987043B
:100A0000A604772E1BEBFA6004052F80DE8B02EA2A
:100A100030E70D78398603783AA6037839762E0ABE
:100A2000E52D600AE52D04FB252BF52B8005300B09
:100A300002052B78388603E4BB2D0104FB700620E9
:100A40000603300702052B300403020B0130055763
:100A5000EB600C75822DC002120931D002801C306F
:100A6000060C75822BC002120931D002800D3007AE
:100A70000A758220C002120931D00278398604BC7E
:100A80002E0C758230C002120931D002152CAC2C0C
:100A9000152CC3E52B9C4003020B45758230C00228
:100AA000120931D00280E7AC2C152CC3E52B9C50E9
:100AB0000C758220C002120931D00280EA78388693
:100AC00004BC2D0C75822DC002120931D002801C8D
:100AD00030060C75822BC002120931D002800D3015
:100AE000070A758220C002120931D00278398604C3
:100AF000BC2E52758230C002120931D002152C80F2
:100B000044EB600E75822DC002120931D002152C03
:100B1000802030060E75822BC002120931D00215DA
:100B20002C800F30070C758220C002120931D002D0
:100B3000152C78398603BB2E0C758230C002120941
:100B400031D002152C752F01C20DE52F2438F886FF
:100B500003BB4503020C02BB2E348A03C3E464804A
:100B60008BF063F08095F0500F758230C00312094E
:100B700031D0031B8B0280E48B02D20DE52D70383F
:100B8000200B03020C0275822E1209318074300D85
:100B9000278A03EB30E71FC3E46480852DF063F000
:100BA0008095F0500C758230C003120931D00315C6
:100BB0002D0B8B0280DD8B02300D0EC3E46480852B
:100BC0002DF063F08095F05021E52F2438F886034E
:100BD0008B82C002120931D002300D0EE52F24386D
:100BE000F88603BB2E028002152D152CC3E4648009
:100BF000852DF063F08095F04003200D05052F0250
:100C00000B4AC3E46480852DF063F08095F0500AB0
:100C1000758230120931152D80E830040FAA2C1589
:100C20002CEA600875822012093180F122E52D70CE
:100C300003300B0D7407252DFAE52CC39AF52C8093
:100C400006E52C24FAF52C752F0078388602BA2B8D
:100C50000F20060C78387620200705752F01052C0B
:100C6000200419AA2CC3E464808AF063F08095F014
:100C7000500A758220120931152C80E7C20DE52F2C
:100C80002438F88602BA00028069BA451F30000293
:100C90007665C3E46480852DF063F08095F0500A9A
:100CA000758230120931152D80E8D20DC3E52F94DD
:100CB00002E433FA7014EA700EC3E46480852DF008
:100CC00063F08095F04003300D16E52F2438F88648
:100CD000028A82120931E52F24FD5012152D800E53
:100CE0007402B52F09300B0675822E120931052FBB
:100CF000020C7E300419AA2CC3E464808AF063F0ED
:100D00008095F0500A758220120931152C80E72257
:100D1000858222858323E4F529F52AAA30AB31ACFC
:100D2000328A828B838CF0121386FD74012AF5308F
:100D3000E43BF5318C32EDFA70030212B6BA2502AB
:100D400080030212AEC204C205C206C207C208C2B4
:100D500009C20AC20BC201C202C203752B00752C64
:100D600000752DFFAB30AC31AD328B828C838DF0B2
:100D7000121386FAA3AB82AC838B308C318D32BADE
:100D800025078A8212093180928A06BE3000402EE1
:100D90008A06EE24C6402774FFB52D13E52C75F0A6
:100DA0000AA4FEEA24D02EF52C70BFD20580BBE544
:100DB0002D75F00AA4FEEA24D02EF52D80ACBA2EB3
:100DC0000A74FFB52DA4752D00809F8A06BE6100B0
:100DD000400E8A06EE248540075302DFD2008002CF
:100DE000C200BA20028075BA2303020E6BBA2A032E
:100DF000020E70BA2B02805FBA2D028055BA4202F1
:100E0000805FBA4303020EB5BA4403020FF0BA453D
:100E10000302100ABA4603021006BA470302100E74
:100E2000BA4903020FF0BA4C02803BBA4E030210DB
:100E300012BA4F03020FF7BA5003020F89BA5303D5
:100E4000020ED9BA5503020FFCBA58030210010270
:100E5000103CD204020D6AD206020D6AD207020DBE
:100E60006AD209020D6AD20A020D6AD20B020D6A19
:100E700074FFB52D2030090BE53314F88833862C28
:100E8000020D6AE53324FEF88833860608860718C3
:100E90008E2C020D6A30090BE53314F88833862D49
:100EA000020D6AE53324FEF88833860608860718A3
:100EB0008E2D020D6A30090AE53314F88833860254
:100EC000800FE53324FEF888338603088604188BE8
:100ED000028A82120931021041E53324FDF8883379
:100EE000860308860408860518188B248C258D2611
:100EF0008B828C838DF01214DAAB82AC838B2E74D0
:100F0000FFB52D03852E2D20041DC3E52E952C50F5
:100F100016E52CC3952EF52CAB2C152CEB60087523
:100F2000822012093180F18524828525838526F06F
:100F3000121386FBFA6029AB2D152DC3E464808B58
:100F4000F063F08095F050188A82120931AB24AC1E
:100F500025AD260BBB00010C8B248C258D2680C76C
:100F6000200403021041C3E52E952C4003021041DA
:100F7000E52CC3952EF52CAB2C152CEB7003021031
:100F80004175822012093180EEE53324FDF8883363
:100F9000860308860408860518188B248C258D2660
:100FA000E526FB30E7047A438013EB546060047A53
:100FB00050800AEB30E6047A4980027A588A82C06F
:100FC0000212093175823A120931758230120931E3
:100FD000758278120931D002BA4902800BBA5002E8
:100FE0008006852582120964852482120964805155
:100FF000D208752B0A804A752B088045752B0A800C
:1010000040752B10803BD2018037D2028033D2034F
:10101000802FE53324FDF88833860308860408868C
:101020000518188B248C258D268B828C838DF0E5FA
:10103000291214C1A3E52A1214C180058A8212095B
:1010400031200106200203300370E53324FCF888C8
:101050003386030886040886050886061818188B48
:10106000248C258D268E27E524E525E526E5278B8E
:10107000828C838DF0EE1213A274FFB52D03752DB3
:1010800006300327747F5527FB8B28E528EB2BFBC5
:101090008B28E52630E70674014528F528E5282445
:1010A000684006749925284002D202300206120CCC
:1010B0002D020D1B1209BA020D1BE52B7003020D48
:1010C0001B7B3D30092BE53314F88833E6FC339560
:1010D000E0FDFEFF8C248D258E268F2720085EAC38
:1010E000247D007E007F008C248D258E268F278016
:1010F0004C300A1FE53324FCF88833860408860543
:101100000886060886071818188C248D258E268FC9
:1011100027802AE53324FEF88833860408860518DC
:10112000ED3395E0FEFF8C248D258E268F27200839
:101130000CAC24AD257E007F008E268F27300B431C
:10114000E52445254526452760397408B52B0C75DF
:101150008230C003120931D00380287410B52B23CC
:10116000758230C003120931D00330000C758278CB
:10117000C003120931D003800A758258C0031209D6
:1011800031D003300825AC24AD25AE26E527FF304D
:10119000E717C3E49CFCE49DFDE49EFEE49FFF8C06
:1011A000248D258E268F278002C208752E00D20C32
:1011B0008B00752800C00012097BD000200C0DE5C3
:1011C00028C4FCE6FD4CF61888038002A628052EEC
:1011D000B20CE52445254526452770D68803E52C25
:1011E0007003752C0120051A200417E52E04FCC39A
:1011F000952C500E758220C003120931D003152C96
:1012000080E930080E75822DC003120931D0031514
:101210002C8024E52E602030060E75822BC0031230
:101220000931D003152C800F30070C758220C003C4
:10123000120931D003152C20041EAC2C152CC3E54B
:101240002E9C50273005047C3080027C208C82C08C
:1012500003120931D00380E2C3E52E952C5009E535
:101260002CC3952EF52C8003752C008B00AB2E150E
:101270002EEB6022B20C200C0A08E6C4540FFB8B44
:101280002880078603740F5BF528852882C000122A
:10129000094BD00080D7200403020D1BAB2C152C6A
:1012A000EB7003020D1B75822012093180EE8A82D9
:1012B000120931020D1B852982852A8322AA82BA4E
:1012C0000A0810990280FB75990D10990280FB8A1B
:1012D00099221209037900E583B58202800D50033B
:1012E000121502E583C3958212151CE5D0C465D0A2
:1012F00020E117EA2DFAEB3EFBEC3FFC50097401AC
:1013000012151CEC4480FC020881C3EA9DFAEB9E96
:10131000FBEC9FFC500FC3E499F9E49AFAE49BFBC1
:10132000E49CFCB2D11208D002088112155FC3748C
:101330009E95824039790012151C30D126E9F4249B
:1013400001F582EAF43400F583EBF43400F5F0ECB7
:10135000F43400700AE582458345F0700122E430E0
:10136000E70F22EC20E71489828A838BF02230D1A8
:101370000AE4F582F583F5F074802274FFF582F5B6
:1013800083F5F0747F2220F71430F6148883A88246
:1013900020F507E6A88375830022E280F7E4932214
:1013A000E022C0E0F84582458345F07009F5F0FB86
:1013B000FCFDFE021470E823A2F792E0F8A982AACD
:1013C00083D2F7ABF07C007E07C3749798404074DB
:1013D000FF2EFE740A89F0A4F985F082740A8AF05F
:1013E000A4FA85F083740A8BF0A4FB740529F9EA4A
:1013F0003582FAEB3583FB740035F0FCC3EC13FC4B
:10140000EB13FBEA13FAE913F908EC70EF80BAE882
:10141000C3947FF88B838EF0E4FBFCFDFEFF08C3D2
:10142000E933F9EA33FAE58333F583EB3BD4FBEC9C
:101430003CD4FCED3DD4FDEE3ED4FEEF3FD4FF6046
:101440002D05F074052BD4FBE43CD4FCE43DD4FD25
:10145000E43ED4FEE43FD4FF758204C3EF13FFEEF5
:1014600013FEED13FDEC13FCEB13FBD582EDD8AFAF
:101470007838D0E020E704762B8002762D087906B4
:10148000E7C4540F4430F608B90603762E08E75433
:101490000F4430F60819B902E7764508E5F020E771
:1014A00004762B8004762DF4040875F00A84443009
:1014B000F608E5F04430F608E4F690003875F040A0
:1014C0002220F71030F6118883A88220F507F6A8AD
:1014D0008375830022F280F7F022AA82AB83ACF0FE
:1014E0007D007E008A828B838CF0121386FFA3AA74
:1014F00082AB83EF60070DBD00EA0E80E78D828E20
:101500008322E582C583F582A2D133A2D592D1137D
:1015100092D5ECCFFCEBCEFBEACDFA226040F82569
:1015200082500274FFF582E824F8501ECCCBCAF931
:10153000E4CC24F85014CBCAF9E4CB24F8500BCAFD
:10154000F9E4CA24F8500379002224086010F8C393
:10155000EC13FCEB13FBEA13FAE913F9D8F122AA16
:1015600082AB83A2F73392D16002D2F7F582ACF05E
:101570002200000000000000000000000000000049
:00000001FF
