:1000000002002E7524FF7525FF7526FF7527FF75E5
:1000100028FF7529FF752A01E4F52BE4F52CF52D51
:10002000752E00E4F52FF53022000002019B75814A
:100030005D1200D0E582600302009A780079007AB0
:10004000007B007C007D00EC4D601C88828983E48D
:1000500093A3A882A9838A828B83F0A3AA82AB830D
:100060001CBCFFE31D80E07582007583007C007D71
:1000700000EC4D600AE4F0A31CBCFFF51D80F27596
:1000800082007583007C007D00EC4D600AE4F0A3E3
:100090001CBCFFF51D80F21200031201E280FE0A73
:1000A000506C6561736520656E74657220636C6168
:1000B0007720706F736974696F6E28302D34293A18
:1000C00020002564003C4E4F20464C4F41543E00DA
:1000D00075A7007597DE7597AD75FF8075EF06758E
:1000E000A71075C12075A70075A90075A900E5A91D
:1000F00030E7FB75A90375A903E5A930E7FB43A425
:100100001075E10175E20075E340759810758DE694
:10011000858D8B53890F438920D28ED29975C80063
:10012000438E1075CAE075CBE375CEFF75CFFFD255
:10013000ADD2CAD2AF758200227401252FF52FE40B
:100140003530F530C374C7952FE495305005E4F58C
:100150002FF530C3E52F9405E53094005007B2A188
:10016000D297D2A022C3E52F9416E5309400400523
:10017000C297C2A0227405252AFAE4352BFBC3E5F9
:100180002F9AE5309B92977416C3952AFAE4952B23
:10019000FBC3E52F9AE5309B92A022C020C0E0C0AF
:1001A000F0C082C083C002C003C004C005C006C046
:1001B00007C000C001C0D075D010C2CF75D00012EA
:1001C000013975D010D0D0D001D000D007D006D0E2
:1001D00005D004D003D002D083D082D0F0D0E0D0BC
:1001E0002032749FC0E07400C0E07480C0E012024E
:1001F0007D158115811581742AC0E07400C0E074FA
:1002000040C0E074C2C0E07400C0E07480C0E0127E
:100210000247E58124FAF58180C8120856AA82BAFD
:100220000810758220C002120869758208120869D8
:10023000D0028A822285824185834285F0438509E6
:100240004490021A0204AEC008858108E50824FB28
:10025000F544E50824FBF886410886420886439069
:10026000021A1204AED0082202086985823F8583F3
:100270004085F041850A42900268020907C008855E
:100280008108E50824FBF542E50824FBF8863F08D1
:100290008640088641900268120907D008228531FD
:1002A00082853283120F28858240E540600A053A34
:1002B000E4B53A06053B8002D20B854082227A00E3
:1002C0007B00300B05784E760022C002C00312027C
:1002D0009EAC82D003D002BC0002802DBC080280FC
:1002E00014BC09028023BC0A02801EBC0D028019C6
:1002F000BC20218014EA4B60D11ABAFF011B153AC9
:1003000074FFB53A02153B80C1EA4B60BDEA244E4A
:10031000F8760022EC7009EA244EF87600D20B221F
:10032000ECB53F07EA244EF8760022C3EA940FEBBF
:10033000940050968A058B060ABA00010BED244EF4
:10034000F8A6040202CAAA827B7FC3EA648094B042
:10035000401174B98AF063F08095F04006EA24D029
:10036000FB8030C3EA648094C1401174C68AF06394
:10037000F08095F0400674C92AFB8017C3EA6480B8
:1003800094E1400F74E68AF063F08095F0400474C5
:10039000A92AFBC3EB953C50038B822275827F22F6
:1003A000AA827536007537007538007539008A00E5
:1003B000E6FA60148A82C000120346AB82D000C302
:1003C000EB953C40030880E886038B82C000120353
:1003D00046AA82D000C3E53C9A4050853C0B750C80
:1003E00000750D00750E008536828537838538F0DF
:1003F000E539C002C000120EBAAB82AC83ADF0FE8C
:10040000D000D0028B368C378D388E39E4FBFCFD62
:10041000EA2536FAEB3537FBEC3538FCED3539FD9E
:100420008A368B378C388D3908809D8536828537A2
:10043000838538F0E53922AA827536007537007554
:1004400038007539008A00E6FB60228B82C003C049
:1004500000120346AC82D000D003C3EC953C400DA3
:10046000BB2D028008BB2B0280030880DA8802863D
:1004700003BB2D03D38001C3920EBB2D028003BBAF
:100480002B010A8A821203A0300E13C3E49536FAB8
:10049000E49537FBE49538FCE49539FD8008AA36ED
:1004A000AB37AC38AD398A828B838CF0ED228582F4
:1004B00031858332E4F53AF53BF53EC20BAA41ABF8
:1004C00042AC438A828B838CF0120E9EFD74012A0B
:1004D000F541E43BF5428C43EDFA700302084DBA56
:1004E000250280030207E6D20AC208753C00753D6A
:1004F00000C20CC20DAB41AC42AD438B828C838DEC
:10050000F0120E9EFAA3AB82AC838B418C428D43DA
:100510008B828C838DF0120E9EF53F8A06BE3000D2
:1005200040168A06EE24C6400FE53D75F00AA4FE8B
:10053000EA24D02EF53D80C38A06BE6100400A8AB7
:1005400006EE248540035302DFBA250280ADBA2AA5
:10055000028045BA42028036BA43028040BA440360
:10056000020661BA4903020661BA4C028025BA4EFE
:1005700003020674BA4F03020666BA53028020BA19
:10058000550302065FBA580302066D02069CD208A4
:100590000204FBD2090204FBD20C0204FBD20D20A0
:1005A0000C17E54424FDF888448603088604088671
:1005B0000518188B338C348D35E53D700B300D04E8
:1005C0007B0180027BFF8B3D753C00C3E53C953D84
:1005D000500512029EAA82300B07E53C700302060A
:1005E0009CEA601ABA2002800DBA09028008BA0D8E
:1005F000028003BA0A03300D05E53DB53C1FE53C1A
:1006000060C9200C12053EAB33AC34AD358B828C07
:10061000838DF0E4120F2A753C0002069CBA081C78
:10062000E53C60A7200C11AB33AC34AD351BBBFFF0
:10063000011C8B338C348D35153C808F200C1BAB0B
:1006400033AC34AD358B828C838DF0EA120F2A0BDC
:10065000BB00010C8B338C348D35053C0205CBC2BD
:100660000A753C0A8036C20A753C08802FC20A759A
:100670003C108028E54424FDF8884486030886045D
:1006800008860518188B338C348D358B828C838DBE
:10069000F0E53A120F2AA3E53B120F2AE53C70035E
:1006A0000207E61202BE784EE670030207E6300C3F
:1006B000030207E6E54424FDF8884486030886041F
:1006C00008860518188B338C348D35053E200A03B7
:1006D00002075F30093585334585344685354775D2
:1006E000824E120437AE82AF83ABF0FC8545828523
:1006F00046838547F0EE120F2AA3EF120F2AA3EBD1
:10070000120F2AA3EC120F2A0207E63008268533BF
:100710004585344685354775824E120437AE82AF23
:1007200083ABF0FC8545828546838547F0EE120F4A
:100730002A0207E685334585344685354775824E5E
:10074000120437AE82AF83ABF0FC854582854683C9
:100750008547F0EE120F2AA3EF120F2A0207E630A8
:10076000093485334585344685354775824E1203F5
:10077000A0AE82AF83ABF0FC85458285468385477A
:10078000F0EE120F2AA3EF120F2AA3EB120F2AA3E7
:10079000EC120F2A80503008258533458534468574
:1007A000354775824E1203A0AE82AF83ABF0FC8555
:1007B00045828546838547F0EE120F2A80288533CF
:1007C0004585344685354775824E1203A0AE82AF0B
:1007D00083ABF0FC8545828546838547F0EE120F9A
:1007E0002AA3EF120F2A200B030204BDAB41AC4237
:1007F000AD438B828C838DF0120E9EFEA3AB82AC38
:10080000838B418C428D43EEFA70030204BDBA25FE
:10081000E18B828C838DF0120E9EFABA6E028003F9
:10082000BA4ECFE54424FDF88844860208860608BF
:10083000860718188A338E348F358A828E838FF01C
:10084000E53A120F2AA3E53B120F2A80A5AA3E7BA8
:10085000008A828B832210980280FBAA998A82C028
:1008600002120869D0028A8222AA82BA0A08109962
:100870000280FB75990D10990280FB8A9922AA8249
:10088000748FC0E07408C0E0C031C0328A82220593
:1008900038E4B53802053922AA8274302AFA24C60F
:1008A000500A74072AFA300F034302208A82020892
:1008B0007EE582FAC4540FF582C002120898D00275
:1008C000740F5AF582020898AA33AB34AC35AD36B2
:1008D000AE37753E20EE2EFEED235401FF4206EAB0
:1008E0002AFAEB33FBEC33FCED33FDC3EE953A40D3
:1008F00008EEC3953AFE430201D53ED98A338B34C4
:100900008C358D368E3722858231858332E4F538F9
:10091000F539AA3FAB40AC418A828B838CF0120E32
:100920009EFD74012AF53FE43BF5408C41EDFA70E1
:1009300003020E97BA25028003020E8FC213C2145F
:10094000C215C216C217C218C219C21AC210C211E9
:10095000C212753A00753B00753CFFAB3FAC40AD31
:10096000418B828C838DF0120E9EFAA3AB82AC83F6
:100970008B3F8C408D41BA25078A8212087E809277
:100980008A06BE3000402E8A06EE24C6402774FF39
:10099000B53C13E53B75F00AA4FEEA24D02EF53BE6
:1009A00070BFD21480BBE53C75F00AA4FEEA24D0E7
:1009B0002EF53C80ACBA2E0A74FFB53CA4753C0001
:1009C000809F8A06BE6100400E8A06EE248540079D
:1009D0005302DFD20F8002C20FBA20028075BA2301
:1009E00003020A62BA2A03020A67BA2B02805FBABC
:1009F0002D028055BA4202805FBA4303020AACBAA4
:100A00004403020BE7BA4503020C01BA4603020B8A
:100A1000FDBA4703020C05BA4903020BE7BA4C02C0
:100A2000803BBA4E03020C09BA4F03020BEEBA50D8
:100A300003020B80BA5303020AD0BA5503020BF328
:100A4000BA5803020BF8020C33D213020961D21513
:100A5000020961D216020961D218020961D2190293
:100A60000961D21A02096174FFB53C2030180BE508
:100A70004214F88842863B020961E54224FEF88868
:100A8000428606088607188E3B02096130180BE57E
:100A90004214F88842863C020961E54224FEF88847
:100AA000428606088607188E3C02096130180AE55E
:100AB0004214F888428602800FE54224FEF88842FC
:100AC0008603088604188B028A8212087E020C387C
:100AD000E54224FDF8884286030886040886051846
:100AE000188B338C348D358B828C838DF0120F43B1
:100AF000AB82AC838B3D74FFB53C03853D3C20133A
:100B00001DC3E53D953B5016E53BC3953DF53BAB1D
:100B10003B153BEB600875822012087E80F185331F
:100B2000828534838535F0120E9EFBFA6029AB3C3A
:100B3000153CC3E464808BF063F08095F050188A14
:100B40008212087EAB33AC34AD350BBB00010C8B8D
:100B5000338C348D3580C7201303020C38C3E53D38
:100B6000953B4003020C38E53BC3953DF53BAB3B61
:100B7000153BEB7003020C3875822012087E80EE64
:100B8000E54224FDF8884286030886040886051895
:100B9000188B338C348D35E535FB30E7047A438090
:100BA00013EB546060047A50800AEB30E6047A4913
:100BB00080027A588A82C00212087E75823A120830
:100BC0007E75823012087E75827812087ED002BA55
:100BD0004902800BBA500280068534821208B18522
:100BE00033821208B18051D217753A0A804A753A99
:100BF000088045753A0A8040753A10803BD21080D3
:100C000037D2118033D212802FE54224FDF888427A
:100C1000860308860408860518188B338C348D35B6
:100C20008B828C838DF0E538120F2AA3E539120FE1
:100C30002A80058A8212087E2010062011033012B5
:100C40005AE54224FCF88842860308860408860593
:100C50000886061818188B338C348D358E3675330C
:100C6000C5753400753580853343853444853545F5
:100C700074012543FEE43544FFAB458E338F348B3E
:100C8000358543828544838545F0120E9EFBFA70BC
:100C9000030209128A8212087E80CCE53A700302B0
:100CA00009127B4D30182BE54214F88842E6FC33DC
:100CB00095E0FDFEFF8C338D348E358F3620175E28
:100CC000AC337D007E007F008C338D348E358F36C3
:100CD000804C30191FE54224FCF8884286040886BF
:100CE000050886060886071818188C338D348E354B
:100CF0008F36802AE54224FEF8884286040886055D
:100D000018ED3395E0FEFF8C338D348E358F362011
:100D1000170CAC33AD347E007F008E358F36301A21
:100D200043E53345344535453660397408B53A0CEA
:100D3000758230C00312087ED00380287410B53A43
:100D400023758230C00312087ED003300F0C7582E9
:100D500078C00312087ED003800A758258C003123F
:100D6000087ED003301725AC33AD34AE35E536FF01
:100D700030E717C3E49CFCE49DFDE49EFEE49FFF86
:100D80008C338D348E358F368002C217753D00D27C
:100D90001B8B00753700C0001208C8D000201B0D47
:100DA000E537C4FCE6FD4CF61888038002A637053B
:100DB0003DB21BE53345344535453670D68803E5ED
:100DC0003B7003753B0120141A201317E53D04FC0A
:100DD000C3953B500E758220C00312087ED00315C8
:100DE0003B80E930170E75822DC00312087ED003B8
:100DF000153B8024E53D602030150E75822BC00325
:100E000012087ED003153B800F30160C758220C06F
:100E10000312087ED003153B20131EAC3B153BC3C9
:100E2000E53D9C50273014047C3080027C208C826D
:100E3000C00312087ED00380E2C3E53D953B500914
:100E4000E53BC3953DF53B8003753B008B00AB3D17
:100E5000153DEB6022B21B201B0A08E6C4540FFBB1
:100E60008B3780078603740F5BF537853782C000A8
:100E7000120898D00080D7201303020912AB3B154B
:100E80003BEB700302091275822012087E80EE8A05
:100E90008212087E0209128538828539832220F762
:100EA0001430F6148883A88220F507E6A88375839A
:100EB0000022E280F7E49322E022AAF0FBE582859B
:100EC0000BF0A4FCADF0E583850BF0A42DFDE4351B
:100ED000F0FEE582850CF0A42DFDE5F03EFEE43346
:100EE000FFEA850BF0A42EFEE5F03FFFE583850CBD
:100EF000F0A42EFEE5F03FFFE582850DF0A42EFE66
:100F0000E5F03FFFEB850BF0A42FFFEA850CF0A482
:100F10002FFFE583850DF0A42FFFE582850EF0A459
:100F20002F8EF08D838C8222E47320F71030F6111F
:100F30008883A88220F507F6A88375830022F280B3
:100F4000F7F022AA82AB83ACF07D007E008A828B10
:100F5000838CF0120E9EFFA3AA82AB83EF60070D75
:100F6000BD00EA0E80E78D828E8322000000000023
:00000001FF
