:1000000002002E25642025640A003C4E4F20464CF9
:100010004F41543E00FFFFFFFFFFFF0000000000C4
:1000200000000001000000000000000204067581CD
:100030003E12039DE582600302009A781579007AEA
:10004000007B007C107D00EC4D601C88828983E47D
:1000500093A3A882A9838A828B83F0A3AA82AB830D
:100060001CBCFFE31D80E07582007583007C007D71
:1000700000EC4D600AE4F0A31CBCFFF51D80F27596
:1000800082007583007C007D00EC4D600AE4F0A3E3
:100090001CBCFFF51D80F212009F1205E380FEE4F8
:1000A000F509F50AE4F50BF50CE4F50DF50EC20BB8
:1000B000C20CC20DC20EC20FC210C2112275A7001F
:1000C00075B28075BCF875B91E75E80075DF3F75AF
:1000D000B300D2EF22AA82438E407592B87593FF87
:1000E0008592948593957591047B00C3EB9A500B90
:1000F000E59130E7FB53917F0B80F075910022AAC8
:1001000082AB837C007D00C3EC9AED9B502B7E007C
:10011000BE0400501D7582FAC002C003C004C005B1
:10012000C0061200D5D006D005D004D003D0020EF0
:1001300080DE0CBC00D10D80CE22AA828518F0058D
:10014000F07401800225E0D5F0FBFB75A720BA0012
:1001500002800ABA0102800FBA021E8014EBF4FA80
:1001600052F1EB42D48012EBF4FA52F2EB42D5801A
:1001700008EBF4FA52F3EB42CC75A700228582BB60
:10018000D2EC20ECFDD2EC20ECFD85BD8285BE8357
:100190002212017D12063EAA82AB83ACF0FDC002A2
:1001A000C003C004C005906C8B75F05374401206F8
:1001B0007AAA82AB83ACF0FDE58124FCF581E4C032
:1001C000E074FCC0E0747FC0E07446C0E08A828BBB
:1001D000838CF0ED12076BAA82AB83ACF0FDE58156
:1001E00024FCF5818A828B838CF0ED22AA82AB837A
:1001F000EA4B24FF9208E519451A24FF9209229040
:100200000000E4F0A3F0900002E4F0A3F09000649A
:100210000200FFAA82AB83E4F519F51A900001C031
:1002200002C0031201ECD003D00290000274552AE0
:10023000F0E43BA3F090000074282AF0E43BA3F024
:1002400022AA82AB83751901E4F51A900000C0025E
:10025000C0031201ECD003D00290000074552AF0C4
:10026000E43BA3F090000274282AF0E43BA3F022C0
:100270001201FF80FE900008E02401F0A3E03400AA
:10028000F0900008E0FAA3E0FBC374C79AE464802E
:100290008BF063F08095F05007900008E4F0A3F035
:1002A000900008E0FAA3E0FBC3EA9405EB648094B5
:1002B000805015B2A190000C7401F0E4A3F09000FE
:1002C0000A7401F0E4A3F022900008E0FAA3E0FB36
:1002D000C3EA9416EB64809480400F90000CE4F025
:1002E000A3F090000AE4F0A3F02290000EE0FAA33D
:1002F000E0FB74052AFAE43BFB900008E0FCA3E075
:10030000FDC3EC9AED64808BF063F08095F05004AF
:100310007A0180027A0090000CEAF0A3E4F09000E9
:100320000EE0FAA3E0FB7416C39AFAE49BFB90007C
:1003300008E0FCA3E0FDC3EC9AED64808BF063F071
:100340008095F050047A0180027A0090000AEAF069
:10035000A3E4F022C3E50D9432E50E64809480920C
:100360009020110B30871FD211E4F509F50A2230D5
:10037000870C74012509F509E4350AF50A22850977
:100380000B850A0CC21122850B82850C8302075E45
:10039000AA82AB8390000EEAF0A3EBF02275A700CF
:1003A0007597DE7597AD75FF8075EF0675A71075AB
:1003B000C12075A70075A90075A900E5A930E7FB64
:1003C00075A90375A903E5A930E7FB43A41075E1FE
:1003D0000175E20075E340759810758DE6858D8B8B
:1003E00053890F438920D28ED29975C800438E104D
:1003F00075CAE075CBE375CEFF75CFFFD2ADD2CA1B
:10040000D2AF75820022C020C0E0C0F0C082C0839D
:10041000C002C003C004C005C006C007C000C001C0
:10042000C0D075D010C2CF7401250DF50DE4350E86
:10043000F50EC3E50D9464E50E64809480402BE4D2
:10044000F50DF50E900006E02401F0A3E03400F075
:10045000900006E0FAA3E0FBC3EA9432EB9400407C
:1004600009900006E4F0A3F0C20E75D000120275E8
:1004700075D00012035475D010D0D0D001D000D068
:1004800007D006D005D004D003D002D083D082D0CC
:10049000F0D0E0D02032758208120191AA82AB839D
:1004A000ACF0FDC002C003C004C00590000075F0B0
:1004B0007A744412067AAA82AB83ACF0FDE58124FB
:1004C000FCF581E4C0E0C0E0747AC0E07444C0E0B0
:1004D0008A828B838CF0ED12064AAA82E58124FC85
:1004E000F581EA704F758209120191AA82AB83AC43
:1004F000F0FDC002C003C004C00590000075F07A92
:10050000744412067AAA82AB83ACF0FDE58124FC28
:10051000F581E4C0E0C0E0747AC0E07444C0E08AD1
:10052000828B838CF0ED12064AAA82E58124FCF5C9
:1005300081EA60049000012290000022300A1DE44C
:10054000F519F51A9000011201EC900002E4F0A3F5
:10055000F09000007428F0E4A3F0801C751901E409
:10056000F51A9000001201EC9000027428F0E4A348
:10057000F0900000E4F0A3F0120496AA82AB83BAD4
:1005800001F6BB00F322AA82AB83ACF0FD748FC0EE
:10059000E074C2C0E07475C0E0743CC0E08A828B35
:1005A000838CF0ED120753AA82AB83ACF0FDE5819A
:1005B00024FCF5817458C0E07439C0E074B4C0E024
:1005C000743BC0E08A828B838CF0ED12076BAA82A9
:1005D000AB83ACF0FDE58124FCF5818A828B838CB2
:1005E000F0ED221201FF75180675820112013A75AD
:1005F000180575820112013A7518047582011201FD
:100600003A75180375820112013A75180275820154
:1006100012013A1200BDD287A211E433FA7B00C066
:100620000BC00CC002C0037403C0E07400C0E074CF
:1006300080C0E0120732E58124F9F58180DAE4AC6C
:1006400083AB82FAF9748E020893FFA881181812FE
:1006500008BBD2D133E6400730E70B758200222079
:10066000E70675820122C2D112089DE97003F58266
:100670002220D101B3E433F58222120968BC0003C1
:10068000020907EF60FA30D502B2D1E583B4FF0367
:1006900002091DE582B4FF0302091D2583400724DA
:1006A00082400B020907248314500302091DF582BE
:1006B000EA8DF0A4A8F0EA8EF0A428F8E435F0F969
:1006C000EB8DF0A428E935F0F9E433CA8FF0A429C2
:1006D000F9EA35F0FAEBF88EF0A429F9EA35F0FAE8
:1006E000E433FBEC8DF0A429F9EA35F0FAE43BFBA6
:1006F000E88FF0A42AFAEB35F0FBE433CCFD8EF062
:10070000A42AFAEB35F0FBE43CFCED8FF0A42BFBC4
:10071000EC35F0FC20E7031209350208E6020FB6BB
:1007200085823285833385F034850F3590071D022D
:100730000A1FC008858108E50824FBF535E5082473
:10074000FBF8863208863308863490071D120A1F8C
:10075000D00822A8811818C6B2E7C6020FCBAC8316
:10076000AB827A007900748E02102D12096830D5A0
:1007700002B2D1BF0009BC000302092A02091DBC54
:100780000003020907E583B4FF0BE582B4FF03020F
:10079000092A020907E582B4FF0302091DC39583F4
:1007A0005007247F400B02090724801450030209DC
:1007B0001DC0E0E4CCCBCAF98D188E198F1AEF5406
:1007C000F0C4F51B758306851BF0EB84F582E9C444
:1007D000F9EAC4FAEBC4FBEC540FC47803D6FC1856
:1007E000EBD6FB18EAD6FA8582F0EDA4A8F0FD85D9
:1007F00082F0EEA428FEE435F0F88582F0EFA4281C
:10080000FFE435F0F8E99DF9EA9EFAEB9FFBEC98DE
:10081000FCAD18AE19AF1A30E7101582E92DF9EAD0
:100820003EFAEB3FFBE43CFC80EDC082D58398C3ED
:10083000E933F9EA33FAEB33FBEC33FCC3E99DEA25
:100840009EEB9FEC9400B3E413F9D002D0E0C44ACD
:10085000FAD003D0E0C44BFBD004D0E0F5F0540F45
:10086000C44CFCD082158230F40FD3EC13FCEB1394
:10087000FBEA13FAE913F90582E930E70A74012A61
:10088000FAE43BFBE43CFC0208FEFCABF0AA83A9C3
:1008900082749EC2D1F5821209350208E67901AA56
:1008A00082E68F82B5821318E6B5F00E18E6B5839E
:1008B0000918E68A82B58202790022B4800FE5F039
:1008C000700AE5837006E58270027F00EFB680153E
:1008D00018B6001018B6000B18B6000608080876FF
:1008E000002208080822B98003EA13B34010EA2462
:1008F00001FAE43BFBE43CFC50047C800582BC0034
:100900000EBB000BBA0008E4F5F0F583F58222A2D5
:10091000D1E582138CF092F78B838A8222E4F583EF
:10092000F58275F080F4A2D11322E4F583F5827587
:10093000F0C0747F227804EC7011E58224F8500A2C
:10094000F582E4C9CACBFCD8EF22EC7820058220DE
:10095000E713D5820122C3E933F9EA33FAEB33FB1B
:10096000EC33FCD8EA158222AA82AB83A2F7339239
:10097000D16002D2F7F582ACF0E58124F9F8E6FD0A
:1009800008E6FE0886F008E6A2F73392D56002D2A8
:10099000F7F583AFF022AA8274A7C0E07409C0E023
:1009A000C024C0258A8222052BE4B52B02052C2207
:1009B000AA8274302AFA24C6500A74072AFA30121E
:1009C000034302208A82020996E582FAC4540FF595
:1009D00082C0021209B0D002740F5AF5820209B027
:1009E000AA26AB27AC28AD29AE2A753120EE2EFE03
:1009F000ED235401FF4206EA2AFAEB33FBEC33FC09
:100A0000ED33FDC3EE952D4008EEC3952DFE430258
:100A100001D531D98A268B278C288D298E2A2285CB
:100A20008224858325E4F52BF52CAA32AB33AC3434
:100A30008A828B838CF0121051FD74012AF532E406
:100A40003BF5338C34EDFA7003020FAFBA25028008
:100A500003020FA7C216C217C218C219C21AC21BBC
:100A6000C21CC21DC213C214C215752D00752E0002
:100A7000752FFFAB32AC33AD348B828C838DF0128B
:100A80001051FAA3AB82AC838B328C338D34BA25F0
:100A9000078A8212099680928A06BE3000402E8A0A
:100AA00006EE24C6402774FFB52F13E52E75F00A15
:100AB000A4FEEA24D02EF52E70BFD21780BBE52FFE
:100AC00075F00AA4FEEA24D02EF52F80ACBA2E0AC7
:100AD00074FFB52FA4752F00809F8A06BE61004069
:100AE0000E8A06EE248540075302DFD2128002C22E
:100AF00012BA20028075BA2303020B7ABA2A0302C3
:100B00000B7FBA2B02805FBA2D028055BA42028059
:100B10005FBA4303020BC4BA4403020CFFBA450395
:100B2000020D19BA4603020D15BA4703020D1DBA8C
:100B30004903020CFFBA4C02803BBA4E03020D215E
:100B4000BA4F03020D06BA5003020C98BA530302BF
:100B50000BE8BA5503020D0BBA5803020D10020D33
:100B60004BD216020A79D218020A79D219020A79EE
:100B7000D21B020A79D21C020A79D21D020A7974A8
:100B8000FFB52F20301B0BE53514F88835862E0273
:100B90000A79E53524FEF888358606088607188E1A
:100BA0002E020A79301B0BE53514F88835862F02A2
:100BB0000A79E53524FEF888358606088607188EFA
:100BC0002F020A79301B0AE53514F8883586028031
:100BD0000FE53524FEF888358603088604188B0255
:100BE0008A82120996020D50E53524FDF888358673
:100BF0000308860408860518188B268C278D288BF9
:100C0000828C838DF0121086AB82AC838B3074FFA4
:100C1000B52F0385302F20161DC3E530952E5016B5
:100C2000E52EC39530F52EAB2E152EEB60087582A0
:100C30002012099680F18526828527838528F01267
:100C40001051FBFA6029AB2F152FC3E464808BF0A1
:100C500063F08095F050188A82120996AB26AC2773
:100C6000AD280BBB00010C8B268C278D2880C7205C
:100C70001603020D50C3E530952E4003020D50E5DA
:100C80002EC39530F52EAB2E152EEB7003020D50B2
:100C900075822012099680EEE53524FDF8883586A8
:100CA0000308860408860518188B268C278D28E5EE
:100CB00028FB30E7047A438013EB546060047A50D9
:100CC000800AEB30E6047A4980027A588A82C002B0
:100CD00012099675823A1209967582301209967534
:100CE0008278120996D002BA4902800BBA5002806B
:100CF000068527821209C98526821209C98051D228
:100D00001A752D0A804A752D088045752D0A804078
:100D1000752D10803BD2138037D2148033D21580CA
:100D20002FE53524FDF888358603088604088605F6
:100D300018188B268C278D288B828C838DF0E52BC1
:100D400012106DA3E52C12106D80058A821209968F
:100D500020130620140330155AE53524FCF8883595
:100D600086030886040886050886061818188B2648
:100D70008C278D288E2975260A7527007528808571
:100D8000263685273785283874012536FEE4353721
:100D9000FFAB388E268F278B288536828537838553
:100DA00038F0121051FBFA7003020A2A8A821209E3
:100DB0009680CCE52D7003020A2A7B3E301B2BE582
:100DC0003514F88835E6FC3395E0FDFEFF8C268D62
:100DD000278E288F29201A5EAC267D007E007F009A
:100DE0008C268D278E288F29804C301C1FE53524BA
:100DF000FCF88835860408860508860608860718E4
:100E000018188C268D278E288F29802AE53524FEF8
:100E1000F88835860408860518ED3395E0FEFF8CCA
:100E2000268D278E288F29201A0CAC26AD277E0010
:100E30007F008E288F29301D43E52645274528450C
:100E40002960397408B52D0C758230C003120996DB
:100E5000D00380287410B52D23758230C003120989
:100E600096D00330120C758278C003120996D00315
:100E7000800A758258C003120996D003301A25AC37
:100E800026AD27AE28E529FF30E717C3E49CFCE434
:100E90009DFDE49EFEE49FFF8C268D278E288F29E2
:100EA0008002C21A753000D21E8B00752A00C00065
:100EB0001209E0D000201E0DE52AC4FCE6FD4CF628
:100EC0001888038002A62A0530B21EE5264527456C
:100ED00028452970D68803E52E7003752E0120174A
:100EE0001A201617E53004FCC3952E500E7582208B
:100EF000C003120996D003152E80E9301A0E7582B0
:100F00002DC003120996D003152E8024E5306020F1
:100F100030180E75822BC003120996D003152E804F
:100F20000F30190C758220C003120996D003152EBC
:100F300020161EAC2E152EC3E5309C50273017040A
:100F40007C3080027C208C82C003120996D0038002
:100F5000E2C3E530952E5009E52EC39530F52E807D
:100F600003752E008B00AB301530EB6022B21E20D3
:100F70001E0A08E6C4540FFB8B2A80078603740FF1
:100F80005BF52A852A82C0001209B0D00080D720E4
:100F90001603020A2AAB2E152EEB7003020A2A75DD
:100FA000822012099680EE8A82120996020A2A8508
:100FB0002B82852C8322AA82BA0A0810990280FB10
:100FC00075990D10990280FB8A992212096879009F
:100FD000E583B58202800D50031210AEE583C39500
:100FE000821210C8E5D0C465D020E117EA2DFAEBD3
:100FF0003EFBEC3FFC500974011210C8EC4480FC2D
:101000000208E6C3EA9DFAEB9EFBEC9FFC500FC37F
:10101000E499F9E49AFAE49BFBE49CFCB2D112094E
:10102000350208E6FCABF0AA83A982749EF582C261
:10103000D1EC30E716D2D1E9F42401F9EAF4340016
:10104000FAEBF43400FBECF43400FC12093502082E
:10105000E620F71430F6148883A88220F507E6A866
:101060008375830022E280F7E49322E02220F710C8
:1010700030F6118883A88220F507F6A883758300CF
:1010800022F280F7F022AA82AB83ACF07D007E00D2
:101090008A828B838CF0121051FFA3AA82AB83EF5C
:1010A00060070DBD00EA0E80E78D828E8322E58207
:1010B000C583F582A2D133A2D592D11392D5ECCFBC
:1010C000FCEBCEFBEACDFA226040F8258250027498
:1010D000FFF582E824F8501ECCCBCAF9E4CC24F802
:1010E0005014CBCAF9E4CB24F8500BCAF9E4CA2453
:1010F000F8500379002224086010F8C3EC13FCEBCD
:1011000013FBEA13FAE913F9D8F1220000000000FA
:00000001FF
