:1000000002002EFFFFFFFFFFFF00000000000000C6
:10002000000000000000000000000002038C758149
:100030006F120323E582600302009A780379007A45
:100040000E7B007C0B7D00EC4D601C88828983E474
:1000500093A3A882A9838A828B83F0A3AA82AB830D
:100060001CBCFFE31D80E07582007583007C0E7D63
:1000700000EC4D600AE4F0A31CBCFFF51D80F27596
:1000800082007583007C007D00EC4D600AE4F0A3E3
:100090001CBCFFF51D80F212009F1219A880FEE41F
:1000A000F523F524E4F525F526752702E4F528E483
:1000B000F529F52AC208C209C20AC20BC20CC20D38
:1000C000C20EC20FC210C2112275A70075B2807590
:1000D000BCF875B91E75E80075DF3F75B300D2EF47
:1000E00022AA82438E407592B87593FF85929485BB
:1000F00093957591047B00C3EB9A500BE59130E723
:10010000FB53917F0B80F075910022AA82AB837C18
:10011000007D00C3EC9AED9B502B7E00BE04005086
:100120001D7582FAC002C003C004C005C0061200DB
:10013000E1D006D005D004D003D0020E80DE0CBC86
:1001400000D10D80CE22AA828508F005F0740180CE
:100150000225E0D5F0FBFB75A720BA0002800ABAA1
:100160000102800FBA021E8014EBF4FA52F1EB4246
:10017000D48012EBF4FA52F2EB42D58008EBF4FA99
:1001800052F3EB42CC75A700228582BBD2EC20EC67
:10019000FDD2EC20ECFD85BD8285BE832212018953
:1001A000121B65AA82AB83ACF0FDC002C003C00481
:1001B000C005906C8B75F0537440121BD1AA82ABB2
:1001C00083ACF0FDE58124FCF581E4C0E074FCC063
:1001D000E0747FC0E07446C0E08A828B838CF0EDCF
:1001E000121CB4AA82AB83ACF0FDE58124FCF5813E
:1001F0008A828B838CF0ED22AA82AB83EA4B24FFA8
:100200009209E509450A24FF92082290000EE4F0C5
:10021000A3F0900010E4F0A3F090006402010BAA98
:1002200082AB83E4F509F50A900001C002C0031215
:1002300001F8D003D00290001074282AF0E43BA308
:10024000F090000E74192AF0E43BA3F022AA82ABCE
:1002500083750901E4F50A900000C002C003120191
:10026000F8D003D00290000E74282AF0E43BA3F0EB
:1002700090001074192AF0E43BA3F02212020B80C4
:10028000FE74012529F529E4352AF52AC374C7959A
:1002900029E4952A5005E4F529F52AC3E5299405B2
:1002A000E52A94005007B2A1D297D2A022C3E52933
:1002B0009416E52A94004005C297C2A02274052531
:1002C00027FAE43528FBC3E5299AE52A9B9297741F
:1002D00016C39527FAE49528FBC3E5299AE52A9BDE
:1002E00092A022900016E0FABA3200929020110BF0
:1002F00030871FD211E4F523F5242230870C7401D6
:100300002523F523E43524F5242285232585242679
:10031000C21122852582852683021CA78582278516
:1003200083282275A7007597DE7597AD75FF8075D8
:10033000EF0675A71075C12075A70075A90075A9EE
:1003400000E5A930E7FB75A90375A903E5A930E726
:10035000FB43A41075E10175E20075E34075981048
:10036000758DE6858D8B53890F438920D28ED29966
:1003700075C800438E1075CAE075CBE375CEFF7566
:10038000CFFFD2ADD2CAD2AF75820022C020C0E06A
:10039000C0F0C082C083C002C003C004C005C00654
:1003A000C007C000C001C0D075D010C2CF900016E9
:1003B000E02401F0900016E0FABA6400402B9000AF
:1003C00016E4F0900017E02401F0A3E03400F09070
:1003D0000017E0FAA3E0FBC3EA9432EB9400400973
:1003E000900017E4F0A3F0C20E20091AC2A19000F9
:1003F00016E0FA90000EE0FBA3E0FC7D00C3EA9B50
:10040000ED9C92A28018C2A2900016E0FA90000E15
:10041000E0FBA3E0FC7D00C3EA9BED9C92A13008C9
:100420001AC2A3900016E0FA900010E0FBA3E0FCD3
:100430007D00C3EA9BED9C92A48018C2A490001694
:10044000E0FA900010E0FBA3E0FC7D00C3EA9BED26
:100450009C92A375D0001202E375D0001202817540
:10046000D010D0D0D001D000D007D006D005D00415
:10047000D003D002D083D082D0F0D0E0D02032851B
:10048000823185833285F033900000E4F0A3F09050
:100490000002E4F0A3F0900004E4F0A3F090000662
:1004A000E4F0A3F0900006E0FDA3E0FEBD0706BE69
:1004B00000030207415305027E00BD0206BE000391
:1004C00002057F75820C12019DAD82AE83AFF0F8FC
:1004D000C005C006C007C00090000075F07A7444E3
:1004E000121BD1AD82AE83AFF0F8E58124FCF5811B
:1004F0008D828E838FF0E8121C9CAD82AE83853195
:10050000828532838533F0121B49FFA3121B49F801
:10051000EFC39DF582E89EF583C005C006121C74EA
:10052000AF82A883D006D005C374329FE46480886C
:10053000F063F08095F0400E900000E02401F0A3FD
:10054000E03400F08019900000E4F0A3F0853182DF
:100550008532838533F0ED121C83A3EE121C839049
:100560000000E0FDA3E0FEBD0A15BE0012900006EB
:10057000E0FDA3E0FE90000674024DF0A3EEF090C3
:100580000006E0FDA3E05305017E00BD0106BE00AC
:100590000302065C75820A12019DAD82AE83AFF044
:1005A000F8C005C006C007C00090000075F07A745E
:1005B00044121BD1AD82AE83AFF0F8E58124FCF587
:1005C000818D828E838FF0E8121C9CAD82AE83AF4A
:1005D0002EA82FA9308F82888389F0121B49FAA395
:1005E000121B49FBEAC39DF582EB9EF583C005C053
:1005F00006C007C000C001121C74AA82AB83D001E0
:10060000D000D007D006D005C374329AE464808B42
:10061000F063F08095F0400E900004E02401F0A318
:10062000E03400F08016900004E4F0A3F08F82889C
:100630008389F0ED121C83A3EE121C83900004E06A
:10064000FAA3E0FBBA0A15BB0012900006E0FAA379
:10065000E0FB90000674014AF0A3EBF0900006E086
:10066000FAA3E05302047B00BA0406BB00030204B1
:10067000A475820B12019DAA82AB83ACF0FDC0026F
:10068000C003C004C00590000075F07A7444121BCA
:10069000D1AA82AB83ACF0FDE58124FCF5818A828E
:1006A0008B838CF0ED121C9CAA82AB83AC2BAD2CFF
:1006B000AE2D8C828D838EF0121B49FFA3121B4935
:1006C000F8EFC39AF582E89BF583C002C003C0042B
:1006D000C005C006121C74AF82A883D006D005D016
:1006E00004D003D002C374329FE4648088F063F0C6
:1006F0008095F0400E900002E02401F0A3E0340069
:10070000F08016900002E4F0A3F08C828D838EF0CE
:10071000EA121C83A3EB121C83900002E0FAA3E010
:10072000FBBA0A05BB000280030204A4900006E0A5
:10073000FAA3E0FB90000674044AF0A3EBF0020475
:10074000A42285823A85833B85F03C121B49FDA398
:10075000121B49FEED2470FDEE34FEFE8537408508
:1007600038418539428540828541838542F0121B9C
:1007700049FAA3121B49FBEA2470FAEB34FEFB850D
:10078000343D85353E85363F853D82853E83853FB8
:10079000F0121B49FCA3121B49FFEC2470FCEF3440
:1007A000FEFF90000E7419F0E4A3F090001074198D
:1007B000F0E4A3F0E4F509F50AF582F583C002C080
:1007C00003C004C005C006C0071201F8D007D00658
:1007D000D005D004D003D002D20E900014E4F0A3D0
:1007E000F0C005C00675820BC002C003C004C0077C
:1007F00012019DA882A983ADF0FEC000C001C00512
:10080000C00690000075F07A7444121BD1AD82AE20
:1008100083A8F0F9E58124FCF581D007D0048C820F
:100820008F83C004C005C006C007C000C001121BF2
:100830006585824385834485F045F546D001D00027
:10084000D007D006D005C006C007C043C044C0458D
:10085000C0468D828E8388F0E9121B71AD82E581DE
:1008600024FCF581D007D006D004D003D002EDD00F
:1008700006D0057003020AB9C004C00775820CC017
:1008800002C003C005C00612019DA882A983ACF076
:10089000FFD006D005C004C005C006C007C000C018
:1008A00001C004C00790000075F07A7444121BD197
:1008B00085824785834885F049F54AE58124FCF522
:1008C00081D007D006D005D0048D828E83C005C0AC
:1008D00006121B65AC82AF83A8F0F9C007C004C044
:1008E00007C000C0018547828548838549F0E54AF5
:1008F000121BA1AC82E58124FCF581D007D006D083
:1009000005D003D002ECD007D0046062E4F509F50D
:100910000A900001C002C003C004C005C006C007A1
:100920001201F8D007D006D005D004D003D0029031
:1009300000107428F0E4A3F090000E7428F0E4A3F3
:10094000F0300E03020E1E900014E0F8A3E0F93020
:10095000E70B9000147401F0E4A3F0800C900014F5
:10096000E02401F0A3E03400F0D20E020E1EC00419
:10097000C00775820AC002C003C005C00612019DEF
:10098000A882A983ACF0FFD006D005C004C005C082
:1009900006C007C000C001C004C00790000075F089
:1009A0007A7444121BD185824785834885F049F5C6
:1009B0004AE58124FCF581D007D006D005D004D0CB
:1009C00003D0028A828B83C002C003C005C0061216
:1009D0001B65AC82AF83A8F0F9C007C004C007C094
:1009E00000C0018547828548838549F0E54A121B8E
:1009F000A1AC82E58124FCF581D007D006D005D0DA
:100A000003D002ECD007D0046076750901E4F50A42
:100A1000900000C002C003C004C005C006C0071299
:100A200001F8D007D006D005D004D003D002900042
:100A30000E7428F0E4A3F09000107428F0E4A3F002
:100A4000300E03020E1E900014E0F8A3E0F9C3E498
:100A500098E4648089F063F08095F0500A90001467
:100A600074FFF0A3F08014900014E024FFF8A3E0DA
:100A700034FFF9900014E8F0A3E9F0D20E020E1E44
:100A8000E4F509F50AF582F583C002C003C004C08D
:100A900005C006C0071201F8D007D006D005D00463
:100AA000D003D00290000E7419F0E4A3F09000106F
:100AB0007419F0E4A3F0020E1EC004C00775820C86
:100AC000C002C003C005C00612019DA882A983AC64
:100AD000F0FFC000C001C004C00790000075F07AAC
:100AE0007444121BD1AC82AF83A8F0F9E58124FCD9
:100AF000F581D006D0058D828E83C004C005C00666
:100B0000C007C000C001121B6585824785834885E8
:100B1000F049F54AD001D000D007D006D005D00466
:100B2000C005C006C007C047C048C049C04A8C8243
:100B30008F8388F0E9121BA1AC82E58124FCF5814A
:100B4000D007D006D005D003D002ECD007D0047077
:100B500003020C75C004C00775820AC002C003C03E
:100B600005C00612019DA882A983ACF0FFD006D073
:100B700005C004C005C006C007C000C001C004C055
:100B80000790000075F07A7444121BD185824B8562
:100B9000834C85F04DF54EE58124FCF581D007D0DE
:100BA00006D005D004D003D0028A828B83C002C055
:100BB00003C005C006121B65AC82AF83A8F0F9C064
:100BC00007C004C007C000C001854B82854C8385E7
:100BD0004DF0E54E121BA1AC82E58124FCF581D0DD
:100BE00007D006D005D003D002ECD007D0047003A4
:100BF000020C75C004C00775820BC002C003C0059B
:100C0000C00612019DA882A983ACF0FFC000C001FC
:100C1000C004C00790000075F07A7444121BD1AC78
:100C200082AF83A8F0F9E58124FCF581C007C043B9
:100C3000C044C045C0468C828F8388F0E9121BA156
:100C4000AC82E58124FCF581D007D006D005D00325
:100C5000D002ECD007D004601C100D028017C20C2B
:100C60009007D012010B12020B90000A12031C9085
:100C700001F402010BC004C00775820CC002C0035E
:100C8000C005C00612019DA882A983ACF0FFC00078
:100C9000C001C004C00790000075F07A7444121BB4
:100CA000D1AC82AF83A8F0F9E58124FCF581C007BF
:100CB000C047C048C049C04A8C828F8388F0E9127F
:100CC0001BA1AC82E58124FCF581D007D006D005BC
:100CD000D003D002ECD007D0047003020DE8C004AA
:100CE000C00775820AC002C003C005C00612019D7C
:100CF000A882A983ACF0FFD006D005C004C005C00F
:100D000006C007C000C001C004C00790000075F015
:100D10007A7444121BD185824B85834C85F04DF546
:100D20004EE58124FCF581D007D006D005D004D053
:100D300003D0028A828B83C002C003C005C00612A2
:100D40001B65AC82AF83A8F0F9C007C004C007C020
:100D500000C001854B82854C83854DF0E54E121B0A
:100D6000A1AC82E58124FCF581D007D006D005D066
:100D700003D002ECD007D004606EC004C0077582B7
:100D80000BC002C003C005C00612019DA882A98342
:100D9000ACF0FFC000C001C004C00790000075F0B7
:100DA0007A7444121BD1AC82AF83A8F0F9E5812498
:100DB000FCF581C007C043C044C045C0468C828F4B
:100DC0008388F0E9121BA1AC82E58124FCF581D077
:100DD00007D006D005D003D002ECD007D0046008BD
:100DE000100C028003C20D22E4F509F50AF582F524
:100DF00083C002C003C004C005C006C0071201F8CA
:100E0000D007D006D005D004D003D00290000E74D5
:100E100019F0E4A3F09000107419F0E4A3F090002E
:100E200014E0F8A3E0F9C3E89407E96480948040F3
:100E300002D20A900014E0F8A3E0F9C374F99874A0
:100E40007F89F063F08095F04002C20A200B030214
:100E500010E9200A03020F9EC004C00775820AC071
:100E600002C003C005C00612019DA882A983ACF090
:100E7000FFD006D005C004C005C006C007C000C032
:100E800001C004C00790000075F07A7444121BD1B1
:100E900085824B85834C85F04DF54EE58124FCF52C
:100EA00081D007D006D005D004D003D0028A828B2F
:100EB00083C002C003C005C006121B65AC82AF83AD
:100EC000A8F0F9C007C004C007C000C001854B826C
:100ED000854C83854DF0E54E121BA1AC82E5812443
:100EE000FCF581D007D006D005D003D002ECD007A6
:100EF000D0047003020F9EC004C00775820BC002AD
:100F0000C003C005C00612019DA882A983ACF0FFF2
:100F1000C000C001C004C00790000075F07A74449E
:100F2000121BD1AC82AF83A8F0F9E58124FCF581D6
:100F3000C007C043C044C045C0468C828F8388F040
:100F4000E9121BA1AC82E58124FCF581D007D00613
:100F5000D005D003D002ECD007D0046041C20B858D
:100F60003D5D853E5E853F5F854060854161854290
:100F700062853A82853B83853CF0C002C003C00491
:100F8000C005C006C0071216F1D007D006D005D0A4
:100F900004D003D002301004D20D8002D20C300AEB
:100FA000030207E1C004C00775820CC002C003C081
:100FB00005C00612019DA882A983ACF0FFD006D01F
:100FC00005C004C005C006C007C000C001C004C001
:100FD0000790000075F07A7444121BD185824B850E
:100FE000834C85F04DF54EE58124FCF581D007D08A
:100FF00006D005D0048D828E83C005C006121B6505
:10100000AC82AF83A8F0F9C007C004C007C000C01D
:1010100001854B82854C83854DF0E54E121BA1ACBA
:1010200082E58124FCF581D007D006D005D003D01D
:1010300002ECD007D00470030207E1C004C00775BA
:10104000820BC002C003C005C00612019DA882A980
:1010500083ACF0FFC000C001C004C0079000007561
:10106000F07A7444121BD1AC82AF83A8F0F9E58109
:1010700024FCF581C007C043C044C045C0468C82F3
:101080008F8388F0E9121BA1AC82E58124FCF581F5
:10109000D007D006D005D003D002ECD007D0047022
:1010A000030207E1C20B853D5D853E5E853F5F859E
:1010B0004060854161854262853A82853B83853CFB
:1010C000F0C002C003C004C005C006C0071216F17C
:1010D000D007D006D005D004D003D002301005D2FE
:1010E0000D0207E1D20C0207E1900014E0F8A3E042
:1010F000F9C3E8940FE9648094805020900014E0D4
:10110000F8A3E0F9C374F198747F89F063F08095D7
:10111000F050030207E1200F030207E1C20F22C2D1
:1011200012E4F509F50AF582F5831201F83012038D
:101130000212B275820812019DAA82AB83ACF0FD47
:10114000C002C003C004C00590000075F07A74446A
:10115000121BD1AA82AB83ACF0FDE58124FCF581A2
:101160008A828B838CF0ED121C9CAA82AB837582E1
:1011700009C002C00312019DAC82AD83AEF0FFC076
:1011800004C005C006C00790000075F07A744412D0
:101190001BD1AC82AD83AEF0FFE58124FCF5818CE0
:1011A000828D838EF0EF121C9CAC82AD83D003D075
:1011B00002C374E89A74039BE433FE601EC3EC948C
:1011C000E8ED9403501590000E7405F0E4A3F09040
:1011D00000107428F0E4A3F002127EC374E89C743B
:1011E000039DE433FF601DC3EA94E8EB94035014BD
:1011F00090000E7428F0E4A3F09000107405F0E461
:10120000A3F0807AEF6053EE6050120313AE82AF0A
:1012100083A8F0F9E4C0E0C0E07420C0E07442C0EC
:10122000E08E828F8388F0E9121BA1AE82E58124D3
:10123000FCF581EE601490000E7428F0E4A3F090A9
:1012400000107428F0E4A3F0803490000EE4F0A3C2
:10125000F0900010E4F0A3F08024C3EC94E8ED9447
:1012600003501BC3EA94E8EB9403501290000E74F1
:1012700019F0E4A3F09000107419F0E4A3F0120345
:1012800013AA82AB83ACF0FDE4C0E0C0E07480C080
:10129000E07440C0E08A828B838CF0ED121BA1AA1F
:1012A00082E58124FCF581EA700302112DD212023D
:1012B000112D90000E7419F0E4A3F0900010741931
:1012C000F0E4A3F09001F412010B12020B90000263
:1012D00012031C9001F402010B8582518583528513
:1012E000F053C21330130302139675820B12019D43
:1012F000AD82AE83AFF0F8C005C006C007C0009055
:10130000000075F07A7444121BD1AD82AE83AFF049
:10131000F8E58124FCF5818551828552838553F05F
:10132000121B49F9A3121B49FAE92470F582EA3429
:10133000FEF583C005C006C007C000121B65AA8267
:10134000AB83ACF0F9D000D007D006D005C002C006
:1013500003C004C0018D828E838FF0E8121BA1AA06
:1013600082E58124FCF581EA600812020BD21302A7
:1013700012E4854F0985500A854F828550831201FA
:10138000F890000E7419F0E4A3F09000107419F0B6
:10139000E4A3F00212E42285825785835885F05930
:1013A00075820C12019DAD82AE83AFF0F8C005C00E
:1013B00006C007C00090000075F07A7444121BD17B
:1013C000AD82AE83AFF0F8E58124FCF581855782CC
:1013D0008558838559F0121B49F9A3121B49FAE974
:1013E0002470F582EA34FEF583C005C006C007C04C
:1013F00000121B65AA82AB83ACF0F9D000D007D0F5
:1014000006D005C002C003C004C0018D828E838F48
:10141000F0E8121BA1AA82E58124FCF581EA6009AB
:1014200090000A12021F0214B275820A12019DAACC
:1014300082AB83ACF0FDC002C003C004C0059000C5
:101440000075F07A7444121BD1AA82AB83ACF0FD14
:10145000E58124FCF581AE54AF55A8568E828F836A
:1014600088F0121B49FEA3121B49FFEE2470F5827F
:10147000EF34FEF583C002C003C004C005121B6533
:10148000AE82AF83A8F0F9D005D004D003D002C05B
:1014900006C007C000C0018A828B838CF0ED121B4E
:1014A000A1AA82E58124FCF581EA600690000A1277
:1014B000024D85545A85555B85565C75820C120128
:1014C0009DAD82AE83AFF0F8C005C006C007C00076
:1014D00090000075F07A7444121BD1AD82AE83AFD8
:1014E000F0F8E58124FCF58185578285588385597C
:1014F000F0121B49F9A3121B49FAE92470F582EA9C
:1015000034FEF583C005C006C007C000121B65AAE3
:1015100082AB83ACF0F9D000D007D006D005C00272
:10152000C003C004C0018D828E838FF0E8121BA11E
:10153000AA82E58124FCF581EA70030215C1758257
:101540000A12019DAD82AE83AFF0F8C005C006C09F
:1015500007C00090000075F07A7444121BD1AD8270
:10156000AE83AFF0F8E58124FCF581855A82855B76
:1015700083855CF0121B49F9A3121B49FAE9247018
:10158000F582EA34FEF583C005C006C007C000122C
:101590001B65AA82AB83ACF0F9D000D007D006D08F
:1015A00005C002C003C004C0018D828E838FF0E8A5
:1015B000121BA1AA82E58124FCF581EA60030214D2
:1015C000BB2275820812019DAA82AB83ACF0FDC0DC
:1015D00002C003C004C00590000075F07A74441284
:1015E0001BD1AA82AB83ACF0FDE58124FCF581E43C
:1015F000C0E0C0E0747AC0E07444C0E08A828B83AB
:101600008CF0ED121BA1AA82E58124FCF581EA7021
:101610004F75820912019DAA82AB83ACF0FDC00216
:10162000C003C004C00590000075F07A7444121B1A
:10163000D1AA82AB83ACF0FDE58124FCF581E4C046
:10164000E0C0E0747AC0E07444C0E08A828B838C8E
:10165000F0ED121BA1AA82E58124FCF581EA600469
:1016600090000122120313AA82AB83ACF0FDE4C008
:10167000E0C0E07420C0E07442C0E08A828B838CBA
:10168000F0ED121B71AA82E58124FCF581EA700459
:10169000900001229000002290000A12031C120206
:1016A0000B9001F412010B300A1DE4F509F50A90C4
:1016B00000011201F8900010E4F0A3F090000E7405
:1016C00019F0E4A3F0801C750901E4F50A9000000C
:1016D0001201F89000107419F0E4A3F090000EE4E9
:1016E000F0A3F01215C2AA82AB83BA01F6BB00F3D5
:1016F0002285826385836485F065200A0302183A97
:10170000750901E4F50A9000001201F890000E74CA
:1017100023F0E4A3F09000107423F0E4A3F090020F
:10172000BC12010B85606985616A85626B855D66A7
:10173000855E67855F6875820A12019DA882A9830C
:10174000ADF0FEC000C001C005C00690000075F0FD
:101750007A7444121BD185826C85836D85F06EF599
:101760006FE58124FCF581856982856A83856BF04C
:10177000121B49F9A3121B49FDE92470F582ED34CF
:10178000FEF583121B65AD82AE83AFF0F8C005C0D5
:1017900006C007C000856C82856D83856EF0E56F9D
:1017A000121BA1AD82E58124FCF581ED7088758264
:1017B0000B12019DAD82AE83AFF0F8C005C006C02C
:1017C00007C00090000075F07A7444121BD1858226
:1017D0006C85836D85F06EF56FE58124FCF5818560
:1017E00066828567838568F0121B49F9A3121B493D
:1017F000FDE92470F582ED34FEF583121B65AD82A0
:10180000AE83AFF0F8C005C006C007C000856C828B
:10181000856D83856EF0E56F121BA1AD82E5812495
:10182000FCF581ED6003021736E4F54FF55085664F
:10183000828567838568F00212D9E4F509F50A907C
:1018400000011201F890000E7423F0E4A3F0900060
:10185000107423F0E4A3F09002BC12010BAD5DAE56
:101860005EAF5FC005C006C00775820CC005C0062C
:10187000C00712019DA882A983AAF0FBC000C00185
:10188000C002C00390000075F07A7444121BD1AA04
:1018900082AB83ACF0F8E58124FCF581D007D0065B
:1018A000D0058563828564838565F0121B49F9A3A1
:1018B000121B49FDE92470F582ED34FEF583C00268
:1018C000C003C004C000121B65AD82AE83AFF0F947
:1018D000D000D004D003D002C005C006C007C005A8
:1018E000C006C007C0018A828B838CF0E8121BA15E
:1018F000AA82E58124FCF581D007D006D005D00767
:10190000D006D005EA600302186375820BC005C0DB
:1019100006C00712019DAA82AB83ACF0F8C002C0DA
:1019200003C004C00090000075F07A7444121BD10B
:1019300085826C85836D85F06EF56FE58124FCF5FD
:1019400081D007D006D0058D828E838FF0121B497F
:10195000F9A3121B49FAE92470F582EA34FEF583F3
:10196000C005C006C007121B65AA82AB83ACF0F8A5
:10197000C002C003C004C000856C82856D83856E83
:10198000F0E56F121BA1AA82E58124FCF581D00746
:10199000D006D005EA6003021863E4F54FF5508DD8
:1019A000828E838FF00212D912020B75080675829F
:1019B0000112014675080575820112014675080479
:1019C0007582011201467508037582011201467580
:1019D00008027582011201461200C9C20B752B0C58
:1019E000752C00752D00752E0A752F00753000902E
:1019F000000875F00012047FE4F54FF55090000CDC
:101A000075F0001212D975540A755500755600907C
:101A1000000875F000121397D20F75340C7535005D
:101A200075360075370A75380075390090000875ED
:101A3000F00012074212020B90000A12031C9003DE
:101A4000E812010B12169812111F752B0C752C0041
:101A5000752D00752E0A752F0075300090000875E1
:101A6000F00012047F754F01E4F55090000C75F002
:101A7000001212D9900014E4F0A3F075340C7535FF
:101A80000075360075370A75380075390090000802
:101A900075F000120742D20BD21075340C75350068
:101AA00075360075370A753800753900900008756D
:101AB000F00012074212020B9001F412010B752B79
:101AC0000C752C00752D00752E0A752F00753000D1
:101AD00090000875F00012047F754F01E4F55090F6
:101AE000000C75F0001212D975540A755500755620
:101AF0000090000875F00012139790000212031C6A
:101B0000900014E4F0A3F0D20F75340C7535007515
:101B1000360075370A75380075390090000875F081
:101B200000120742D20BC21075340C7535007536A1
:101B30000075370A75380075390090000875F00097
:101B400012074212027C0219DB20F71430F61488C7
:101B500083A88220F507E6A88375830022E280F738
:101B6000E49322E022E4AC83AB82FAF9748E021D86
:101B7000DCFFA8811818121E04D2D133E6400730CA
:101B8000E70B7582012220E70675820022C2D1127E
:101B90001DE6E97003F5822230D101B3E433F5820A
:101BA00022FFA8811818121E04D2D133E640073054
:101BB000E70B7582002220E70675820122C2D1124E
:101BC0001DE6E97003F5822220D101B3E433F582EA
:101BD00022121EB1BC0003021E50EF60FA30D50283
:101BE000B2D1E583B4FF03021E66E582B4FF0302AF
:101BF0001E66258340072482400B021E5024831456
:101C00005003021E66F582EA8DF0A4A8F0EA8EF079
:101C1000A428F8E435F0F9EB8DF0A428E935F0F9C3
:101C2000E433CA8FF0A429F9EA35F0FAEBF88EF024
:101C3000A429F9EA35F0FAE433FBEC8DF0A429F994
:101C4000EA35F0FAE43BFBE88FF0A42AFAEB35F032
:101C5000FBE433CCFD8EF0A42AFAEB35F0FBE43C38
:101C6000FCED8FF0A42BFBEC35F0FC20E703121EFB
:101C70007E021E2FE58330E709F4F583E582F4F553
:101C800082A32220F71030F6118883A88220F5075E
:101C9000F6A88375830022F280F7F0227F8E121E51
:101CA000E1F58385F08222AC83AB827A00790074FF
:101CB0008E021F0F121EB130D502B2D1BF0009BC77
:101CC0000003021E73021E66BC0003021E50E58361
:101CD000B4FF0BE582B4FF03021E73021E50E582BF
:101CE000B4FF03021E66C395835007247F400B0296
:101CF0001E502480145003021E66C0E0E4CCCBCA00
:101D0000F98D088E098F0AEF54F0C4F50B75830620
:101D1000850BF0EB84F582E9C4F9EAC4FAEBC4FB65
:101D2000EC540FC47803D6FC18EBD6FB18EAD6FAAD
:101D30008582F0EDA4A8F0FD8582F0EEA428FEE4F3
:101D400035F0F88582F0EFA428FFE435F0F8E99D3E
:101D5000F9EA9EFAEB9FFBEC98FCAD08AE09AF0ADE
:101D600030E7101582E92DF9EA3EFAEB3FFBE43C3F
:101D7000FC80EDC082D58398C3E933F9EA33FAEBEE
:101D800033FBEC33FCC3E99DEA9EEB9FEC9400B37C
:101D9000E413F9D002D0E0C44AFAD003D0E0C44B37
:101DA000FBD004D0E0F5F0540FC44CFCD082158277
:101DB00030F40FD3EC13FCEB13FBEA13FAE913F93D
:101DC0000582E930E70A74012AFAE43BFBE43CFCB3
:101DD000021E47FCABF0AA83A982749EC2D1F58291
:101DE000121E7E021E2F7901AA82E68F82B582130F
:101DF00018E6B5F00E18E6B5830918E68A82B582B2
:101E000002790022B4800FE5F0700AE5837006E5E0
:101E10008270027F00EFB6801518B6001018B60069
:101E20000B18B6000608080876002208080822B930
:101E30008003EA13B34010EA2401FAE43BFBE43CDC
:101E4000FC50047C800582BC000EBB000BBA00086D
:101E5000E4F5F0F583F58222A2D1E582138CF092AD
:101E6000F78B838A8222E4F583F58275F080F4A2F1
:101E7000D11322E4F583F58275F0C0747F227804D3
:101E8000EC7011E58224F8500AF582E4C9CACBFC53
:101E9000D8EF22EC7820058220E713D5820122C3F7
:101EA000E933F9EA33FAEB33FBEC33FCD8EA158279
:101EB00022AA82AB83A2F73392D16002D2F7F582D5
:101EC000ACF0E58124F9F8E6FD08E6FE0886F008A6
:101ED000E6A2F73392D56002D2F7F583AFF0227F06
:101EE0009E121F3330D103021E50C3EF958250095A
:101EF00074FFF5F0F583F582227900121F4589827F
:101F00008A838BF0EC22FCABF0AA83A982749EF545
:101F100082C2D1EC30E716D2D1E9F42401F9EAF417
:101F20003400FAEBF43400FBECF43400FC121E7EB7
:101F3000021E2FAA82AB83A2F73392D16002D2F79E
:101F4000F582ACF0226040F82582500274FFF582E1
:101F5000E824F8501ECCCBCAF9E4CC24F85014CBBA
:101F6000CAF9E4CB24F8500BCAF9E4CA24F85003A8
:101F700079002224086010F8C3EC13FCEB13FBEA91
:101F800013FAE913F9D8F122000000000000000064
:00000001FF
